{
  "abi": [
    {
      "inputs": [
        {
          "internalType": "address",
          "name": "_vault",
          "type": "address"
        }
      ],
      "stateMutability": "nonpayable",
      "type": "constructor"
    },
    {
      "anonymous": false,
      "inputs": [],
      "name": "EmergencyExitEnabled",
      "type": "event"
    },
    {
      "anonymous": false,
      "inputs": [
        {
          "indexed": false,
          "internalType": "uint256",
          "name": "profit",
          "type": "uint256"
        },
        {
          "indexed": false,
          "internalType": "uint256",
          "name": "loss",
          "type": "uint256"
        },
        {
          "indexed": false,
          "internalType": "uint256",
          "name": "debtPayment",
          "type": "uint256"
        },
        {
          "indexed": false,
          "internalType": "uint256",
          "name": "debtOutstanding",
          "type": "uint256"
        }
      ],
      "name": "Harvested",
      "type": "event"
    },
    {
      "anonymous": false,
      "inputs": [
        {
          "indexed": false,
          "internalType": "bool",
          "name": "",
          "type": "bool"
        }
      ],
      "name": "SetDoHealthCheck",
      "type": "event"
    },
    {
      "anonymous": false,
      "inputs": [
        {
          "indexed": false,
          "internalType": "address",
          "name": "",
          "type": "address"
        }
      ],
      "name": "SetHealthCheck",
      "type": "event"
    },
    {
      "anonymous": false,
      "inputs": [
        {
          "indexed": false,
          "internalType": "uint256",
          "name": "debtThreshold",
          "type": "uint256"
        }
      ],
      "name": "UpdatedDebtThreshold",
      "type": "event"
    },
    {
      "anonymous": false,
      "inputs": [
        {
          "indexed": false,
          "internalType": "address",
          "name": "newKeeper",
          "type": "address"
        }
      ],
      "name": "UpdatedKeeper",
      "type": "event"
    },
    {
      "anonymous": false,
      "inputs": [
        {
          "indexed": false,
          "internalType": "uint256",
          "name": "delay",
          "type": "uint256"
        }
      ],
      "name": "UpdatedMaxReportDelay",
      "type": "event"
    },
    {
      "anonymous": false,
      "inputs": [
        {
          "indexed": false,
          "internalType": "string",
          "name": "metadataURI",
          "type": "string"
        }
      ],
      "name": "UpdatedMetadataURI",
      "type": "event"
    },
    {
      "anonymous": false,
      "inputs": [
        {
          "indexed": false,
          "internalType": "uint256",
          "name": "delay",
          "type": "uint256"
        }
      ],
      "name": "UpdatedMinReportDelay",
      "type": "event"
    },
    {
      "anonymous": false,
      "inputs": [
        {
          "indexed": false,
          "internalType": "uint256",
          "name": "profitFactor",
          "type": "uint256"
        }
      ],
      "name": "UpdatedProfitFactor",
      "type": "event"
    },
    {
      "anonymous": false,
      "inputs": [
        {
          "indexed": false,
          "internalType": "address",
          "name": "rewards",
          "type": "address"
        }
      ],
      "name": "UpdatedRewards",
      "type": "event"
    },
    {
      "anonymous": false,
      "inputs": [
        {
          "indexed": false,
          "internalType": "address",
          "name": "newStrategist",
          "type": "address"
        }
      ],
      "name": "UpdatedStrategist",
      "type": "event"
    },
    {
      "inputs": [],
      "name": "DENOMINATOR",
      "outputs": [
        {
          "internalType": "uint256",
          "name": "",
          "type": "uint256"
        }
      ],
      "stateMutability": "view",
      "type": "function"
    },
    {
      "inputs": [],
      "name": "apiVersion",
      "outputs": [
        {
          "internalType": "string",
          "name": "",
          "type": "string"
        }
      ],
      "stateMutability": "pure",
      "type": "function"
    },
    {
      "inputs": [],
      "name": "balanceOfPool",
      "outputs": [
        {
          "internalType": "uint256",
          "name": "",
          "type": "uint256"
        }
      ],
      "stateMutability": "view",
      "type": "function"
    },
    {
      "inputs": [],
      "name": "balanceOfWant",
      "outputs": [
        {
          "internalType": "uint256",
          "name": "",
          "type": "uint256"
        }
      ],
      "stateMutability": "view",
      "type": "function"
    },
    {
      "inputs": [],
      "name": "crv",
      "outputs": [
        {
          "internalType": "address",
          "name": "",
          "type": "address"
        }
      ],
      "stateMutability": "view",
      "type": "function"
    },
    {
      "inputs": [],
      "name": "curve",
      "outputs": [
        {
          "internalType": "address",
          "name": "",
          "type": "address"
        }
      ],
      "stateMutability": "view",
      "type": "function"
    },
    {
      "inputs": [],
      "name": "dai",
      "outputs": [
        {
          "internalType": "address",
          "name": "",
          "type": "address"
        }
      ],
      "stateMutability": "view",
      "type": "function"
    },
    {
      "inputs": [],
      "name": "debtThreshold",
      "outputs": [
        {
          "internalType": "uint256",
          "name": "",
          "type": "uint256"
        }
      ],
      "stateMutability": "view",
      "type": "function"
    },
    {
      "inputs": [],
      "name": "delegatedAssets",
      "outputs": [
        {
          "internalType": "uint256",
          "name": "",
          "type": "uint256"
        }
      ],
      "stateMutability": "view",
      "type": "function"
    },
    {
      "inputs": [],
      "name": "dex",
      "outputs": [
        {
          "internalType": "address",
          "name": "",
          "type": "address"
        }
      ],
      "stateMutability": "view",
      "type": "function"
    },
    {
      "inputs": [],
      "name": "doHealthCheck",
      "outputs": [
        {
          "internalType": "bool",
          "name": "",
          "type": "bool"
        }
      ],
      "stateMutability": "view",
      "type": "function"
    },
    {
      "inputs": [],
      "name": "emergencyExit",
      "outputs": [
        {
          "internalType": "bool",
          "name": "",
          "type": "bool"
        }
      ],
      "stateMutability": "view",
      "type": "function"
    },
    {
      "inputs": [],
      "name": "estimatedTotalAssets",
      "outputs": [
        {
          "internalType": "uint256",
          "name": "",
          "type": "uint256"
        }
      ],
      "stateMutability": "view",
      "type": "function"
    },
    {
      "inputs": [
        {
          "internalType": "uint256",
          "name": "_amtInWei",
          "type": "uint256"
        }
      ],
      "name": "ethToWant",
      "outputs": [
        {
          "internalType": "uint256",
          "name": "",
          "type": "uint256"
        }
      ],
      "stateMutability": "view",
      "type": "function"
    },
    {
      "inputs": [],
      "name": "gauge",
      "outputs": [
        {
          "internalType": "address",
          "name": "",
          "type": "address"
        }
      ],
      "stateMutability": "view",
      "type": "function"
    },
    {
      "inputs": [],
      "name": "harvest",
      "outputs": [],
      "stateMutability": "nonpayable",
      "type": "function"
    },
    {
      "inputs": [
        {
          "internalType": "uint256",
          "name": "callCostInWei",
          "type": "uint256"
        }
      ],
      "name": "harvestTrigger",
      "outputs": [
        {
          "internalType": "bool",
          "name": "",
          "type": "bool"
        }
      ],
      "stateMutability": "view",
      "type": "function"
    },
    {
      "inputs": [],
      "name": "healthCheck",
      "outputs": [
        {
          "internalType": "address",
          "name": "",
          "type": "address"
        }
      ],
      "stateMutability": "view",
      "type": "function"
    },
    {
      "inputs": [],
      "name": "isActive",
      "outputs": [
        {
          "internalType": "bool",
          "name": "",
          "type": "bool"
        }
      ],
      "stateMutability": "view",
      "type": "function"
    },
    {
      "inputs": [],
      "name": "keepCRV",
      "outputs": [
        {
          "internalType": "uint256",
          "name": "",
          "type": "uint256"
        }
      ],
      "stateMutability": "view",
      "type": "function"
    },
    {
      "inputs": [],
      "name": "keeper",
      "outputs": [
        {
          "internalType": "address",
          "name": "",
          "type": "address"
        }
      ],
      "stateMutability": "view",
      "type": "function"
    },
    {
      "inputs": [],
      "name": "maxReportDelay",
      "outputs": [
        {
          "internalType": "uint256",
          "name": "",
          "type": "uint256"
        }
      ],
      "stateMutability": "view",
      "type": "function"
    },
    {
      "inputs": [],
      "name": "metadataURI",
      "outputs": [
        {
          "internalType": "string",
          "name": "",
          "type": "string"
        }
      ],
      "stateMutability": "view",
      "type": "function"
    },
    {
      "inputs": [
        {
          "internalType": "address",
          "name": "_newStrategy",
          "type": "address"
        }
      ],
      "name": "migrate",
      "outputs": [],
      "stateMutability": "nonpayable",
      "type": "function"
    },
    {
      "inputs": [],
      "name": "minReportDelay",
      "outputs": [
        {
          "internalType": "uint256",
          "name": "",
          "type": "uint256"
        }
      ],
      "stateMutability": "view",
      "type": "function"
    },
    {
      "inputs": [],
      "name": "name",
      "outputs": [
        {
          "internalType": "string",
          "name": "",
          "type": "string"
        }
      ],
      "stateMutability": "view",
      "type": "function"
    },
    {
      "inputs": [
        {
          "internalType": "uint256",
          "name": "",
          "type": "uint256"
        }
      ],
      "name": "path",
      "outputs": [
        {
          "internalType": "address",
          "name": "",
          "type": "address"
        }
      ],
      "stateMutability": "view",
      "type": "function"
    },
    {
      "inputs": [],
      "name": "profitFactor",
      "outputs": [
        {
          "internalType": "uint256",
          "name": "",
          "type": "uint256"
        }
      ],
      "stateMutability": "view",
      "type": "function"
    },
    {
      "inputs": [],
      "name": "proxy",
      "outputs": [
        {
          "internalType": "address",
          "name": "",
          "type": "address"
        }
      ],
      "stateMutability": "view",
      "type": "function"
    },
    {
      "inputs": [],
      "name": "rewards",
      "outputs": [
        {
          "internalType": "address",
          "name": "",
          "type": "address"
        }
      ],
      "stateMutability": "view",
      "type": "function"
    },
    {
      "inputs": [
        {
          "internalType": "uint256",
          "name": "_debtThreshold",
          "type": "uint256"
        }
      ],
      "name": "setDebtThreshold",
      "outputs": [],
      "stateMutability": "nonpayable",
      "type": "function"
    },
    {
      "inputs": [
        {
          "internalType": "bool",
          "name": "_doHealthCheck",
          "type": "bool"
        }
      ],
      "name": "setDoHealthCheck",
      "outputs": [],
      "stateMutability": "nonpayable",
      "type": "function"
    },
    {
      "inputs": [],
      "name": "setEmergencyExit",
      "outputs": [],
      "stateMutability": "nonpayable",
      "type": "function"
    },
    {
      "inputs": [
        {
          "internalType": "address",
          "name": "_healthCheck",
          "type": "address"
        }
      ],
      "name": "setHealthCheck",
      "outputs": [],
      "stateMutability": "nonpayable",
      "type": "function"
    },
    {
      "inputs": [
        {
          "internalType": "uint256",
          "name": "_keepCRV",
          "type": "uint256"
        }
      ],
      "name": "setKeepCRV",
      "outputs": [],
      "stateMutability": "nonpayable",
      "type": "function"
    },
    {
      "inputs": [
        {
          "internalType": "address",
          "name": "_keeper",
          "type": "address"
        }
      ],
      "name": "setKeeper",
      "outputs": [],
      "stateMutability": "nonpayable",
      "type": "function"
    },
    {
      "inputs": [
        {
          "internalType": "uint256",
          "name": "_delay",
          "type": "uint256"
        }
      ],
      "name": "setMaxReportDelay",
      "outputs": [],
      "stateMutability": "nonpayable",
      "type": "function"
    },
    {
      "inputs": [
        {
          "internalType": "string",
          "name": "_metadataURI",
          "type": "string"
        }
      ],
      "name": "setMetadataURI",
      "outputs": [],
      "stateMutability": "nonpayable",
      "type": "function"
    },
    {
      "inputs": [
        {
          "internalType": "uint256",
          "name": "_delay",
          "type": "uint256"
        }
      ],
      "name": "setMinReportDelay",
      "outputs": [],
      "stateMutability": "nonpayable",
      "type": "function"
    },
    {
      "inputs": [
        {
          "internalType": "uint256",
          "name": "_id",
          "type": "uint256"
        }
      ],
      "name": "setPath",
      "outputs": [],
      "stateMutability": "nonpayable",
      "type": "function"
    },
    {
      "inputs": [
        {
          "internalType": "uint256",
          "name": "_profitFactor",
          "type": "uint256"
        }
      ],
      "name": "setProfitFactor",
      "outputs": [],
      "stateMutability": "nonpayable",
      "type": "function"
    },
    {
      "inputs": [
        {
          "internalType": "address",
          "name": "_proxy",
          "type": "address"
        }
      ],
      "name": "setProxy",
      "outputs": [],
      "stateMutability": "nonpayable",
      "type": "function"
    },
    {
      "inputs": [
        {
          "internalType": "address",
          "name": "_rewards",
          "type": "address"
        }
      ],
      "name": "setRewards",
      "outputs": [],
      "stateMutability": "nonpayable",
      "type": "function"
    },
    {
      "inputs": [
        {
          "internalType": "address",
          "name": "_strategist",
          "type": "address"
        }
      ],
      "name": "setStrategist",
      "outputs": [],
      "stateMutability": "nonpayable",
      "type": "function"
    },
    {
      "inputs": [],
      "name": "strategist",
      "outputs": [
        {
          "internalType": "address",
          "name": "",
          "type": "address"
        }
      ],
      "stateMutability": "view",
      "type": "function"
    },
    {
      "inputs": [],
      "name": "sushiswap",
      "outputs": [
        {
          "internalType": "address",
          "name": "",
          "type": "address"
        }
      ],
      "stateMutability": "view",
      "type": "function"
    },
    {
      "inputs": [
        {
          "internalType": "address",
          "name": "_token",
          "type": "address"
        }
      ],
      "name": "sweep",
      "outputs": [],
      "stateMutability": "nonpayable",
      "type": "function"
    },
    {
      "inputs": [
        {
          "internalType": "bool",
          "name": "isUniswap",
          "type": "bool"
        }
      ],
      "name": "switchDex",
      "outputs": [],
      "stateMutability": "nonpayable",
      "type": "function"
    },
    {
      "inputs": [],
      "name": "tend",
      "outputs": [],
      "stateMutability": "nonpayable",
      "type": "function"
    },
    {
      "inputs": [
        {
          "internalType": "uint256",
          "name": "callCostInWei",
          "type": "uint256"
        }
      ],
      "name": "tendTrigger",
      "outputs": [
        {
          "internalType": "bool",
          "name": "",
          "type": "bool"
        }
      ],
      "stateMutability": "view",
      "type": "function"
    },
    {
      "inputs": [],
      "name": "uniswap",
      "outputs": [
        {
          "internalType": "address",
          "name": "",
          "type": "address"
        }
      ],
      "stateMutability": "view",
      "type": "function"
    },
    {
      "inputs": [],
      "name": "usdc",
      "outputs": [
        {
          "internalType": "address",
          "name": "",
          "type": "address"
        }
      ],
      "stateMutability": "view",
      "type": "function"
    },
    {
      "inputs": [],
      "name": "usdt",
      "outputs": [
        {
          "internalType": "address",
          "name": "",
          "type": "address"
        }
      ],
      "stateMutability": "view",
      "type": "function"
    },
    {
      "inputs": [],
      "name": "vault",
      "outputs": [
        {
          "internalType": "contract VaultAPI",
          "name": "",
          "type": "address"
        }
      ],
      "stateMutability": "view",
      "type": "function"
    },
    {
      "inputs": [],
      "name": "voter",
      "outputs": [
        {
          "internalType": "address",
          "name": "",
          "type": "address"
        }
      ],
      "stateMutability": "view",
      "type": "function"
    },
    {
      "inputs": [],
      "name": "want",
      "outputs": [
        {
          "internalType": "contract IERC20",
          "name": "",
          "type": "address"
        }
      ],
      "stateMutability": "view",
      "type": "function"
    },
    {
      "inputs": [],
      "name": "wbtc",
      "outputs": [
        {
          "internalType": "address",
          "name": "",
          "type": "address"
        }
      ],
      "stateMutability": "view",
      "type": "function"
    },
    {
      "inputs": [],
      "name": "weth",
      "outputs": [
        {
          "internalType": "address",
          "name": "",
          "type": "address"
        }
      ],
      "stateMutability": "view",
      "type": "function"
    },
    {
      "inputs": [
        {
          "internalType": "uint256",
          "name": "_amountNeeded",
          "type": "uint256"
        }
      ],
      "name": "withdraw",
      "outputs": [
        {
          "internalType": "uint256",
          "name": "_loss",
          "type": "uint256"
        }
      ],
      "stateMutability": "nonpayable",
      "type": "function"
    }
  ],
  "bytecode": "60806040523480156200001157600080fd5b50604051620042ac380380620042ac8339810160408190526200003491620008d3565b80806200004481338080620001f0565b50506154606007556202a3006008556103e8600981905569d3c21bcecceda1000000600a55600b8054749a165622a744c20e3b2cb443aed98110a33a231b00610100600160a81b0319909116179055600c80546001600160a01b031990811673d9e1ce17f2641f24ae83637ab66a2cca9c378b9f17909155600d8054821673bebc44782c7db0a1a60cb6fe97d0b483032ff1c7179055600e805490911673bfcf63294ad7105dea65aa58f8ae5be2d9d0952a179055600f55604080516003808252608082019092529060208201606080368337505081516200012e92601092506020019062000852565b5073d533a949740bb3306d119cc777fa900ba034cd5260106000815481106200015b576200015b620008fe565b9060005260206000200160006101000a8154816001600160a01b0302191690836001600160a01b0316021790555073c02aaa39b223fe8d0a0e5c4f27ead9083c756cc26010600181548110620001b557620001b5620008fe565b6000918252602082200180546001600160a01b0319166001600160a01b039390931692909217909155620001e990620003d4565b50620009d8565b6006546001600160a01b0316156200024f5760405162461bcd60e51b815260206004820152601c60248201527f537472617465677920616c726561647920696e697469616c697a65640000000060448201526064015b60405180910390fd5b600280546001600160a01b0319166001600160a01b03861690811790915560408051637e062a3560e11b8152905163fc0c546a916004808201926020929091908290030181865afa158015620002a9573d6000803e3d6000fd5b505050506040513d601f19601f82011682018060405250810190620002cf9190620008d3565b600680546001600160a01b0319166001600160a01b0392909216918217905562000309908560001962000499602090811b620022de17901c565b600380546001600160a01b038581166001600160a01b03199283161790925560048054858416908316811782556005805486861694169390931790925560006007819055620151806008556064600955600a5560025460405163095ea7b360e01b815291820192909252600019602482015291169063095ea7b3906044016020604051808303816000875af1158015620003a7573d6000803e3d6000fd5b505050506040513d601f19601f82011682018060405250810190620003cd919062000914565b5050505050565b806200043757736b175474e89094c44da98b954eedeac495271d0f6010600281548110620004065762000406620008fe565b9060005260206000200160006101000a8154816001600160a01b0302191690836001600160a01b0316021790555050565b80600114156200046d5773a0b86991c6218b36c1d19d4a2e9eb0ce3606eb486010600281548110620004065762000406620008fe565b73dac17f958d2ee523a2206206994597c13d831ec76010600281548110620004065762000406620008fe565b801580620005175750604051636eb1769f60e11b81523060048201526001600160a01b03838116602483015284169063dd62ed3e90604401602060405180830381865afa158015620004ef573d6000803e3d6000fd5b505050506040513d601f19601f8201168201806040525081019062000515919062000938565b155b6200058b5760405162461bcd60e51b815260206004820152603660248201527f5361666545524332303a20617070726f76652066726f6d206e6f6e2d7a65726f60448201527f20746f206e6f6e2d7a65726f20616c6c6f77616e636500000000000000000000606482015260840162000246565b604080516001600160a01b038416602482015260448082018490528251808303909101815260649091019091526020810180516001600160e01b0390811663095ea7b360e01b17909152620005e3918591620005e816565b505050565b600062000644826040518060400160405280602081526020017f5361666545524332303a206c6f772d6c6576656c2063616c6c206661696c6564815250856001600160a01b0316620006c660201b6200242b179092919060201c565b805190915015620005e3578080602001905181019062000665919062000914565b620005e35760405162461bcd60e51b815260206004820152602a60248201527f5361666545524332303a204552433230206f7065726174696f6e20646964206e6044820152691bdd081cdd58d8d9595960b21b606482015260840162000246565b6060620006d78484600085620006e1565b90505b9392505050565b606082471015620007445760405162461bcd60e51b815260206004820152602660248201527f416464726573733a20696e73756666696369656e742062616c616e636520666f6044820152651c8818d85b1b60d21b606482015260840162000246565b843b620007945760405162461bcd60e51b815260206004820152601d60248201527f416464726573733a2063616c6c20746f206e6f6e2d636f6e7472616374000000604482015260640162000246565b600080866001600160a01b03168587604051620007b2919062000985565b60006040518083038185875af1925050503d8060008114620007f1576040519150601f19603f3d011682016040523d82523d6000602084013e620007f6565b606091505b5090925090506200080982828662000814565b979650505050505050565b6060831562000825575081620006da565b825115620008365782518084602001fd5b8160405162461bcd60e51b8152600401620002469190620009a3565b828054828255906000526020600020908101928215620008aa579160200282015b82811115620008aa57825182546001600160a01b0319166001600160a01b0390911617825560209092019160019091019062000873565b50620008b8929150620008bc565b5090565b5b80821115620008b85760008155600101620008bd565b600060208284031215620008e657600080fd5b81516001600160a01b0381168114620006da57600080fd5b634e487b7160e01b600052603260045260246000fd5b6000602082840312156200092757600080fd5b81518015158114620006da57600080fd5b6000602082840312156200094b57600080fd5b5051919050565b60005b838110156200096f57818101518382015260200162000955565b838111156200097f576000848401525b50505050565b600082516200099981846020870162000952565b9190910192915050565b6020815260008251806020840152620009c481604085016020870162000952565b601f01601f19169190910160400192915050565b6138c480620009e86000396000f3fe608060405234801561001057600080fd5b50600436106103995760003560e01c8063748747e6116101e9578063ac00ff261161010f578063ec38a862116100ad578063f017c92f1161007c578063f017c92f146107ac578063f4b9fa75146107bf578063fbfa77cf146107da578063fcf2d0ad146107ed57600080fd5b8063ec38a86214610766578063ec55688914610779578063ed882c2b14610791578063efbb5cb0146107a457600080fd5b8063b252720b116100e9578063b252720b14610720578063c1a3d44c14610738578063c7b9d53014610740578063ce5494bb1461075357600080fd5b8063ac00ff26146106e7578063aced1661146106fa578063af6d1fe41461070d57600080fd5b806391397ab41161018757806397107d6d1161015657806397107d6d146106935780639be28785146106a65780639ec5a894146106c1578063a6f19c84146106d457600080fd5b806391397ab41461065b578063918f86741461066e578063955383bd1461067757806395e80c501461068a57600080fd5b80637fef901a116101c35780637fef901a1461062f5780638cdfe166146106385780638e6350e21461064157806390b9c4f61461064857600080fd5b8063748747e6146105f8578063750521f51461060b578063780022a01461061e57600080fd5b80632f48ab7d116102ce57806346c96aac1161026c578063692058c21161023b578063692058c2146105a45780636a4874a1146105b75780636bc55876146105d25780637165485d146105e557600080fd5b806346c96aac1461055b5780635641ec0314610576578063650d1880146105835780636718835f1461059757600080fd5b80633e413bee116102a85780633e413bee146105155780633fc8cef314610530578063440368a31461054b5780634641257d1461055357600080fd5b80632f48ab7d146104cc57806339a172a8146104e75780633cdc5389146104fa57600080fd5b80631f1fcd511161033b578063258294101161031557806325829410146104745780632681f7e41461049557806328b7ccf7146104b05780632e1a7d4d146104b957600080fd5b80631f1fcd511461041e5780631fe4a6861461044957806322f3e2d41461045c57600080fd5b80630f969b87116103775780630f969b87146103d957806311588086146103ec57806311bc8245146104025780631d12f28b1461041557600080fd5b806301681a621461039e57806303ee438c146103b357806306fdde03146103d1575b600080fd5b6103b16103ac36600461335d565b6107f5565b005b6103bb6109df565b6040516103c891906133aa565b60405180910390f35b6103bb610a6d565b6103b16103e73660046133dd565b610b03565b6103f4610b8c565b6040519081526020016103c8565b6103b161041036600461335d565b610c0b565b6103f4600a5481565b600654610431906001600160a01b031681565b6040516001600160a01b0390911681526020016103c8565b600354610431906001600160a01b031681565b610464610d39565b60405190151581526020016103c8565b604080518082019091526005815264302e342e3360d81b60208201526103bb565b610431737a250d5630b4cf539739df2c5dacb4c659f2488d81565b6103f460085481565b6103f46104c73660046133dd565b610dc6565b61043173dac17f958d2ee523a2206206994597c13d831ec781565b6103b16104f53660046133dd565b610e3a565b610431732260fac5e5542a773aa44fbcfedf7c193bc2c59981565b61043173a0b86991c6218b36c1d19d4a2e9eb0ce3606eb4881565b61043173c02aaa39b223fe8d0a0e5c4f27ead9083c756cc281565b6103b1610ebc565b6103b16110b8565b61043173f147b8125d2ef93fb6965db97d6746952a13393481565b600b546104649060ff1681565b6104646105913660046133dd565b50600090565b6001546104649060ff1681565b600c54610431906001600160a01b031681565b61043173d533a949740bb3306d119cc777fa900ba034cd5281565b6103b16105e0366004613404565b6115a6565b600d54610431906001600160a01b031681565b6103b161060636600461335d565b61164c565b6103b1610619366004613421565b6116fa565b6103f461062c3660046133dd565b90565b6103f4600f5481565b6103f460095481565b60006103f4565b6103b16106563660046133dd565b611791565b6103b16106693660046133dd565b6117e7565b6103f461271081565b6103b16106853660046133dd565b611869565b6103f460075481565b6103b16106a136600461335d565b6118bb565b61043173d9e1ce17f2641f24ae83637ab66a2cca9c378b9f81565b600454610431906001600160a01b031681565b600e54610431906001600160a01b031681565b6103b16106f5366004613404565b61191b565b600554610431906001600160a01b031681565b61043161071b3660046133dd565b611a2d565b6001546104319061010090046001600160a01b031681565b6103f4611a57565b6103b161074e36600461335d565b611a88565b6103b161076136600461335d565b611b36565b6103b161077436600461335d565b611c5e565b600b546104319061010090046001600160a01b031681565b61046461079f3660046133dd565b611dfc565b6103f461203a565b6103b16107ba3660046133dd565b612055565b610431736b175474e89094c44da98b954eedeac495271d0f81565b600254610431906001600160a01b031681565b6103b16120d7565b6107fd612444565b6001600160a01b0316336001600160a01b0316146108365760405162461bcd60e51b815260040161082d90613493565b60405180910390fd5b6006546001600160a01b038281169116141561087c5760405162461bcd60e51b8152602060048201526005602482015264085dd85b9d60da1b604482015260640161082d565b6002546001600160a01b03828116911614156108c45760405162461bcd60e51b81526020600482015260076024820152662173686172657360c81b604482015260640161082d565b60006108ce6124b2565b905060005b8151811015610956578181815181106108ee576108ee6134b8565b60200260200101516001600160a01b0316836001600160a01b031614156109445760405162461bcd60e51b815260206004820152600a602482015269085c1c9bdd1958dd195960b21b604482015260640161082d565b8061094e816134e4565b9150506108d3565b506109db610962612444565b6040516370a0823160e01b81523060048201526001600160a01b038516906370a0823190602401602060405180830381865afa1580156109a6573d6000803e3d6000fd5b505050506040513d601f19601f820116820180604052508101906109ca91906134ff565b6001600160a01b038516919061251d565b5050565b600080546109ec90613518565b80601f0160208091040260200160405190810160405280929190818152602001828054610a1890613518565b8015610a655780601f10610a3a57610100808354040283529160200191610a65565b820191906000526020600020905b815481529060010190602001808311610a4857829003601f168201915b505050505081565b600654604080516395d89b4160e01b815290516060926001600160a01b0316916395d89b419160048083019260009291908290030181865afa158015610ab7573d6000803e3d6000fd5b505050506040513d6000823e601f3d908101601f19168201604052610adf919081019061358d565b604051602001610aef919061362f565b604051602081830303815290604052905090565b6003546001600160a01b0316331480610b345750610b1f612444565b6001600160a01b0316336001600160a01b0316145b610b505760405162461bcd60e51b815260040161082d90613493565b600a8190556040518181527fa68ba126373d04c004c5748c300c9fca12bd444b3d4332e261f3bd2bac4a8600906020015b60405180910390a150565b600b54600e546040516370a0823160e01b81526001600160a01b0391821660048201526000926101009004909116906370a08231906024015b602060405180830381865afa158015610be2573d6000803e3d6000fd5b505050506040513d601f19601f82011682018060405250810190610c0691906134ff565b905090565b600260009054906101000a90046001600160a01b03166001600160a01b03166388a8d6026040518163ffffffff1660e01b8152600401602060405180830381865afa158015610c5e573d6000803e3d6000fd5b505050506040513d601f19601f82011682018060405250810190610c829190613670565b6001600160a01b0316336001600160a01b03161480610cb95750610ca4612444565b6001600160a01b0316336001600160a01b0316145b610cd55760405162461bcd60e51b815260040161082d90613493565b6040516001600160a01b03821681527fc8db9c35f716b87af1fbb83f03c78646061931269301fd7ba6dcf189b4cdc2fc9060200160405180910390a1600180546001600160a01b0390921661010002610100600160a81b0319909216919091179055565b6002546040516339ebf82360e01b815230600482015260009182916001600160a01b03909116906339ebf8239060240161012060405180830381865afa158015610d87573d6000803e3d6000fd5b505050506040513d601f19601f82011682018060405250810190610dab919061368d565b604001511180610c0657506000610dc061203a565b11905090565b6002546000906001600160a01b03163314610e0c5760405162461bcd60e51b8152602060048201526006602482015265085d985d5b1d60d21b604482015260640161082d565b6000610e178361254d565b600654909350909150610e34906001600160a01b0316338361251d565b50919050565b6003546001600160a01b0316331480610e6b5750610e56612444565b6001600160a01b0316336001600160a01b0316145b610e875760405162461bcd60e51b815260040161082d90613493565b60078190556040518181527fbb2c369a0355a34b02ab5fce0643150c87e1c8dfe7c918d465591879f57948b190602001610b81565b6005546001600160a01b0316331480610edf57506003546001600160a01b031633145b80610f025750610eed612444565b6001600160a01b0316336001600160a01b0316145b80610f945750600260009054906101000a90046001600160a01b03166001600160a01b031663452a93206040518163ffffffff1660e01b8152600401602060405180830381865afa158015610f5b573d6000803e3d6000fd5b505050506040513d601f19601f82011682018060405250810190610f7f9190613670565b6001600160a01b0316336001600160a01b0316145b806110265750600260009054906101000a90046001600160a01b03166001600160a01b03166388a8d6026040518163ffffffff1660e01b8152600401602060405180830381865afa158015610fed573d6000803e3d6000fd5b505050506040513d601f19601f820116820180604052508101906110119190613670565b6001600160a01b0316336001600160a01b0316145b6110425760405162461bcd60e51b815260040161082d90613493565b6002546040805163bf3759b560e01b815290516110b6926001600160a01b03169163bf3759b59160048083019260209291908290030181865afa15801561108d573d6000803e3d6000fd5b505050506040513d601f19601f820116820180604052508101906110b191906134ff565b612603565b565b6005546001600160a01b03163314806110db57506003546001600160a01b031633145b806110fe57506110e9612444565b6001600160a01b0316336001600160a01b0316145b806111905750600260009054906101000a90046001600160a01b03166001600160a01b031663452a93206040518163ffffffff1660e01b8152600401602060405180830381865afa158015611157573d6000803e3d6000fd5b505050506040513d601f19601f8201168201806040525081019061117b9190613670565b6001600160a01b0316336001600160a01b0316145b806112225750600260009054906101000a90046001600160a01b03166001600160a01b03166388a8d6026040518163ffffffff1660e01b8152600401602060405180830381865afa1580156111e9573d6000803e3d6000fd5b505050506040513d601f19601f8201168201806040525081019061120d9190613670565b6001600160a01b0316336001600160a01b0316145b61123e5760405162461bcd60e51b815260040161082d90613493565b6000806000600260009054906101000a90046001600160a01b03166001600160a01b031663bf3759b56040518163ffffffff1660e01b8152600401602060405180830381865afa158015611296573d6000803e3d6000fd5b505050506040513d601f19601f820116820180604052508101906112ba91906134ff565b600b5490915060009060ff16156113175760006112d5612710565b9050828110156112f0576112e98184613708565b9350611305565b82811115611305576113028382613708565b94505b61130f8484613708565b915050611328565b6113208261274b565b919550935090505b6002546040516339ebf82360e01b81523060048201526000916001600160a01b0316906339ebf8239060240161012060405180830381865afa158015611372573d6000803e3d6000fd5b505050506040513d601f19601f82011682018060405250810190611396919061368d565b60c001516002546040516328766ebf60e21b81526004810188905260248101879052604481018590529192506001600160a01b03169063a1d9bafc906064016020604051808303816000875af11580156113f4573d6000803e3d6000fd5b505050506040513d601f19601f8201168201806040525081019061141891906134ff565b925061142383612603565b60015460ff168015611444575060015461010090046001600160a01b031615155b156115165760015460405163c70fa00b60e01b815260048101879052602481018690526044810184905260648101859052608481018390526101009091046001600160a01b03169063c70fa00b9060a401602060405180830381865afa1580156114b2573d6000803e3d6000fd5b505050506040513d601f19601f820116820180604052508101906114d6919061371f565b6115115760405162461bcd60e51b815260206004820152600c60248201526b216865616c7468636865636b60a01b604482015260640161082d565b611557565b604051600181527ff769f6bf659bbbdabf212d830720ce893eedc57f25ebb8e44edf5b300618a35b9060200160405180910390a16001805460ff1916811790555b6040805186815260208101869052908101839052606081018490527f4c0f499ffe6befa0ca7c826b0916cf87bea98de658013e76938489368d60d5099060800160405180910390a15050505050565b6003546001600160a01b03163314806115d757506115c2612444565b6001600160a01b0316336001600160a01b0316145b6115f35760405162461bcd60e51b815260040161082d90613493565b801561162257600c80546001600160a01b031916737a250d5630b4cf539739df2c5dacb4c659f2488d17905550565b600c80546001600160a01b03191673d9e1ce17f2641f24ae83637ab66a2cca9c378b9f1790555b50565b6003546001600160a01b031633148061167d5750611668612444565b6001600160a01b0316336001600160a01b0316145b6116995760405162461bcd60e51b815260040161082d90613493565b6001600160a01b0381166116ac57600080fd5b600580546001600160a01b0319166001600160a01b0383169081179091556040519081527f2f202ddb4a2e345f6323ed90f8fc8559d770a7abbbeee84dde8aca3351fe715490602001610b81565b6003546001600160a01b031633148061172b5750611716612444565b6001600160a01b0316336001600160a01b0316145b6117475760405162461bcd60e51b815260040161082d90613493565b611753600083836132af565b507f300e67d5a415b6d015a471d9c7b95dd58f3e8290af965e84e0f845de2996dda6828260405161178592919061373c565b60405180910390a15050565b6003546001600160a01b03163314806117c257506117ad612444565b6001600160a01b0316336001600160a01b0316145b6117de5760405162461bcd60e51b815260040161082d90613493565b61164981612c59565b6003546001600160a01b03163314806118185750611803612444565b6001600160a01b0316336001600160a01b0316145b6118345760405162461bcd60e51b815260040161082d90613493565b60098190556040518181527fd94596337df4c2f0f44d30a7fc5db1c7bb60d9aca4185ed77c6fd96eb45ec29890602001610b81565b6003546001600160a01b031633148061189a5750611885612444565b6001600160a01b0316336001600160a01b0316145b6118b65760405162461bcd60e51b815260040161082d90613493565b600f55565b6118c3612444565b6001600160a01b0316336001600160a01b0316146118f35760405162461bcd60e51b815260040161082d90613493565b600b80546001600160a01b0390921661010002610100600160a81b0319909216919091179055565b600260009054906101000a90046001600160a01b03166001600160a01b03166388a8d6026040518163ffffffff1660e01b8152600401602060405180830381865afa15801561196e573d6000803e3d6000fd5b505050506040513d601f19601f820116820180604052508101906119929190613670565b6001600160a01b0316336001600160a01b031614806119c957506119b4612444565b6001600160a01b0316336001600160a01b0316145b6119e55760405162461bcd60e51b815260040161082d90613493565b60405181151581527ff769f6bf659bbbdabf212d830720ce893eedc57f25ebb8e44edf5b300618a35b9060200160405180910390a16001805460ff1916911515919091179055565b60108181548110611a3d57600080fd5b6000918252602090912001546001600160a01b0316905081565b6006546040516370a0823160e01b81523060048201526000916001600160a01b0316906370a0823190602401610bc5565b6003546001600160a01b0316331480611ab95750611aa4612444565b6001600160a01b0316336001600160a01b0316145b611ad55760405162461bcd60e51b815260040161082d90613493565b6001600160a01b038116611ae857600080fd5b600380546001600160a01b0319166001600160a01b0383169081179091556040519081527f352ececae6d7d1e6d26bcf2c549dfd55be1637e9b22dc0cf3b71ddb36097a6b490602001610b81565b6002546001600160a01b03163314611b4d57600080fd5b6002546040805163fbfa77cf60e01b815290516001600160a01b039283169284169163fbfa77cf9160048083019260209291908290030181865afa158015611b99573d6000803e3d6000fd5b505050506040513d601f19601f82011682018060405250810190611bbd9190613670565b6001600160a01b031614611bd057600080fd5b611bd981612d13565b6006546040516370a0823160e01b81523060048201526116499183916001600160a01b03909116906370a0823190602401602060405180830381865afa158015611c27573d6000803e3d6000fd5b505050506040513d601f19601f82011682018060405250810190611c4b91906134ff565b6006546001600160a01b0316919061251d565b6003546001600160a01b03163314611ca65760405162461bcd60e51b815260206004820152600b60248201526a085cdd1c985d1959da5cdd60aa1b604482015260640161082d565b6001600160a01b038116611cb957600080fd5b6002546004805460405163095ea7b360e01b81526001600160a01b0391821692810192909252600060248301529091169063095ea7b3906044016020604051808303816000875af1158015611d12573d6000803e3d6000fd5b505050506040513d601f19601f82011682018060405250810190611d36919061371f565b50600480546001600160a01b0319166001600160a01b03838116918217835560025460405163095ea7b360e01b8152938401929092526000196024840152169063095ea7b3906044016020604051808303816000875af1158015611d9e573d6000803e3d6000fd5b505050506040513d601f19601f82011682018060405250810190611dc2919061371f565b506040516001600160a01b03821681527fafbb66abf8f3b719799940473a4052a3717cdd8e40fb6c8a3faadab316b1a06990602001610b81565b600080826002546040516339ebf82360e01b81523060048201529192506000916001600160a01b03909116906339ebf8239060240161012060405180830381865afa158015611e4f573d6000803e3d6000fd5b505050506040513d601f19601f82011682018060405250810190611e73919061368d565b9050806020015160001415611e8c575060009392505050565b60075460a0820151611e9e9042613708565b1015611eae575060009392505050565b60085460a0820151611ec09042613708565b10611ecf575060019392505050565b6002546040805163bf3759b560e01b815290516000926001600160a01b03169163bf3759b59160048083019260209291908290030181865afa158015611f19573d6000803e3d6000fd5b505050506040513d601f19601f82011682018060405250810190611f3d91906134ff565b9050600a54811115611f5457506001949350505050565b6000611f5e61203a565b90508260c00151600a5482611f73919061376b565b1015611f855750600195945050505050565b60008360c00151821115611fa55760c0840151611fa29083613708565b90505b6002546040805163112c1f9b60e01b815290516000926001600160a01b03169163112c1f9b9160048083019260209291908290030181865afa158015611fef573d6000803e3d6000fd5b505050506040513d601f19601f8201168201806040525081019061201391906134ff565b905061201f828261376b565b8660095461202d9190613783565b1098975050505050505050565b6000610c06612047610b8c565b61204f611a57565b90612d95565b6003546001600160a01b03163314806120865750612071612444565b6001600160a01b0316336001600160a01b0316145b6120a25760405162461bcd60e51b815260040161082d90613493565b60088190556040518181527f5430e11864ad7aa9775b07d12657fe52df9aa2ba734355bd8ef8747be2c800c590602001610b81565b6003546001600160a01b031633148061210857506120f3612444565b6001600160a01b0316336001600160a01b0316145b8061219a5750600260009054906101000a90046001600160a01b03166001600160a01b031663452a93206040518163ffffffff1660e01b8152600401602060405180830381865afa158015612161573d6000803e3d6000fd5b505050506040513d601f19601f820116820180604052508101906121859190613670565b6001600160a01b0316336001600160a01b0316145b8061222c5750600260009054906101000a90046001600160a01b03166001600160a01b03166388a8d6026040518163ffffffff1660e01b8152600401602060405180830381865afa1580156121f3573d6000803e3d6000fd5b505050506040513d601f19601f820116820180604052508101906122179190613670565b6001600160a01b0316336001600160a01b0316145b6122485760405162461bcd60e51b815260040161082d90613493565b600b805460ff191660011790556002546040805163507257cd60e11b815290516001600160a01b039092169163a0e4af9a9160048082019260009290919082900301818387803b15801561229b57600080fd5b505af11580156122af573d6000803e3d6000fd5b50506040517f97e963041e952738788b9d4871d854d282065b8f90a464928d6528f2e9a4fd0b925060009150a1565b8015806123585750604051636eb1769f60e11b81523060048201526001600160a01b03838116602483015284169063dd62ed3e90604401602060405180830381865afa158015612332573d6000803e3d6000fd5b505050506040513d601f19601f8201168201806040525081019061235691906134ff565b155b6123c35760405162461bcd60e51b815260206004820152603660248201527f5361666545524332303a20617070726f76652066726f6d206e6f6e2d7a65726f60448201527520746f206e6f6e2d7a65726f20616c6c6f77616e636560501b606482015260840161082d565b6040516001600160a01b03831660248201526044810182905261242690849063095ea7b360e01b906064015b60408051601f198184030181529190526020810180516001600160e01b03166001600160e01b031990931692909217909152612da1565b505050565b606061243a8484600085612e73565b90505b9392505050565b60025460408051635aa6e67560e01b815290516000926001600160a01b031691635aa6e6759160048083019260209291908290030181865afa15801561248e573d6000803e3d6000fd5b505050506040513d601f19601f82011682018060405250810190610c069190613670565b604080516001808252818301909252606091600091906020808301908036833701905050905073d533a949740bb3306d119cc777fa900ba034cd5281600081518110612500576125006134b8565b6001600160a01b0390921660209283029190910190910152919050565b6040516001600160a01b03831660248201526044810182905261242690849063a9059cbb60e01b906064016123ef565b6006546040516370a0823160e01b8152306004820152600091829182916001600160a01b0316906370a0823190602401602060405180830381865afa15801561259a573d6000803e3d6000fd5b505050506040513d601f19601f820116820180604052508101906125be91906134ff565b9050838110156125f9576125da6125d58583612f9b565b612fa7565b92506125e68382612d95565b92506125f28484612f9b565b91506125fd565b8392505b50915091565b6006546040516370a0823160e01b81523060048201526000916001600160a01b0316906370a0823190602401602060405180830381865afa15801561264c573d6000803e3d6000fd5b505050506040513d601f19601f8201168201806040525081019061267091906134ff565b905080156109db57600b5460065461269b916001600160a01b0391821691610100909104168361251d565b600b54600e54600654604051631f2c13e160e31b81526001600160a01b0392831660048201529082166024820152610100909204169063f9609f0890604401600060405180830381600087803b1580156126f457600080fd5b505af1158015612708573d6000803e3d6000fd5b505050505050565b60405162461bcd60e51b815260206004820152600d60248201526c1d5b9a5b5c1b195b595b9d1959609a1b604482015260009060640161082d565b6006546040516370a0823160e01b81523060048201526000918291829182916001600160a01b03909116906370a0823190602401602060405180830381865afa15801561279c573d6000803e3d6000fd5b505050506040513d601f19601f820116820180604052508101906127c091906134ff565b600b54600e5460405163072e008f60e11b81526001600160a01b0391821660048201529293506101009091041690630e5c011e90602401600060405180830381600087803b15801561281157600080fd5b505af1158015612825573d6000803e3d6000fd5b50506040516370a0823160e01b81523060048201526000925073d533a949740bb3306d119cc777fa900ba034cd5291506370a0823190602401602060405180830381865afa15801561287b573d6000803e3d6000fd5b505050506040513d601f19601f8201168201806040525081019061289f91906134ff565b90508015612979576128b081613047565b600c549091506128e09073d533a949740bb3306d119cc777fa900ba034cd52906001600160a01b031660006122de565b600c5461290c9073d533a949740bb3306d119cc777fa900ba034cd52906001600160a01b0316836122de565b600c546040516338ed173960e01b81526001600160a01b03909116906338ed173990612946908490600090601090309042906004016137a2565b600060405180830381600087803b15801561296057600080fd5b505af1158015612974573d6000803e3d6000fd5b505050505b6040516370a0823160e01b8152306004820152600090736b175474e89094c44da98b954eedeac495271d0f906370a0823190602401602060405180830381865afa1580156129cb573d6000803e3d6000fd5b505050506040513d601f19601f820116820180604052508101906129ef91906134ff565b6040516370a0823160e01b815230600482015290915060009073a0b86991c6218b36c1d19d4a2e9eb0ce3606eb48906370a0823190602401602060405180830381865afa158015612a44573d6000803e3d6000fd5b505050506040513d601f19601f82011682018060405250810190612a6891906134ff565b6040516370a0823160e01b815230600482015290915060009073dac17f958d2ee523a2206206994597c13d831ec7906370a0823190602401602060405180830381865afa158015612abd573d6000803e3d6000fd5b505050506040513d601f19601f82011682018060405250810190612ae191906134ff565b90506000831180612af25750600082115b80612afd5750600081115b15612b0d57612b0d8383836130aa565b6006546040516370a0823160e01b8152306004820152612b859187916001600160a01b03909116906370a0823190602401602060405180830381865afa158015612b5b573d6000803e3d6000fd5b505050506040513d601f19601f82011682018060405250810190612b7f91906134ff565b90612f9b565b97506000612b9161203a565b6002546040516339ebf82360e01b81523060048201529192506000916001600160a01b03909116906339ebf8239060240161012060405180830381865afa158015612be0573d6000803e3d6000fd5b505050506040513d601f19601f82011682018060405250810190612c04919061368d565b60c00151905080821015612c2357612c1c8282613708565b9850600099505b8a15612c4b57612c328b612fa7565b50612c488b612c438c612b7f611a57565b613248565b97505b505050505050509193909250565b80612cb857736b175474e89094c44da98b954eedeac495271d0f6010600281548110612c8757612c876134b8565b9060005260206000200160006101000a8154816001600160a01b0302191690836001600160a01b0316021790555050565b8060011415612cea5773a0b86991c6218b36c1d19d4a2e9eb0ce3606eb486010600281548110612c8757612c876134b8565b73dac17f958d2ee523a2206206994597c13d831ec76010600281548110612c8757612c876134b8565b600b54600e546006546040516301395c5960e31b81526001600160a01b039283166004820152908216602482015261010090920416906309cae2c8906044016020604051808303816000875af1158015612d71573d6000803e3d6000fd5b505050506040513d601f19601f820116820180604052508101906109db91906134ff565b600061243d828461376b565b6000612df6826040518060400160405280602081526020017f5361666545524332303a206c6f772d6c6576656c2063616c6c206661696c6564815250856001600160a01b031661242b9092919063ffffffff16565b8051909150156124265780806020019051810190612e14919061371f565b6124265760405162461bcd60e51b815260206004820152602a60248201527f5361666545524332303a204552433230206f7065726174696f6e20646964206e6044820152691bdd081cdd58d8d9595960b21b606482015260840161082d565b606082471015612ed45760405162461bcd60e51b815260206004820152602660248201527f416464726573733a20696e73756666696369656e742062616c616e636520666f6044820152651c8818d85b1b60d21b606482015260840161082d565b843b612f225760405162461bcd60e51b815260206004820152601d60248201527f416464726573733a2063616c6c20746f206e6f6e2d636f6e7472616374000000604482015260640161082d565b600080866001600160a01b03168587604051612f3e9190613818565b60006040518083038185875af1925050503d8060008114612f7b576040519150601f19603f3d011682016040523d82523d6000602084013e612f80565b606091505b5091509150612f9082828661325e565b979650505050505050565b600061243d8284613708565b6000612fb582612c43610b8c565b600b54600e54600654604051636ce5768960e11b81526001600160a01b039283166004820152908216602482015260448101849052929450610100909104169063d9caed12906064016020604051808303816000875af115801561301d573d6000803e3d6000fd5b505050506040513d601f19601f8201168201806040525081019061304191906134ff565b92915050565b60008061306b612710613065600f548661329790919063ffffffff16565b906132a3565b90506130a073d533a949740bb3306d119cc777fa900ba034cd5273f147b8125d2ef93fb6965db97d6746952a1339348361251d565b61243d8382612f9b565b821561310957600d546130dd90736b175474e89094c44da98b954eedeac495271d0f906001600160a01b031660006122de565b600d5461310990736b175474e89094c44da98b954eedeac495271d0f906001600160a01b0316856122de565b811561316857600d5461313c9073a0b86991c6218b36c1d19d4a2e9eb0ce3606eb48906001600160a01b031660006122de565b600d546131689073a0b86991c6218b36c1d19d4a2e9eb0ce3606eb48906001600160a01b0316846122de565b80156131c757600d5461319b9073dac17f958d2ee523a2206206994597c13d831ec7906001600160a01b031660006122de565b600d546131c79073dac17f958d2ee523a2206206994597c13d831ec7906001600160a01b0316836122de565b600d5460408051606081018252858152602081018590528082018490529051634515cef360e01b81526001600160a01b0390921691634515cef39161321191600090600401613834565b600060405180830381600087803b15801561322b57600080fd5b505af115801561323f573d6000803e3d6000fd5b50505050505050565b6000818310613257578161243d565b5090919050565b6060831561326d57508161243d565b82511561327d5782518084602001fd5b8160405162461bcd60e51b815260040161082d91906133aa565b600061243d8284613783565b600061243d828461386c565b8280546132bb90613518565b90600052602060002090601f0160209004810192826132dd5760008555613323565b82601f106132f65782800160ff19823516178555613323565b82800160010185558215613323579182015b82811115613323578235825591602001919060010190613308565b5061332f929150613333565b5090565b5b8082111561332f5760008155600101613334565b6001600160a01b038116811461164957600080fd5b60006020828403121561336f57600080fd5b813561243d81613348565b60005b8381101561339557818101518382015260200161337d565b838111156133a4576000848401525b50505050565b60208152600082518060208401526133c981604085016020870161337a565b601f01601f19169190910160400192915050565b6000602082840312156133ef57600080fd5b5035919050565b801515811461164957600080fd5b60006020828403121561341657600080fd5b813561243d816133f6565b6000806020838503121561343457600080fd5b823567ffffffffffffffff8082111561344c57600080fd5b818501915085601f83011261346057600080fd5b81358181111561346f57600080fd5b86602082850101111561348157600080fd5b60209290920196919550909350505050565b6020808252600b908201526a08585d5d1a1bdc9a5e995960aa1b604082015260600190565b634e487b7160e01b600052603260045260246000fd5b634e487b7160e01b600052601160045260246000fd5b60006000198214156134f8576134f86134ce565b5060010190565b60006020828403121561351157600080fd5b5051919050565b600181811c9082168061352c57607f821691505b60208210811415610e3457634e487b7160e01b600052602260045260246000fd5b634e487b7160e01b600052604160045260246000fd5b604051610120810167ffffffffffffffff811182821017156135875761358761354d565b60405290565b60006020828403121561359f57600080fd5b815167ffffffffffffffff808211156135b757600080fd5b818401915084601f8301126135cb57600080fd5b8151818111156135dd576135dd61354d565b604051601f8201601f19908116603f011681019083821181831017156136055761360561354d565b8160405282815287602084870101111561361e57600080fd5b612f9083602083016020880161337a565b64437572766560d81b81526000825161364f81600585016020870161337a565b69566f74657250726f787960b01b6005939091019283015250600f01919050565b60006020828403121561368257600080fd5b815161243d81613348565b600061012082840312156136a057600080fd5b6136a8613563565b825181526020830151602082015260408301516040820152606083015160608201526080830151608082015260a083015160a082015260c083015160c082015260e083015160e08201526101008084015181830152508091505092915050565b60008282101561371a5761371a6134ce565b500390565b60006020828403121561373157600080fd5b815161243d816133f6565b60208152816020820152818360408301376000818301604090810191909152601f909201601f19160101919050565b6000821982111561377e5761377e6134ce565b500190565b600081600019048311821515161561379d5761379d6134ce565b500290565b600060a082018783526020878185015260a0604085015281875480845260c0860191508860005282600020935060005b818110156137f75784546001600160a01b0316835260019485019492840192016137d2565b50506001600160a01b03969096166060850152505050608001529392505050565b6000825161382a81846020870161337a565b9190910192915050565b60808101818460005b600381101561385c57815183526020928301929091019060010161383d565b5050508260608301529392505050565b60008261388957634e487b7160e01b600052601260045260246000fd5b50049056fea264697066735822122009a9565056499546d6da51497c4b6338b63a60a76dba4d97399afff103e8ff5764736f6c634300080c0033",
  "bytecodeSha1": "e30cf03d4d0f7168018a613bd4787f296121d855",
  "compiler": {
    "evm_version": "istanbul",
    "optimizer": {
      "enabled": true,
      "runs": 200
    },
    "version": "0.8.12+commit.f00d7308"
  },
  "contractName": "Strategy",
  "language": "Solidity",
  "natspec": {
    "kind": "dev",
    "methods": {
      "apiVersion()": {
        "details": "The Strategy's version must match the Vault's `API_VERSION`.",
        "notice": "Used to track which version of `StrategyAPI` this Strategy  implements.",
        "returns": {
          "_0": "A string which holds the current API version of this contract."
        }
      },
      "delegatedAssets()": {
        "details": "You can override this field to set it to a non-zero value if some of the assets of this  Strategy is somehow delegated inside another part of of Yearn's ecosystem e.g. another Vault.  Note that this value must be strictly less than or equal to the amount provided by  `estimatedTotalAssets()` below, as the TVL calc will be total assets minus delegated assets.  Also note that this value is used to determine the total assets under management by this  strategy, for the purposes of computing the management fee in `Vault`",
        "notice": "The amount (priced in want) of the total assets managed by this strategy should not count  towards Yearn's TVL calculations.",
        "returns": {
          "_0": "The amount of assets this strategy manages that should not be included in Yearn's Total Value  Locked (TVL) calculation across it's ecosystem."
        }
      },
      "estimatedTotalAssets()": {
        "details": "Care must be taken in using this function, since it relies on external  systems, which could be manipulated by the attacker to give an inflated  (or reduced) value produced by this function, based on current on-chain  conditions (e.g. this function is possible to influence through  flashloan attacks, oracle manipulations, or other DeFi attack  mechanisms).  It is up to governance to use this function to correctly order this  Strategy relative to its peers in the withdrawal queue to minimize  losses for the Vault based on sudden withdrawals. This value should be  higher than the total debt of the Strategy and higher than its expected  value to be \"safe\".",
        "notice": "Provide an accurate estimate for the total amount of assets  (principle + return) that this Strategy is currently managing,  denominated in terms of `want` tokens.  This total should be \"realizable\" e.g. the total value that could  *actually* be obtained from this Strategy if it were to divest its  entire position based on current on-chain conditions.",
        "returns": {
          "_0": "The estimated total assets in this Strategy."
        }
      },
      "ethToWant(uint256)": {
        "details": "Care must be taken when working with decimals to assure that the conversion  is compatible. As an example:      given 1e17 wei (0.1 ETH) as input, and want is USDC (6 decimals),      with USDC/ETH = 1800, this should give back 1800000000 (180 USDC)",
        "notice": "Provide an accurate conversion from `_amtInWei` (denominated in wei)  to `want` (using the native decimal characteristics of `want`).",
        "params": {
          "_amtInWei": "The amount (in wei/1e-18 ETH) to convert to `want`"
        },
        "returns": {
          "_0": "The amount in `want` of `_amtInEth` converted to `want`*"
        }
      },
      "harvest()": {
        "details": "When `harvest()` is called, the Strategy reports to the Vault (via  `vault.report()`), so in some cases `harvest()` must be called in order  to take in profits, to borrow newly available funds from the Vault, or  otherwise adjust its position. In other cases `harvest()` must be  called to report to the Vault on the Strategy's position, especially if  any losses have occurred.",
        "notice": "Harvests the Strategy, recognizing any profits or losses and adjusting  the Strategy's position.  In the rare case the Strategy is in emergency shutdown, this will exit  the Strategy's position.  This may only be called by governance, the strategist, or the keeper."
      },
      "harvestTrigger(uint256)": {
        "details": "`callCostInWei` must be priced in terms of `wei` (1e-18 ETH).  This call and `tendTrigger` should never return `true` at the  same time.  See `min/maxReportDelay`, `profitFactor`, `debtThreshold` to adjust the  strategist-controlled parameters that will influence whether this call  returns `true` or not. These parameters will be used in conjunction  with the parameters reported to the Vault (see `params`) to determine  if calling `harvest()` is merited.  It is expected that an external system will check `harvestTrigger()`.  This could be a script run off a desktop or cloud bot (e.g.  https://github.com/iearn-finance/yearn-vaults/blob/main/scripts/keep.py),  or via an integration with the Keep3r network (e.g.  https://github.com/Macarse/GenericKeep3rV2/blob/master/contracts/keep3r/GenericKeep3rV2.sol).",
        "notice": "Provide a signal to the keeper that `harvest()` should be called. The  keeper will provide the estimated gas cost that they would pay to call  `harvest()`, and this function should use that estimate to make a  determination if calling it is \"worth it\" for the keeper. This is not  the only consideration into issuing this trigger, for example if the  position would be negatively affected if `harvest()` is not called  shortly, then this can return `true` even if the keeper might be \"at a  loss\" (keepers are always reimbursed by Yearn).",
        "params": {
          "callCostInWei": "The keeper's estimated gas cost to call `harvest()` (in wei)."
        },
        "returns": {
          "_0": "`true` if `harvest()` should be called, `false` otherwise."
        }
      },
      "migrate(address)": {
        "details": "The new Strategy's Vault must be the same as this Strategy's Vault.  The migration process should be carefully performed to make sure all the assets are migrated to the new address, which should have never interacted with the vault before.",
        "notice": "Transfers all `want` from this Strategy to `_newStrategy`.  This may only be called by the Vault.",
        "params": {
          "_newStrategy": "The Strategy to migrate to."
        }
      },
      "name()": {
        "details": "You can use this field to manage the \"version\" of this Strategy, e.g.  `StrategySomethingOrOtherV1`. However, \"API Version\" is managed by  `apiVersion()` function above.",
        "notice": "This Strategy's name.",
        "returns": {
          "_0": "This Strategy's name."
        }
      },
      "setDebtThreshold(uint256)": {
        "notice": "Sets how far the Strategy can go into loss without a harvest and report  being required.  By default this is 0, meaning any losses would cause a harvest which  will subsequently report the loss to the Vault for tracking. (See  `harvestTrigger()` for more details.)  This may only be called by governance or the strategist.",
        "params": {
          "_debtThreshold": "How big of a loss this Strategy may carry without being required to report to the Vault."
        }
      },
      "setEmergencyExit()": {
        "details": "See `vault.setEmergencyShutdown()` and `harvest()` for further details.",
        "notice": "Activates emergency exit. Once activated, the Strategy will exit its  position upon the next harvest, depositing all funds into the Vault as  quickly as is reasonable given on-chain conditions.  This may only be called by governance or the strategist."
      },
      "setKeeper(address)": {
        "notice": "Used to change `keeper`.  `keeper` is the only address that may call `tend()` or `harvest()`,  other than `governance()` or `strategist`. However, unlike  `governance()` or `strategist`, `keeper` may *only* call `tend()`  and `harvest()`, and no other authorized functions, following the  principle of least privilege.  This may only be called by governance or the strategist.",
        "params": {
          "_keeper": "The new address to assign as `keeper`."
        }
      },
      "setMaxReportDelay(uint256)": {
        "notice": "Used to change `maxReportDelay`. `maxReportDelay` is the maximum number  of blocks that should pass for `harvest()` to be called.  For external keepers (such as the Keep3r network), this is the maximum  time between jobs to wait. (see `harvestTrigger()`  for more details.)  This may only be called by governance or the strategist.",
        "params": {
          "_delay": "The maximum number of seconds to wait between harvests."
        }
      },
      "setMetadataURI(string)": {
        "notice": "Used to change `metadataURI`. `metadataURI` is used to store the URI of the file describing the strategy.  This may only be called by governance or the strategist.",
        "params": {
          "_metadataURI": "The URI that describe the strategy."
        }
      },
      "setMinReportDelay(uint256)": {
        "notice": "Used to change `minReportDelay`. `minReportDelay` is the minimum number  of blocks that should pass for `harvest()` to be called.  For external keepers (such as the Keep3r network), this is the minimum  time between jobs to wait. (see `harvestTrigger()`  for more details.)  This may only be called by governance or the strategist.",
        "params": {
          "_delay": "The minimum number of seconds to wait between harvests."
        }
      },
      "setProfitFactor(uint256)": {
        "notice": "Used to change `profitFactor`. `profitFactor` is used to determine  if it's worthwhile to harvest, given gas costs. (See `harvestTrigger()`  for more details.)  This may only be called by governance or the strategist.",
        "params": {
          "_profitFactor": "A ratio to multiply anticipated `harvest()` gas cost against."
        }
      },
      "setRewards(address)": {
        "notice": "Used to change `rewards`. EOA or smart contract which has the permission  to pull rewards from the vault.  This may only be called by the strategist.",
        "params": {
          "_rewards": "The address to use for pulling rewards."
        }
      },
      "setStrategist(address)": {
        "notice": "Used to change `strategist`.  This may only be called by governance or the existing strategist.",
        "params": {
          "_strategist": "The new address to assign as `strategist`."
        }
      },
      "sweep(address)": {
        "details": "Implement `protectedTokens()` to specify any additional tokens that  should be protected from sweeping in addition to `want`.",
        "notice": "Removes tokens from this Strategy that are not the type of tokens  managed by this Strategy. This may be used in case of accidentally  sending the wrong kind of token to this Strategy.  Tokens will be sent to `governance()`.  This will fail if an attempt is made to sweep `want`, or any tokens  that are protected by this Strategy.  This may only be called by governance.",
        "params": {
          "_token": "The token to transfer out of this vault."
        }
      },
      "tend()": {
        "notice": "Adjust the Strategy's position. The purpose of tending isn't to  realize gains, but to maximize yield by reinvesting any returns.  See comments on `adjustPosition()`.  This may only be called by governance, the strategist, or the keeper."
      },
      "tendTrigger(uint256)": {
        "details": "`callCostInWei` must be priced in terms of `wei` (1e-18 ETH).  This call and `harvestTrigger()` should never return `true` at the same  time.",
        "notice": "Provide a signal to the keeper that `tend()` should be called. The  keeper will provide the estimated gas cost that they would pay to call  `tend()`, and this function should use that estimate to make a  determination if calling it is \"worth it\" for the keeper. This is not  the only consideration into issuing this trigger, for example if the  position would be negatively affected if `tend()` is not called  shortly, then this can return `true` even if the keeper might be  \"at a loss\" (keepers are always reimbursed by Yearn).",
        "params": {
          "callCostInWei": "The keeper's estimated gas cost to call `tend()` (in wei)."
        },
        "returns": {
          "_0": "`true` if `tend()` should be called, `false` otherwise."
        }
      },
      "withdraw(uint256)": {
        "notice": "Withdraws `_amountNeeded` to `vault`.  This may only be called by the Vault.",
        "params": {
          "_amountNeeded": "How much `want` to withdraw."
        },
        "returns": {
          "_loss": "Any realized losses"
        }
      }
    },
    "version": 1
  },
  "opcodes": "PUSH1 0x80 PUSH1 0x40 MSTORE CALLVALUE DUP1 ISZERO PUSH2 0x10 JUMPI PUSH1 0x0 DUP1 REVERT JUMPDEST POP PUSH1 0x4 CALLDATASIZE LT PUSH2 0x399 JUMPI PUSH1 0x0 CALLDATALOAD PUSH1 0xE0 SHR DUP1 PUSH4 0x748747E6 GT PUSH2 0x1E9 JUMPI DUP1 PUSH4 0xAC00FF26 GT PUSH2 0x10F JUMPI DUP1 PUSH4 0xEC38A862 GT PUSH2 0xAD JUMPI DUP1 PUSH4 0xF017C92F GT PUSH2 0x7C JUMPI DUP1 PUSH4 0xF017C92F EQ PUSH2 0x7AC JUMPI DUP1 PUSH4 0xF4B9FA75 EQ PUSH2 0x7BF JUMPI DUP1 PUSH4 0xFBFA77CF EQ PUSH2 0x7DA JUMPI DUP1 PUSH4 0xFCF2D0AD EQ PUSH2 0x7ED JUMPI PUSH1 0x0 DUP1 REVERT JUMPDEST DUP1 PUSH4 0xEC38A862 EQ PUSH2 0x766 JUMPI DUP1 PUSH4 0xEC556889 EQ PUSH2 0x779 JUMPI DUP1 PUSH4 0xED882C2B EQ PUSH2 0x791 JUMPI DUP1 PUSH4 0xEFBB5CB0 EQ PUSH2 0x7A4 JUMPI PUSH1 0x0 DUP1 REVERT JUMPDEST DUP1 PUSH4 0xB252720B GT PUSH2 0xE9 JUMPI DUP1 PUSH4 0xB252720B EQ PUSH2 0x720 JUMPI DUP1 PUSH4 0xC1A3D44C EQ PUSH2 0x738 JUMPI DUP1 PUSH4 0xC7B9D530 EQ PUSH2 0x740 JUMPI DUP1 PUSH4 0xCE5494BB EQ PUSH2 0x753 JUMPI PUSH1 0x0 DUP1 REVERT JUMPDEST DUP1 PUSH4 0xAC00FF26 EQ PUSH2 0x6E7 JUMPI DUP1 PUSH4 0xACED1661 EQ PUSH2 0x6FA JUMPI DUP1 PUSH4 0xAF6D1FE4 EQ PUSH2 0x70D JUMPI PUSH1 0x0 DUP1 REVERT JUMPDEST DUP1 PUSH4 0x91397AB4 GT PUSH2 0x187 JUMPI DUP1 PUSH4 0x97107D6D GT PUSH2 0x156 JUMPI DUP1 PUSH4 0x97107D6D EQ PUSH2 0x693 JUMPI DUP1 PUSH4 0x9BE28785 EQ PUSH2 0x6A6 JUMPI DUP1 PUSH4 0x9EC5A894 EQ PUSH2 0x6C1 JUMPI DUP1 PUSH4 0xA6F19C84 EQ PUSH2 0x6D4 JUMPI PUSH1 0x0 DUP1 REVERT JUMPDEST DUP1 PUSH4 0x91397AB4 EQ PUSH2 0x65B JUMPI DUP1 PUSH4 0x918F8674 EQ PUSH2 0x66E JUMPI DUP1 PUSH4 0x955383BD EQ PUSH2 0x677 JUMPI DUP1 PUSH4 0x95E80C50 EQ PUSH2 0x68A JUMPI PUSH1 0x0 DUP1 REVERT JUMPDEST DUP1 PUSH4 0x7FEF901A GT PUSH2 0x1C3 JUMPI DUP1 PUSH4 0x7FEF901A EQ PUSH2 0x62F JUMPI DUP1 PUSH4 0x8CDFE166 EQ PUSH2 0x638 JUMPI DUP1 PUSH4 0x8E6350E2 EQ PUSH2 0x641 JUMPI DUP1 PUSH4 0x90B9C4F6 EQ PUSH2 0x648 JUMPI PUSH1 0x0 DUP1 REVERT JUMPDEST DUP1 PUSH4 0x748747E6 EQ PUSH2 0x5F8 JUMPI DUP1 PUSH4 0x750521F5 EQ PUSH2 0x60B JUMPI DUP1 PUSH4 0x780022A0 EQ PUSH2 0x61E JUMPI PUSH1 0x0 DUP1 REVERT JUMPDEST DUP1 PUSH4 0x2F48AB7D GT PUSH2 0x2CE JUMPI DUP1 PUSH4 0x46C96AAC GT PUSH2 0x26C JUMPI DUP1 PUSH4 0x692058C2 GT PUSH2 0x23B JUMPI DUP1 PUSH4 0x692058C2 EQ PUSH2 0x5A4 JUMPI DUP1 PUSH4 0x6A4874A1 EQ PUSH2 0x5B7 JUMPI DUP1 PUSH4 0x6BC55876 EQ PUSH2 0x5D2 JUMPI DUP1 PUSH4 0x7165485D EQ PUSH2 0x5E5 JUMPI PUSH1 0x0 DUP1 REVERT JUMPDEST DUP1 PUSH4 0x46C96AAC EQ PUSH2 0x55B JUMPI DUP1 PUSH4 0x5641EC03 EQ PUSH2 0x576 JUMPI DUP1 PUSH4 0x650D1880 EQ PUSH2 0x583 JUMPI DUP1 PUSH4 0x6718835F EQ PUSH2 0x597 JUMPI PUSH1 0x0 DUP1 REVERT JUMPDEST DUP1 PUSH4 0x3E413BEE GT PUSH2 0x2A8 JUMPI DUP1 PUSH4 0x3E413BEE EQ PUSH2 0x515 JUMPI DUP1 PUSH4 0x3FC8CEF3 EQ PUSH2 0x530 JUMPI DUP1 PUSH4 0x440368A3 EQ PUSH2 0x54B JUMPI DUP1 PUSH4 0x4641257D EQ PUSH2 0x553 JUMPI PUSH1 0x0 DUP1 REVERT JUMPDEST DUP1 PUSH4 0x2F48AB7D EQ PUSH2 0x4CC JUMPI DUP1 PUSH4 0x39A172A8 EQ PUSH2 0x4E7 JUMPI DUP1 PUSH4 0x3CDC5389 EQ PUSH2 0x4FA JUMPI PUSH1 0x0 DUP1 REVERT JUMPDEST DUP1 PUSH4 0x1F1FCD51 GT PUSH2 0x33B JUMPI DUP1 PUSH4 0x25829410 GT PUSH2 0x315 JUMPI DUP1 PUSH4 0x25829410 EQ PUSH2 0x474 JUMPI DUP1 PUSH4 0x2681F7E4 EQ PUSH2 0x495 JUMPI DUP1 PUSH4 0x28B7CCF7 EQ PUSH2 0x4B0 JUMPI DUP1 PUSH4 0x2E1A7D4D EQ PUSH2 0x4B9 JUMPI PUSH1 0x0 DUP1 REVERT JUMPDEST DUP1 PUSH4 0x1F1FCD51 EQ PUSH2 0x41E JUMPI DUP1 PUSH4 0x1FE4A686 EQ PUSH2 0x449 JUMPI DUP1 PUSH4 0x22F3E2D4 EQ PUSH2 0x45C JUMPI PUSH1 0x0 DUP1 REVERT JUMPDEST DUP1 PUSH4 0xF969B87 GT PUSH2 0x377 JUMPI DUP1 PUSH4 0xF969B87 EQ PUSH2 0x3D9 JUMPI DUP1 PUSH4 0x11588086 EQ PUSH2 0x3EC JUMPI DUP1 PUSH4 0x11BC8245 EQ PUSH2 0x402 JUMPI DUP1 PUSH4 0x1D12F28B EQ PUSH2 0x415 JUMPI PUSH1 0x0 DUP1 REVERT JUMPDEST DUP1 PUSH4 0x1681A62 EQ PUSH2 0x39E JUMPI DUP1 PUSH4 0x3EE438C EQ PUSH2 0x3B3 JUMPI DUP1 PUSH4 0x6FDDE03 EQ PUSH2 0x3D1 JUMPI JUMPDEST PUSH1 0x0 DUP1 REVERT JUMPDEST PUSH2 0x3B1 PUSH2 0x3AC CALLDATASIZE PUSH1 0x4 PUSH2 0x335D JUMP JUMPDEST PUSH2 0x7F5 JUMP JUMPDEST STOP JUMPDEST PUSH2 0x3BB PUSH2 0x9DF JUMP JUMPDEST PUSH1 0x40 MLOAD PUSH2 0x3C8 SWAP2 SWAP1 PUSH2 0x33AA JUMP JUMPDEST PUSH1 0x40 MLOAD DUP1 SWAP2 SUB SWAP1 RETURN JUMPDEST PUSH2 0x3BB PUSH2 0xA6D JUMP JUMPDEST PUSH2 0x3B1 PUSH2 0x3E7 CALLDATASIZE PUSH1 0x4 PUSH2 0x33DD JUMP JUMPDEST PUSH2 0xB03 JUMP JUMPDEST PUSH2 0x3F4 PUSH2 0xB8C JUMP JUMPDEST PUSH1 0x40 MLOAD SWAP1 DUP2 MSTORE PUSH1 0x20 ADD PUSH2 0x3C8 JUMP JUMPDEST PUSH2 0x3B1 PUSH2 0x410 CALLDATASIZE PUSH1 0x4 PUSH2 0x335D JUMP JUMPDEST PUSH2 0xC0B JUMP JUMPDEST PUSH2 0x3F4 PUSH1 0xA SLOAD DUP2 JUMP JUMPDEST PUSH1 0x6 SLOAD PUSH2 0x431 SWAP1 PUSH1 0x1 PUSH1 0x1 PUSH1 0xA0 SHL SUB AND DUP2 JUMP JUMPDEST PUSH1 0x40 MLOAD PUSH1 0x1 PUSH1 0x1 PUSH1 0xA0 SHL SUB SWAP1 SWAP2 AND DUP2 MSTORE PUSH1 0x20 ADD PUSH2 0x3C8 JUMP JUMPDEST PUSH1 0x3 SLOAD PUSH2 0x431 SWAP1 PUSH1 0x1 PUSH1 0x1 PUSH1 0xA0 SHL SUB AND DUP2 JUMP JUMPDEST PUSH2 0x464 PUSH2 0xD39 JUMP JUMPDEST PUSH1 0x40 MLOAD SWAP1 ISZERO ISZERO DUP2 MSTORE PUSH1 0x20 ADD PUSH2 0x3C8 JUMP JUMPDEST PUSH1 0x40 DUP1 MLOAD DUP1 DUP3 ADD SWAP1 SWAP2 MSTORE PUSH1 0x5 DUP2 MSTORE PUSH5 0x302E342E33 PUSH1 0xD8 SHL PUSH1 0x20 DUP3 ADD MSTORE PUSH2 0x3BB JUMP JUMPDEST PUSH2 0x431 PUSH20 0x7A250D5630B4CF539739DF2C5DACB4C659F2488D DUP2 JUMP JUMPDEST PUSH2 0x3F4 PUSH1 0x8 SLOAD DUP2 JUMP JUMPDEST PUSH2 0x3F4 PUSH2 0x4C7 CALLDATASIZE PUSH1 0x4 PUSH2 0x33DD JUMP JUMPDEST PUSH2 0xDC6 JUMP JUMPDEST PUSH2 0x431 PUSH20 0xDAC17F958D2EE523A2206206994597C13D831EC7 DUP2 JUMP JUMPDEST PUSH2 0x3B1 PUSH2 0x4F5 CALLDATASIZE PUSH1 0x4 PUSH2 0x33DD JUMP JUMPDEST PUSH2 0xE3A JUMP JUMPDEST PUSH2 0x431 PUSH20 0x2260FAC5E5542A773AA44FBCFEDF7C193BC2C599 DUP2 JUMP JUMPDEST PUSH2 0x431 PUSH20 0xA0B86991C6218B36C1D19D4A2E9EB0CE3606EB48 DUP2 JUMP JUMPDEST PUSH2 0x431 PUSH20 0xC02AAA39B223FE8D0A0E5C4F27EAD9083C756CC2 DUP2 JUMP JUMPDEST PUSH2 0x3B1 PUSH2 0xEBC JUMP JUMPDEST PUSH2 0x3B1 PUSH2 0x10B8 JUMP JUMPDEST PUSH2 0x431 PUSH20 0xF147B8125D2EF93FB6965DB97D6746952A133934 DUP2 JUMP JUMPDEST PUSH1 0xB SLOAD PUSH2 0x464 SWAP1 PUSH1 0xFF AND DUP2 JUMP JUMPDEST PUSH2 0x464 PUSH2 0x591 CALLDATASIZE PUSH1 0x4 PUSH2 0x33DD JUMP JUMPDEST POP PUSH1 0x0 SWAP1 JUMP JUMPDEST PUSH1 0x1 SLOAD PUSH2 0x464 SWAP1 PUSH1 0xFF AND DUP2 JUMP JUMPDEST PUSH1 0xC SLOAD PUSH2 0x431 SWAP1 PUSH1 0x1 PUSH1 0x1 PUSH1 0xA0 SHL SUB AND DUP2 JUMP JUMPDEST PUSH2 0x431 PUSH20 0xD533A949740BB3306D119CC777FA900BA034CD52 DUP2 JUMP JUMPDEST PUSH2 0x3B1 PUSH2 0x5E0 CALLDATASIZE PUSH1 0x4 PUSH2 0x3404 JUMP JUMPDEST PUSH2 0x15A6 JUMP JUMPDEST PUSH1 0xD SLOAD PUSH2 0x431 SWAP1 PUSH1 0x1 PUSH1 0x1 PUSH1 0xA0 SHL SUB AND DUP2 JUMP JUMPDEST PUSH2 0x3B1 PUSH2 0x606 CALLDATASIZE PUSH1 0x4 PUSH2 0x335D JUMP JUMPDEST PUSH2 0x164C JUMP JUMPDEST PUSH2 0x3B1 PUSH2 0x619 CALLDATASIZE PUSH1 0x4 PUSH2 0x3421 JUMP JUMPDEST PUSH2 0x16FA JUMP JUMPDEST PUSH2 0x3F4 PUSH2 0x62C CALLDATASIZE PUSH1 0x4 PUSH2 0x33DD JUMP JUMPDEST SWAP1 JUMP JUMPDEST PUSH2 0x3F4 PUSH1 0xF SLOAD DUP2 JUMP JUMPDEST PUSH2 0x3F4 PUSH1 0x9 SLOAD DUP2 JUMP JUMPDEST PUSH1 0x0 PUSH2 0x3F4 JUMP JUMPDEST PUSH2 0x3B1 PUSH2 0x656 CALLDATASIZE PUSH1 0x4 PUSH2 0x33DD JUMP JUMPDEST PUSH2 0x1791 JUMP JUMPDEST PUSH2 0x3B1 PUSH2 0x669 CALLDATASIZE PUSH1 0x4 PUSH2 0x33DD JUMP JUMPDEST PUSH2 0x17E7 JUMP JUMPDEST PUSH2 0x3F4 PUSH2 0x2710 DUP2 JUMP JUMPDEST PUSH2 0x3B1 PUSH2 0x685 CALLDATASIZE PUSH1 0x4 PUSH2 0x33DD JUMP JUMPDEST PUSH2 0x1869 JUMP JUMPDEST PUSH2 0x3F4 PUSH1 0x7 SLOAD DUP2 JUMP JUMPDEST PUSH2 0x3B1 PUSH2 0x6A1 CALLDATASIZE PUSH1 0x4 PUSH2 0x335D JUMP JUMPDEST PUSH2 0x18BB JUMP JUMPDEST PUSH2 0x431 PUSH20 0xD9E1CE17F2641F24AE83637AB66A2CCA9C378B9F DUP2 JUMP JUMPDEST PUSH1 0x4 SLOAD PUSH2 0x431 SWAP1 PUSH1 0x1 PUSH1 0x1 PUSH1 0xA0 SHL SUB AND DUP2 JUMP JUMPDEST PUSH1 0xE SLOAD PUSH2 0x431 SWAP1 PUSH1 0x1 PUSH1 0x1 PUSH1 0xA0 SHL SUB AND DUP2 JUMP JUMPDEST PUSH2 0x3B1 PUSH2 0x6F5 CALLDATASIZE PUSH1 0x4 PUSH2 0x3404 JUMP JUMPDEST PUSH2 0x191B JUMP JUMPDEST PUSH1 0x5 SLOAD PUSH2 0x431 SWAP1 PUSH1 0x1 PUSH1 0x1 PUSH1 0xA0 SHL SUB AND DUP2 JUMP JUMPDEST PUSH2 0x431 PUSH2 0x71B CALLDATASIZE PUSH1 0x4 PUSH2 0x33DD JUMP JUMPDEST PUSH2 0x1A2D JUMP JUMPDEST PUSH1 0x1 SLOAD PUSH2 0x431 SWAP1 PUSH2 0x100 SWAP1 DIV PUSH1 0x1 PUSH1 0x1 PUSH1 0xA0 SHL SUB AND DUP2 JUMP JUMPDEST PUSH2 0x3F4 PUSH2 0x1A57 JUMP JUMPDEST PUSH2 0x3B1 PUSH2 0x74E CALLDATASIZE PUSH1 0x4 PUSH2 0x335D JUMP JUMPDEST PUSH2 0x1A88 JUMP JUMPDEST PUSH2 0x3B1 PUSH2 0x761 CALLDATASIZE PUSH1 0x4 PUSH2 0x335D JUMP JUMPDEST PUSH2 0x1B36 JUMP JUMPDEST PUSH2 0x3B1 PUSH2 0x774 CALLDATASIZE PUSH1 0x4 PUSH2 0x335D JUMP JUMPDEST PUSH2 0x1C5E JUMP JUMPDEST PUSH1 0xB SLOAD PUSH2 0x431 SWAP1 PUSH2 0x100 SWAP1 DIV PUSH1 0x1 PUSH1 0x1 PUSH1 0xA0 SHL SUB AND DUP2 JUMP JUMPDEST PUSH2 0x464 PUSH2 0x79F CALLDATASIZE PUSH1 0x4 PUSH2 0x33DD JUMP JUMPDEST PUSH2 0x1DFC JUMP JUMPDEST PUSH2 0x3F4 PUSH2 0x203A JUMP JUMPDEST PUSH2 0x3B1 PUSH2 0x7BA CALLDATASIZE PUSH1 0x4 PUSH2 0x33DD JUMP JUMPDEST PUSH2 0x2055 JUMP JUMPDEST PUSH2 0x431 PUSH20 0x6B175474E89094C44DA98B954EEDEAC495271D0F DUP2 JUMP JUMPDEST PUSH1 0x2 SLOAD PUSH2 0x431 SWAP1 PUSH1 0x1 PUSH1 0x1 PUSH1 0xA0 SHL SUB AND DUP2 JUMP JUMPDEST PUSH2 0x3B1 PUSH2 0x20D7 JUMP JUMPDEST PUSH2 0x7FD PUSH2 0x2444 JUMP JUMPDEST PUSH1 0x1 PUSH1 0x1 PUSH1 0xA0 SHL SUB AND CALLER PUSH1 0x1 PUSH1 0x1 PUSH1 0xA0 SHL SUB AND EQ PUSH2 0x836 JUMPI PUSH1 0x40 MLOAD PUSH3 0x461BCD PUSH1 0xE5 SHL DUP2 MSTORE PUSH1 0x4 ADD PUSH2 0x82D SWAP1 PUSH2 0x3493 JUMP JUMPDEST PUSH1 0x40 MLOAD DUP1 SWAP2 SUB SWAP1 REVERT JUMPDEST PUSH1 0x6 SLOAD PUSH1 0x1 PUSH1 0x1 PUSH1 0xA0 SHL SUB DUP3 DUP2 AND SWAP2 AND EQ ISZERO PUSH2 0x87C JUMPI PUSH1 0x40 MLOAD PUSH3 0x461BCD PUSH1 0xE5 SHL DUP2 MSTORE PUSH1 0x20 PUSH1 0x4 DUP3 ADD MSTORE PUSH1 0x5 PUSH1 0x24 DUP3 ADD MSTORE PUSH5 0x85DD85B9D PUSH1 0xDA SHL PUSH1 0x44 DUP3 ADD MSTORE PUSH1 0x64 ADD PUSH2 0x82D JUMP JUMPDEST PUSH1 0x2 SLOAD PUSH1 0x1 PUSH1 0x1 PUSH1 0xA0 SHL SUB DUP3 DUP2 AND SWAP2 AND EQ ISZERO PUSH2 0x8C4 JUMPI PUSH1 0x40 MLOAD PUSH3 0x461BCD PUSH1 0xE5 SHL DUP2 MSTORE PUSH1 0x20 PUSH1 0x4 DUP3 ADD MSTORE PUSH1 0x7 PUSH1 0x24 DUP3 ADD MSTORE PUSH7 0x21736861726573 PUSH1 0xC8 SHL PUSH1 0x44 DUP3 ADD MSTORE PUSH1 0x64 ADD PUSH2 0x82D JUMP JUMPDEST PUSH1 0x0 PUSH2 0x8CE PUSH2 0x24B2 JUMP JUMPDEST SWAP1 POP PUSH1 0x0 JUMPDEST DUP2 MLOAD DUP2 LT ISZERO PUSH2 0x956 JUMPI DUP2 DUP2 DUP2 MLOAD DUP2 LT PUSH2 0x8EE JUMPI PUSH2 0x8EE PUSH2 0x34B8 JUMP JUMPDEST PUSH1 0x20 MUL PUSH1 0x20 ADD ADD MLOAD PUSH1 0x1 PUSH1 0x1 PUSH1 0xA0 SHL SUB AND DUP4 PUSH1 0x1 PUSH1 0x1 PUSH1 0xA0 SHL SUB AND EQ ISZERO PUSH2 0x944 JUMPI PUSH1 0x40 MLOAD PUSH3 0x461BCD PUSH1 0xE5 SHL DUP2 MSTORE PUSH1 0x20 PUSH1 0x4 DUP3 ADD MSTORE PUSH1 0xA PUSH1 0x24 DUP3 ADD MSTORE PUSH10 0x85C1C9BDD1958DD1959 PUSH1 0xB2 SHL PUSH1 0x44 DUP3 ADD MSTORE PUSH1 0x64 ADD PUSH2 0x82D JUMP JUMPDEST DUP1 PUSH2 0x94E DUP2 PUSH2 0x34E4 JUMP JUMPDEST SWAP2 POP POP PUSH2 0x8D3 JUMP JUMPDEST POP PUSH2 0x9DB PUSH2 0x962 PUSH2 0x2444 JUMP JUMPDEST PUSH1 0x40 MLOAD PUSH4 0x70A08231 PUSH1 0xE0 SHL DUP2 MSTORE ADDRESS PUSH1 0x4 DUP3 ADD MSTORE PUSH1 0x1 PUSH1 0x1 PUSH1 0xA0 SHL SUB DUP6 AND SWAP1 PUSH4 0x70A08231 SWAP1 PUSH1 0x24 ADD PUSH1 0x20 PUSH1 0x40 MLOAD DUP1 DUP4 SUB DUP2 DUP7 GAS STATICCALL ISZERO DUP1 ISZERO PUSH2 0x9A6 JUMPI RETURNDATASIZE PUSH1 0x0 DUP1 RETURNDATACOPY RETURNDATASIZE PUSH1 0x0 REVERT JUMPDEST POP POP POP POP PUSH1 0x40 MLOAD RETURNDATASIZE PUSH1 0x1F NOT PUSH1 0x1F DUP3 ADD AND DUP3 ADD DUP1 PUSH1 0x40 MSTORE POP DUP2 ADD SWAP1 PUSH2 0x9CA SWAP2 SWAP1 PUSH2 0x34FF JUMP JUMPDEST PUSH1 0x1 PUSH1 0x1 PUSH1 0xA0 SHL SUB DUP6 AND SWAP2 SWAP1 PUSH2 0x251D JUMP JUMPDEST POP POP JUMP JUMPDEST PUSH1 0x0 DUP1 SLOAD PUSH2 0x9EC SWAP1 PUSH2 0x3518 JUMP JUMPDEST DUP1 PUSH1 0x1F ADD PUSH1 0x20 DUP1 SWAP2 DIV MUL PUSH1 0x20 ADD PUSH1 0x40 MLOAD SWAP1 DUP2 ADD PUSH1 0x40 MSTORE DUP1 SWAP3 SWAP2 SWAP1 DUP2 DUP2 MSTORE PUSH1 0x20 ADD DUP3 DUP1 SLOAD PUSH2 0xA18 SWAP1 PUSH2 0x3518 JUMP JUMPDEST DUP1 ISZERO PUSH2 0xA65 JUMPI DUP1 PUSH1 0x1F LT PUSH2 0xA3A JUMPI PUSH2 0x100 DUP1 DUP4 SLOAD DIV MUL DUP4 MSTORE SWAP2 PUSH1 0x20 ADD SWAP2 PUSH2 0xA65 JUMP JUMPDEST DUP3 ADD SWAP2 SWAP1 PUSH1 0x0 MSTORE PUSH1 0x20 PUSH1 0x0 KECCAK256 SWAP1 JUMPDEST DUP2 SLOAD DUP2 MSTORE SWAP1 PUSH1 0x1 ADD SWAP1 PUSH1 0x20 ADD DUP1 DUP4 GT PUSH2 0xA48 JUMPI DUP3 SWAP1 SUB PUSH1 0x1F AND DUP3 ADD SWAP2 JUMPDEST POP POP POP POP POP DUP2 JUMP JUMPDEST PUSH1 0x6 SLOAD PUSH1 0x40 DUP1 MLOAD PUSH4 0x95D89B41 PUSH1 0xE0 SHL DUP2 MSTORE SWAP1 MLOAD PUSH1 0x60 SWAP3 PUSH1 0x1 PUSH1 0x1 PUSH1 0xA0 SHL SUB AND SWAP2 PUSH4 0x95D89B41 SWAP2 PUSH1 0x4 DUP1 DUP4 ADD SWAP3 PUSH1 0x0 SWAP3 SWAP2 SWAP1 DUP3 SWAP1 SUB ADD DUP2 DUP7 GAS STATICCALL ISZERO DUP1 ISZERO PUSH2 0xAB7 JUMPI RETURNDATASIZE PUSH1 0x0 DUP1 RETURNDATACOPY RETURNDATASIZE PUSH1 0x0 REVERT JUMPDEST POP POP POP POP PUSH1 0x40 MLOAD RETURNDATASIZE PUSH1 0x0 DUP3 RETURNDATACOPY PUSH1 0x1F RETURNDATASIZE SWAP1 DUP2 ADD PUSH1 0x1F NOT AND DUP3 ADD PUSH1 0x40 MSTORE PUSH2 0xADF SWAP2 SWAP1 DUP2 ADD SWAP1 PUSH2 0x358D JUMP JUMPDEST PUSH1 0x40 MLOAD PUSH1 0x20 ADD PUSH2 0xAEF SWAP2 SWAP1 PUSH2 0x362F JUMP JUMPDEST PUSH1 0x40 MLOAD PUSH1 0x20 DUP2 DUP4 SUB SUB DUP2 MSTORE SWAP1 PUSH1 0x40 MSTORE SWAP1 POP SWAP1 JUMP JUMPDEST PUSH1 0x3 SLOAD PUSH1 0x1 PUSH1 0x1 PUSH1 0xA0 SHL SUB AND CALLER EQ DUP1 PUSH2 0xB34 JUMPI POP PUSH2 0xB1F PUSH2 0x2444 JUMP JUMPDEST PUSH1 0x1 PUSH1 0x1 PUSH1 0xA0 SHL SUB AND CALLER PUSH1 0x1 PUSH1 0x1 PUSH1 0xA0 SHL SUB AND EQ JUMPDEST PUSH2 0xB50 JUMPI PUSH1 0x40 MLOAD PUSH3 0x461BCD PUSH1 0xE5 SHL DUP2 MSTORE PUSH1 0x4 ADD PUSH2 0x82D SWAP1 PUSH2 0x3493 JUMP JUMPDEST PUSH1 0xA DUP2 SWAP1 SSTORE PUSH1 0x40 MLOAD DUP2 DUP2 MSTORE PUSH32 0xA68BA126373D04C004C5748C300C9FCA12BD444B3D4332E261F3BD2BAC4A8600 SWAP1 PUSH1 0x20 ADD JUMPDEST PUSH1 0x40 MLOAD DUP1 SWAP2 SUB SWAP1 LOG1 POP JUMP JUMPDEST PUSH1 0xB SLOAD PUSH1 0xE SLOAD PUSH1 0x40 MLOAD PUSH4 0x70A08231 PUSH1 0xE0 SHL DUP2 MSTORE PUSH1 0x1 PUSH1 0x1 PUSH1 0xA0 SHL SUB SWAP2 DUP3 AND PUSH1 0x4 DUP3 ADD MSTORE PUSH1 0x0 SWAP3 PUSH2 0x100 SWAP1 DIV SWAP1 SWAP2 AND SWAP1 PUSH4 0x70A08231 SWAP1 PUSH1 0x24 ADD JUMPDEST PUSH1 0x20 PUSH1 0x40 MLOAD DUP1 DUP4 SUB DUP2 DUP7 GAS STATICCALL ISZERO DUP1 ISZERO PUSH2 0xBE2 JUMPI RETURNDATASIZE PUSH1 0x0 DUP1 RETURNDATACOPY RETURNDATASIZE PUSH1 0x0 REVERT JUMPDEST POP POP POP POP PUSH1 0x40 MLOAD RETURNDATASIZE PUSH1 0x1F NOT PUSH1 0x1F DUP3 ADD AND DUP3 ADD DUP1 PUSH1 0x40 MSTORE POP DUP2 ADD SWAP1 PUSH2 0xC06 SWAP2 SWAP1 PUSH2 0x34FF JUMP JUMPDEST SWAP1 POP SWAP1 JUMP JUMPDEST PUSH1 0x2 PUSH1 0x0 SWAP1 SLOAD SWAP1 PUSH2 0x100 EXP SWAP1 DIV PUSH1 0x1 PUSH1 0x1 PUSH1 0xA0 SHL SUB AND PUSH1 0x1 PUSH1 0x1 PUSH1 0xA0 SHL SUB AND PUSH4 0x88A8D602 PUSH1 0x40 MLOAD DUP2 PUSH4 0xFFFFFFFF AND PUSH1 0xE0 SHL DUP2 MSTORE PUSH1 0x4 ADD PUSH1 0x20 PUSH1 0x40 MLOAD DUP1 DUP4 SUB DUP2 DUP7 GAS STATICCALL ISZERO DUP1 ISZERO PUSH2 0xC5E JUMPI RETURNDATASIZE PUSH1 0x0 DUP1 RETURNDATACOPY RETURNDATASIZE PUSH1 0x0 REVERT JUMPDEST POP POP POP POP PUSH1 0x40 MLOAD RETURNDATASIZE PUSH1 0x1F NOT PUSH1 0x1F DUP3 ADD AND DUP3 ADD DUP1 PUSH1 0x40 MSTORE POP DUP2 ADD SWAP1 PUSH2 0xC82 SWAP2 SWAP1 PUSH2 0x3670 JUMP JUMPDEST PUSH1 0x1 PUSH1 0x1 PUSH1 0xA0 SHL SUB AND CALLER PUSH1 0x1 PUSH1 0x1 PUSH1 0xA0 SHL SUB AND EQ DUP1 PUSH2 0xCB9 JUMPI POP PUSH2 0xCA4 PUSH2 0x2444 JUMP JUMPDEST PUSH1 0x1 PUSH1 0x1 PUSH1 0xA0 SHL SUB AND CALLER PUSH1 0x1 PUSH1 0x1 PUSH1 0xA0 SHL SUB AND EQ JUMPDEST PUSH2 0xCD5 JUMPI PUSH1 0x40 MLOAD PUSH3 0x461BCD PUSH1 0xE5 SHL DUP2 MSTORE PUSH1 0x4 ADD PUSH2 0x82D SWAP1 PUSH2 0x3493 JUMP JUMPDEST PUSH1 0x40 MLOAD PUSH1 0x1 PUSH1 0x1 PUSH1 0xA0 SHL SUB DUP3 AND DUP2 MSTORE PUSH32 0xC8DB9C35F716B87AF1FBB83F03C78646061931269301FD7BA6DCF189B4CDC2FC SWAP1 PUSH1 0x20 ADD PUSH1 0x40 MLOAD DUP1 SWAP2 SUB SWAP1 LOG1 PUSH1 0x1 DUP1 SLOAD PUSH1 0x1 PUSH1 0x1 PUSH1 0xA0 SHL SUB SWAP1 SWAP3 AND PUSH2 0x100 MUL PUSH2 0x100 PUSH1 0x1 PUSH1 0xA8 SHL SUB NOT SWAP1 SWAP3 AND SWAP2 SWAP1 SWAP2 OR SWAP1 SSTORE JUMP JUMPDEST PUSH1 0x2 SLOAD PUSH1 0x40 MLOAD PUSH4 0x39EBF823 PUSH1 0xE0 SHL DUP2 MSTORE ADDRESS PUSH1 0x4 DUP3 ADD MSTORE PUSH1 0x0 SWAP2 DUP3 SWAP2 PUSH1 0x1 PUSH1 0x1 PUSH1 0xA0 SHL SUB SWAP1 SWAP2 AND SWAP1 PUSH4 0x39EBF823 SWAP1 PUSH1 0x24 ADD PUSH2 0x120 PUSH1 0x40 MLOAD DUP1 DUP4 SUB DUP2 DUP7 GAS STATICCALL ISZERO DUP1 ISZERO PUSH2 0xD87 JUMPI RETURNDATASIZE PUSH1 0x0 DUP1 RETURNDATACOPY RETURNDATASIZE PUSH1 0x0 REVERT JUMPDEST POP POP POP POP PUSH1 0x40 MLOAD RETURNDATASIZE PUSH1 0x1F NOT PUSH1 0x1F DUP3 ADD AND DUP3 ADD DUP1 PUSH1 0x40 MSTORE POP DUP2 ADD SWAP1 PUSH2 0xDAB SWAP2 SWAP1 PUSH2 0x368D JUMP JUMPDEST PUSH1 0x40 ADD MLOAD GT DUP1 PUSH2 0xC06 JUMPI POP PUSH1 0x0 PUSH2 0xDC0 PUSH2 0x203A JUMP JUMPDEST GT SWAP1 POP SWAP1 JUMP JUMPDEST PUSH1 0x2 SLOAD PUSH1 0x0 SWAP1 PUSH1 0x1 PUSH1 0x1 PUSH1 0xA0 SHL SUB AND CALLER EQ PUSH2 0xE0C JUMPI PUSH1 0x40 MLOAD PUSH3 0x461BCD PUSH1 0xE5 SHL DUP2 MSTORE PUSH1 0x20 PUSH1 0x4 DUP3 ADD MSTORE PUSH1 0x6 PUSH1 0x24 DUP3 ADD MSTORE PUSH6 0x85D985D5B1D PUSH1 0xD2 SHL PUSH1 0x44 DUP3 ADD MSTORE PUSH1 0x64 ADD PUSH2 0x82D JUMP JUMPDEST PUSH1 0x0 PUSH2 0xE17 DUP4 PUSH2 0x254D JUMP JUMPDEST PUSH1 0x6 SLOAD SWAP1 SWAP4 POP SWAP1 SWAP2 POP PUSH2 0xE34 SWAP1 PUSH1 0x1 PUSH1 0x1 PUSH1 0xA0 SHL SUB AND CALLER DUP4 PUSH2 0x251D JUMP JUMPDEST POP SWAP2 SWAP1 POP JUMP JUMPDEST PUSH1 0x3 SLOAD PUSH1 0x1 PUSH1 0x1 PUSH1 0xA0 SHL SUB AND CALLER EQ DUP1 PUSH2 0xE6B JUMPI POP PUSH2 0xE56 PUSH2 0x2444 JUMP JUMPDEST PUSH1 0x1 PUSH1 0x1 PUSH1 0xA0 SHL SUB AND CALLER PUSH1 0x1 PUSH1 0x1 PUSH1 0xA0 SHL SUB AND EQ JUMPDEST PUSH2 0xE87 JUMPI PUSH1 0x40 MLOAD PUSH3 0x461BCD PUSH1 0xE5 SHL DUP2 MSTORE PUSH1 0x4 ADD PUSH2 0x82D SWAP1 PUSH2 0x3493 JUMP JUMPDEST PUSH1 0x7 DUP2 SWAP1 SSTORE PUSH1 0x40 MLOAD DUP2 DUP2 MSTORE PUSH32 0xBB2C369A0355A34B02AB5FCE0643150C87E1C8DFE7C918D465591879F57948B1 SWAP1 PUSH1 0x20 ADD PUSH2 0xB81 JUMP JUMPDEST PUSH1 0x5 SLOAD PUSH1 0x1 PUSH1 0x1 PUSH1 0xA0 SHL SUB AND CALLER EQ DUP1 PUSH2 0xEDF JUMPI POP PUSH1 0x3 SLOAD PUSH1 0x1 PUSH1 0x1 PUSH1 0xA0 SHL SUB AND CALLER EQ JUMPDEST DUP1 PUSH2 0xF02 JUMPI POP PUSH2 0xEED PUSH2 0x2444 JUMP JUMPDEST PUSH1 0x1 PUSH1 0x1 PUSH1 0xA0 SHL SUB AND CALLER PUSH1 0x1 PUSH1 0x1 PUSH1 0xA0 SHL SUB AND EQ JUMPDEST DUP1 PUSH2 0xF94 JUMPI POP PUSH1 0x2 PUSH1 0x0 SWAP1 SLOAD SWAP1 PUSH2 0x100 EXP SWAP1 DIV PUSH1 0x1 PUSH1 0x1 PUSH1 0xA0 SHL SUB AND PUSH1 0x1 PUSH1 0x1 PUSH1 0xA0 SHL SUB AND PUSH4 0x452A9320 PUSH1 0x40 MLOAD DUP2 PUSH4 0xFFFFFFFF AND PUSH1 0xE0 SHL DUP2 MSTORE PUSH1 0x4 ADD PUSH1 0x20 PUSH1 0x40 MLOAD DUP1 DUP4 SUB DUP2 DUP7 GAS STATICCALL ISZERO DUP1 ISZERO PUSH2 0xF5B JUMPI RETURNDATASIZE PUSH1 0x0 DUP1 RETURNDATACOPY RETURNDATASIZE PUSH1 0x0 REVERT JUMPDEST POP POP POP POP PUSH1 0x40 MLOAD RETURNDATASIZE PUSH1 0x1F NOT PUSH1 0x1F DUP3 ADD AND DUP3 ADD DUP1 PUSH1 0x40 MSTORE POP DUP2 ADD SWAP1 PUSH2 0xF7F SWAP2 SWAP1 PUSH2 0x3670 JUMP JUMPDEST PUSH1 0x1 PUSH1 0x1 PUSH1 0xA0 SHL SUB AND CALLER PUSH1 0x1 PUSH1 0x1 PUSH1 0xA0 SHL SUB AND EQ JUMPDEST DUP1 PUSH2 0x1026 JUMPI POP PUSH1 0x2 PUSH1 0x0 SWAP1 SLOAD SWAP1 PUSH2 0x100 EXP SWAP1 DIV PUSH1 0x1 PUSH1 0x1 PUSH1 0xA0 SHL SUB AND PUSH1 0x1 PUSH1 0x1 PUSH1 0xA0 SHL SUB AND PUSH4 0x88A8D602 PUSH1 0x40 MLOAD DUP2 PUSH4 0xFFFFFFFF AND PUSH1 0xE0 SHL DUP2 MSTORE PUSH1 0x4 ADD PUSH1 0x20 PUSH1 0x40 MLOAD DUP1 DUP4 SUB DUP2 DUP7 GAS STATICCALL ISZERO DUP1 ISZERO PUSH2 0xFED JUMPI RETURNDATASIZE PUSH1 0x0 DUP1 RETURNDATACOPY RETURNDATASIZE PUSH1 0x0 REVERT JUMPDEST POP POP POP POP PUSH1 0x40 MLOAD RETURNDATASIZE PUSH1 0x1F NOT PUSH1 0x1F DUP3 ADD AND DUP3 ADD DUP1 PUSH1 0x40 MSTORE POP DUP2 ADD SWAP1 PUSH2 0x1011 SWAP2 SWAP1 PUSH2 0x3670 JUMP JUMPDEST PUSH1 0x1 PUSH1 0x1 PUSH1 0xA0 SHL SUB AND CALLER PUSH1 0x1 PUSH1 0x1 PUSH1 0xA0 SHL SUB AND EQ JUMPDEST PUSH2 0x1042 JUMPI PUSH1 0x40 MLOAD PUSH3 0x461BCD PUSH1 0xE5 SHL DUP2 MSTORE PUSH1 0x4 ADD PUSH2 0x82D SWAP1 PUSH2 0x3493 JUMP JUMPDEST PUSH1 0x2 SLOAD PUSH1 0x40 DUP1 MLOAD PUSH4 0xBF3759B5 PUSH1 0xE0 SHL DUP2 MSTORE SWAP1 MLOAD PUSH2 0x10B6 SWAP3 PUSH1 0x1 PUSH1 0x1 PUSH1 0xA0 SHL SUB AND SWAP2 PUSH4 0xBF3759B5 SWAP2 PUSH1 0x4 DUP1 DUP4 ADD SWAP3 PUSH1 0x20 SWAP3 SWAP2 SWAP1 DUP3 SWAP1 SUB ADD DUP2 DUP7 GAS STATICCALL ISZERO DUP1 ISZERO PUSH2 0x108D JUMPI RETURNDATASIZE PUSH1 0x0 DUP1 RETURNDATACOPY RETURNDATASIZE PUSH1 0x0 REVERT JUMPDEST POP POP POP POP PUSH1 0x40 MLOAD RETURNDATASIZE PUSH1 0x1F NOT PUSH1 0x1F DUP3 ADD AND DUP3 ADD DUP1 PUSH1 0x40 MSTORE POP DUP2 ADD SWAP1 PUSH2 0x10B1 SWAP2 SWAP1 PUSH2 0x34FF JUMP JUMPDEST PUSH2 0x2603 JUMP JUMPDEST JUMP JUMPDEST PUSH1 0x5 SLOAD PUSH1 0x1 PUSH1 0x1 PUSH1 0xA0 SHL SUB AND CALLER EQ DUP1 PUSH2 0x10DB JUMPI POP PUSH1 0x3 SLOAD PUSH1 0x1 PUSH1 0x1 PUSH1 0xA0 SHL SUB AND CALLER EQ JUMPDEST DUP1 PUSH2 0x10FE JUMPI POP PUSH2 0x10E9 PUSH2 0x2444 JUMP JUMPDEST PUSH1 0x1 PUSH1 0x1 PUSH1 0xA0 SHL SUB AND CALLER PUSH1 0x1 PUSH1 0x1 PUSH1 0xA0 SHL SUB AND EQ JUMPDEST DUP1 PUSH2 0x1190 JUMPI POP PUSH1 0x2 PUSH1 0x0 SWAP1 SLOAD SWAP1 PUSH2 0x100 EXP SWAP1 DIV PUSH1 0x1 PUSH1 0x1 PUSH1 0xA0 SHL SUB AND PUSH1 0x1 PUSH1 0x1 PUSH1 0xA0 SHL SUB AND PUSH4 0x452A9320 PUSH1 0x40 MLOAD DUP2 PUSH4 0xFFFFFFFF AND PUSH1 0xE0 SHL DUP2 MSTORE PUSH1 0x4 ADD PUSH1 0x20 PUSH1 0x40 MLOAD DUP1 DUP4 SUB DUP2 DUP7 GAS STATICCALL ISZERO DUP1 ISZERO PUSH2 0x1157 JUMPI RETURNDATASIZE PUSH1 0x0 DUP1 RETURNDATACOPY RETURNDATASIZE PUSH1 0x0 REVERT JUMPDEST POP POP POP POP PUSH1 0x40 MLOAD RETURNDATASIZE PUSH1 0x1F NOT PUSH1 0x1F DUP3 ADD AND DUP3 ADD DUP1 PUSH1 0x40 MSTORE POP DUP2 ADD SWAP1 PUSH2 0x117B SWAP2 SWAP1 PUSH2 0x3670 JUMP JUMPDEST PUSH1 0x1 PUSH1 0x1 PUSH1 0xA0 SHL SUB AND CALLER PUSH1 0x1 PUSH1 0x1 PUSH1 0xA0 SHL SUB AND EQ JUMPDEST DUP1 PUSH2 0x1222 JUMPI POP PUSH1 0x2 PUSH1 0x0 SWAP1 SLOAD SWAP1 PUSH2 0x100 EXP SWAP1 DIV PUSH1 0x1 PUSH1 0x1 PUSH1 0xA0 SHL SUB AND PUSH1 0x1 PUSH1 0x1 PUSH1 0xA0 SHL SUB AND PUSH4 0x88A8D602 PUSH1 0x40 MLOAD DUP2 PUSH4 0xFFFFFFFF AND PUSH1 0xE0 SHL DUP2 MSTORE PUSH1 0x4 ADD PUSH1 0x20 PUSH1 0x40 MLOAD DUP1 DUP4 SUB DUP2 DUP7 GAS STATICCALL ISZERO DUP1 ISZERO PUSH2 0x11E9 JUMPI RETURNDATASIZE PUSH1 0x0 DUP1 RETURNDATACOPY RETURNDATASIZE PUSH1 0x0 REVERT JUMPDEST POP POP POP POP PUSH1 0x40 MLOAD RETURNDATASIZE PUSH1 0x1F NOT PUSH1 0x1F DUP3 ADD AND DUP3 ADD DUP1 PUSH1 0x40 MSTORE POP DUP2 ADD SWAP1 PUSH2 0x120D SWAP2 SWAP1 PUSH2 0x3670 JUMP JUMPDEST PUSH1 0x1 PUSH1 0x1 PUSH1 0xA0 SHL SUB AND CALLER PUSH1 0x1 PUSH1 0x1 PUSH1 0xA0 SHL SUB AND EQ JUMPDEST PUSH2 0x123E JUMPI PUSH1 0x40 MLOAD PUSH3 0x461BCD PUSH1 0xE5 SHL DUP2 MSTORE PUSH1 0x4 ADD PUSH2 0x82D SWAP1 PUSH2 0x3493 JUMP JUMPDEST PUSH1 0x0 DUP1 PUSH1 0x0 PUSH1 0x2 PUSH1 0x0 SWAP1 SLOAD SWAP1 PUSH2 0x100 EXP SWAP1 DIV PUSH1 0x1 PUSH1 0x1 PUSH1 0xA0 SHL SUB AND PUSH1 0x1 PUSH1 0x1 PUSH1 0xA0 SHL SUB AND PUSH4 0xBF3759B5 PUSH1 0x40 MLOAD DUP2 PUSH4 0xFFFFFFFF AND PUSH1 0xE0 SHL DUP2 MSTORE PUSH1 0x4 ADD PUSH1 0x20 PUSH1 0x40 MLOAD DUP1 DUP4 SUB DUP2 DUP7 GAS STATICCALL ISZERO DUP1 ISZERO PUSH2 0x1296 JUMPI RETURNDATASIZE PUSH1 0x0 DUP1 RETURNDATACOPY RETURNDATASIZE PUSH1 0x0 REVERT JUMPDEST POP POP POP POP PUSH1 0x40 MLOAD RETURNDATASIZE PUSH1 0x1F NOT PUSH1 0x1F DUP3 ADD AND DUP3 ADD DUP1 PUSH1 0x40 MSTORE POP DUP2 ADD SWAP1 PUSH2 0x12BA SWAP2 SWAP1 PUSH2 0x34FF JUMP JUMPDEST PUSH1 0xB SLOAD SWAP1 SWAP2 POP PUSH1 0x0 SWAP1 PUSH1 0xFF AND ISZERO PUSH2 0x1317 JUMPI PUSH1 0x0 PUSH2 0x12D5 PUSH2 0x2710 JUMP JUMPDEST SWAP1 POP DUP3 DUP2 LT ISZERO PUSH2 0x12F0 JUMPI PUSH2 0x12E9 DUP2 DUP5 PUSH2 0x3708 JUMP JUMPDEST SWAP4 POP PUSH2 0x1305 JUMP JUMPDEST DUP3 DUP2 GT ISZERO PUSH2 0x1305 JUMPI PUSH2 0x1302 DUP4 DUP3 PUSH2 0x3708 JUMP JUMPDEST SWAP5 POP JUMPDEST PUSH2 0x130F DUP5 DUP5 PUSH2 0x3708 JUMP JUMPDEST SWAP2 POP POP PUSH2 0x1328 JUMP JUMPDEST PUSH2 0x1320 DUP3 PUSH2 0x274B JUMP JUMPDEST SWAP2 SWAP6 POP SWAP4 POP SWAP1 POP JUMPDEST PUSH1 0x2 SLOAD PUSH1 0x40 MLOAD PUSH4 0x39EBF823 PUSH1 0xE0 SHL DUP2 MSTORE ADDRESS PUSH1 0x4 DUP3 ADD MSTORE PUSH1 0x0 SWAP2 PUSH1 0x1 PUSH1 0x1 PUSH1 0xA0 SHL SUB AND SWAP1 PUSH4 0x39EBF823 SWAP1 PUSH1 0x24 ADD PUSH2 0x120 PUSH1 0x40 MLOAD DUP1 DUP4 SUB DUP2 DUP7 GAS STATICCALL ISZERO DUP1 ISZERO PUSH2 0x1372 JUMPI RETURNDATASIZE PUSH1 0x0 DUP1 RETURNDATACOPY RETURNDATASIZE PUSH1 0x0 REVERT JUMPDEST POP POP POP POP PUSH1 0x40 MLOAD RETURNDATASIZE PUSH1 0x1F NOT PUSH1 0x1F DUP3 ADD AND DUP3 ADD DUP1 PUSH1 0x40 MSTORE POP DUP2 ADD SWAP1 PUSH2 0x1396 SWAP2 SWAP1 PUSH2 0x368D JUMP JUMPDEST PUSH1 0xC0 ADD MLOAD PUSH1 0x2 SLOAD PUSH1 0x40 MLOAD PUSH4 0x28766EBF PUSH1 0xE2 SHL DUP2 MSTORE PUSH1 0x4 DUP2 ADD DUP9 SWAP1 MSTORE PUSH1 0x24 DUP2 ADD DUP8 SWAP1 MSTORE PUSH1 0x44 DUP2 ADD DUP6 SWAP1 MSTORE SWAP2 SWAP3 POP PUSH1 0x1 PUSH1 0x1 PUSH1 0xA0 SHL SUB AND SWAP1 PUSH4 0xA1D9BAFC SWAP1 PUSH1 0x64 ADD PUSH1 0x20 PUSH1 0x40 MLOAD DUP1 DUP4 SUB DUP2 PUSH1 0x0 DUP8 GAS CALL ISZERO DUP1 ISZERO PUSH2 0x13F4 JUMPI RETURNDATASIZE PUSH1 0x0 DUP1 RETURNDATACOPY RETURNDATASIZE PUSH1 0x0 REVERT JUMPDEST POP POP POP POP PUSH1 0x40 MLOAD RETURNDATASIZE PUSH1 0x1F NOT PUSH1 0x1F DUP3 ADD AND DUP3 ADD DUP1 PUSH1 0x40 MSTORE POP DUP2 ADD SWAP1 PUSH2 0x1418 SWAP2 SWAP1 PUSH2 0x34FF JUMP JUMPDEST SWAP3 POP PUSH2 0x1423 DUP4 PUSH2 0x2603 JUMP JUMPDEST PUSH1 0x1 SLOAD PUSH1 0xFF AND DUP1 ISZERO PUSH2 0x1444 JUMPI POP PUSH1 0x1 SLOAD PUSH2 0x100 SWAP1 DIV PUSH1 0x1 PUSH1 0x1 PUSH1 0xA0 SHL SUB AND ISZERO ISZERO JUMPDEST ISZERO PUSH2 0x1516 JUMPI PUSH1 0x1 SLOAD PUSH1 0x40 MLOAD PUSH4 0xC70FA00B PUSH1 0xE0 SHL DUP2 MSTORE PUSH1 0x4 DUP2 ADD DUP8 SWAP1 MSTORE PUSH1 0x24 DUP2 ADD DUP7 SWAP1 MSTORE PUSH1 0x44 DUP2 ADD DUP5 SWAP1 MSTORE PUSH1 0x64 DUP2 ADD DUP6 SWAP1 MSTORE PUSH1 0x84 DUP2 ADD DUP4 SWAP1 MSTORE PUSH2 0x100 SWAP1 SWAP2 DIV PUSH1 0x1 PUSH1 0x1 PUSH1 0xA0 SHL SUB AND SWAP1 PUSH4 0xC70FA00B SWAP1 PUSH1 0xA4 ADD PUSH1 0x20 PUSH1 0x40 MLOAD DUP1 DUP4 SUB DUP2 DUP7 GAS STATICCALL ISZERO DUP1 ISZERO PUSH2 0x14B2 JUMPI RETURNDATASIZE PUSH1 0x0 DUP1 RETURNDATACOPY RETURNDATASIZE PUSH1 0x0 REVERT JUMPDEST POP POP POP POP PUSH1 0x40 MLOAD RETURNDATASIZE PUSH1 0x1F NOT PUSH1 0x1F DUP3 ADD AND DUP3 ADD DUP1 PUSH1 0x40 MSTORE POP DUP2 ADD SWAP1 PUSH2 0x14D6 SWAP2 SWAP1 PUSH2 0x371F JUMP JUMPDEST PUSH2 0x1511 JUMPI PUSH1 0x40 MLOAD PUSH3 0x461BCD PUSH1 0xE5 SHL DUP2 MSTORE PUSH1 0x20 PUSH1 0x4 DUP3 ADD MSTORE PUSH1 0xC PUSH1 0x24 DUP3 ADD MSTORE PUSH12 0x216865616C7468636865636B PUSH1 0xA0 SHL PUSH1 0x44 DUP3 ADD MSTORE PUSH1 0x64 ADD PUSH2 0x82D JUMP JUMPDEST PUSH2 0x1557 JUMP JUMPDEST PUSH1 0x40 MLOAD PUSH1 0x1 DUP2 MSTORE PUSH32 0xF769F6BF659BBBDABF212D830720CE893EEDC57F25EBB8E44EDF5B300618A35B SWAP1 PUSH1 0x20 ADD PUSH1 0x40 MLOAD DUP1 SWAP2 SUB SWAP1 LOG1 PUSH1 0x1 DUP1 SLOAD PUSH1 0xFF NOT AND DUP2 OR SWAP1 SSTORE JUMPDEST PUSH1 0x40 DUP1 MLOAD DUP7 DUP2 MSTORE PUSH1 0x20 DUP2 ADD DUP7 SWAP1 MSTORE SWAP1 DUP2 ADD DUP4 SWAP1 MSTORE PUSH1 0x60 DUP2 ADD DUP5 SWAP1 MSTORE PUSH32 0x4C0F499FFE6BEFA0CA7C826B0916CF87BEA98DE658013E76938489368D60D509 SWAP1 PUSH1 0x80 ADD PUSH1 0x40 MLOAD DUP1 SWAP2 SUB SWAP1 LOG1 POP POP POP POP POP JUMP JUMPDEST PUSH1 0x3 SLOAD PUSH1 0x1 PUSH1 0x1 PUSH1 0xA0 SHL SUB AND CALLER EQ DUP1 PUSH2 0x15D7 JUMPI POP PUSH2 0x15C2 PUSH2 0x2444 JUMP JUMPDEST PUSH1 0x1 PUSH1 0x1 PUSH1 0xA0 SHL SUB AND CALLER PUSH1 0x1 PUSH1 0x1 PUSH1 0xA0 SHL SUB AND EQ JUMPDEST PUSH2 0x15F3 JUMPI PUSH1 0x40 MLOAD PUSH3 0x461BCD PUSH1 0xE5 SHL DUP2 MSTORE PUSH1 0x4 ADD PUSH2 0x82D SWAP1 PUSH2 0x3493 JUMP JUMPDEST DUP1 ISZERO PUSH2 0x1622 JUMPI PUSH1 0xC DUP1 SLOAD PUSH1 0x1 PUSH1 0x1 PUSH1 0xA0 SHL SUB NOT AND PUSH20 0x7A250D5630B4CF539739DF2C5DACB4C659F2488D OR SWAP1 SSTORE POP JUMP JUMPDEST PUSH1 0xC DUP1 SLOAD PUSH1 0x1 PUSH1 0x1 PUSH1 0xA0 SHL SUB NOT AND PUSH20 0xD9E1CE17F2641F24AE83637AB66A2CCA9C378B9F OR SWAP1 SSTORE JUMPDEST POP JUMP JUMPDEST PUSH1 0x3 SLOAD PUSH1 0x1 PUSH1 0x1 PUSH1 0xA0 SHL SUB AND CALLER EQ DUP1 PUSH2 0x167D JUMPI POP PUSH2 0x1668 PUSH2 0x2444 JUMP JUMPDEST PUSH1 0x1 PUSH1 0x1 PUSH1 0xA0 SHL SUB AND CALLER PUSH1 0x1 PUSH1 0x1 PUSH1 0xA0 SHL SUB AND EQ JUMPDEST PUSH2 0x1699 JUMPI PUSH1 0x40 MLOAD PUSH3 0x461BCD PUSH1 0xE5 SHL DUP2 MSTORE PUSH1 0x4 ADD PUSH2 0x82D SWAP1 PUSH2 0x3493 JUMP JUMPDEST PUSH1 0x1 PUSH1 0x1 PUSH1 0xA0 SHL SUB DUP2 AND PUSH2 0x16AC JUMPI PUSH1 0x0 DUP1 REVERT JUMPDEST PUSH1 0x5 DUP1 SLOAD PUSH1 0x1 PUSH1 0x1 PUSH1 0xA0 SHL SUB NOT AND PUSH1 0x1 PUSH1 0x1 PUSH1 0xA0 SHL SUB DUP4 AND SWAP1 DUP2 OR SWAP1 SWAP2 SSTORE PUSH1 0x40 MLOAD SWAP1 DUP2 MSTORE PUSH32 0x2F202DDB4A2E345F6323ED90F8FC8559D770A7ABBBEEE84DDE8ACA3351FE7154 SWAP1 PUSH1 0x20 ADD PUSH2 0xB81 JUMP JUMPDEST PUSH1 0x3 SLOAD PUSH1 0x1 PUSH1 0x1 PUSH1 0xA0 SHL SUB AND CALLER EQ DUP1 PUSH2 0x172B JUMPI POP PUSH2 0x1716 PUSH2 0x2444 JUMP JUMPDEST PUSH1 0x1 PUSH1 0x1 PUSH1 0xA0 SHL SUB AND CALLER PUSH1 0x1 PUSH1 0x1 PUSH1 0xA0 SHL SUB AND EQ JUMPDEST PUSH2 0x1747 JUMPI PUSH1 0x40 MLOAD PUSH3 0x461BCD PUSH1 0xE5 SHL DUP2 MSTORE PUSH1 0x4 ADD PUSH2 0x82D SWAP1 PUSH2 0x3493 JUMP JUMPDEST PUSH2 0x1753 PUSH1 0x0 DUP4 DUP4 PUSH2 0x32AF JUMP JUMPDEST POP PUSH32 0x300E67D5A415B6D015A471D9C7B95DD58F3E8290AF965E84E0F845DE2996DDA6 DUP3 DUP3 PUSH1 0x40 MLOAD PUSH2 0x1785 SWAP3 SWAP2 SWAP1 PUSH2 0x373C JUMP JUMPDEST PUSH1 0x40 MLOAD DUP1 SWAP2 SUB SWAP1 LOG1 POP POP JUMP JUMPDEST PUSH1 0x3 SLOAD PUSH1 0x1 PUSH1 0x1 PUSH1 0xA0 SHL SUB AND CALLER EQ DUP1 PUSH2 0x17C2 JUMPI POP PUSH2 0x17AD PUSH2 0x2444 JUMP JUMPDEST PUSH1 0x1 PUSH1 0x1 PUSH1 0xA0 SHL SUB AND CALLER PUSH1 0x1 PUSH1 0x1 PUSH1 0xA0 SHL SUB AND EQ JUMPDEST PUSH2 0x17DE JUMPI PUSH1 0x40 MLOAD PUSH3 0x461BCD PUSH1 0xE5 SHL DUP2 MSTORE PUSH1 0x4 ADD PUSH2 0x82D SWAP1 PUSH2 0x3493 JUMP JUMPDEST PUSH2 0x1649 DUP2 PUSH2 0x2C59 JUMP JUMPDEST PUSH1 0x3 SLOAD PUSH1 0x1 PUSH1 0x1 PUSH1 0xA0 SHL SUB AND CALLER EQ DUP1 PUSH2 0x1818 JUMPI POP PUSH2 0x1803 PUSH2 0x2444 JUMP JUMPDEST PUSH1 0x1 PUSH1 0x1 PUSH1 0xA0 SHL SUB AND CALLER PUSH1 0x1 PUSH1 0x1 PUSH1 0xA0 SHL SUB AND EQ JUMPDEST PUSH2 0x1834 JUMPI PUSH1 0x40 MLOAD PUSH3 0x461BCD PUSH1 0xE5 SHL DUP2 MSTORE PUSH1 0x4 ADD PUSH2 0x82D SWAP1 PUSH2 0x3493 JUMP JUMPDEST PUSH1 0x9 DUP2 SWAP1 SSTORE PUSH1 0x40 MLOAD DUP2 DUP2 MSTORE PUSH32 0xD94596337DF4C2F0F44D30A7FC5DB1C7BB60D9ACA4185ED77C6FD96EB45EC298 SWAP1 PUSH1 0x20 ADD PUSH2 0xB81 JUMP JUMPDEST PUSH1 0x3 SLOAD PUSH1 0x1 PUSH1 0x1 PUSH1 0xA0 SHL SUB AND CALLER EQ DUP1 PUSH2 0x189A JUMPI POP PUSH2 0x1885 PUSH2 0x2444 JUMP JUMPDEST PUSH1 0x1 PUSH1 0x1 PUSH1 0xA0 SHL SUB AND CALLER PUSH1 0x1 PUSH1 0x1 PUSH1 0xA0 SHL SUB AND EQ JUMPDEST PUSH2 0x18B6 JUMPI PUSH1 0x40 MLOAD PUSH3 0x461BCD PUSH1 0xE5 SHL DUP2 MSTORE PUSH1 0x4 ADD PUSH2 0x82D SWAP1 PUSH2 0x3493 JUMP JUMPDEST PUSH1 0xF SSTORE JUMP JUMPDEST PUSH2 0x18C3 PUSH2 0x2444 JUMP JUMPDEST PUSH1 0x1 PUSH1 0x1 PUSH1 0xA0 SHL SUB AND CALLER PUSH1 0x1 PUSH1 0x1 PUSH1 0xA0 SHL SUB AND EQ PUSH2 0x18F3 JUMPI PUSH1 0x40 MLOAD PUSH3 0x461BCD PUSH1 0xE5 SHL DUP2 MSTORE PUSH1 0x4 ADD PUSH2 0x82D SWAP1 PUSH2 0x3493 JUMP JUMPDEST PUSH1 0xB DUP1 SLOAD PUSH1 0x1 PUSH1 0x1 PUSH1 0xA0 SHL SUB SWAP1 SWAP3 AND PUSH2 0x100 MUL PUSH2 0x100 PUSH1 0x1 PUSH1 0xA8 SHL SUB NOT SWAP1 SWAP3 AND SWAP2 SWAP1 SWAP2 OR SWAP1 SSTORE JUMP JUMPDEST PUSH1 0x2 PUSH1 0x0 SWAP1 SLOAD SWAP1 PUSH2 0x100 EXP SWAP1 DIV PUSH1 0x1 PUSH1 0x1 PUSH1 0xA0 SHL SUB AND PUSH1 0x1 PUSH1 0x1 PUSH1 0xA0 SHL SUB AND PUSH4 0x88A8D602 PUSH1 0x40 MLOAD DUP2 PUSH4 0xFFFFFFFF AND PUSH1 0xE0 SHL DUP2 MSTORE PUSH1 0x4 ADD PUSH1 0x20 PUSH1 0x40 MLOAD DUP1 DUP4 SUB DUP2 DUP7 GAS STATICCALL ISZERO DUP1 ISZERO PUSH2 0x196E JUMPI RETURNDATASIZE PUSH1 0x0 DUP1 RETURNDATACOPY RETURNDATASIZE PUSH1 0x0 REVERT JUMPDEST POP POP POP POP PUSH1 0x40 MLOAD RETURNDATASIZE PUSH1 0x1F NOT PUSH1 0x1F DUP3 ADD AND DUP3 ADD DUP1 PUSH1 0x40 MSTORE POP DUP2 ADD SWAP1 PUSH2 0x1992 SWAP2 SWAP1 PUSH2 0x3670 JUMP JUMPDEST PUSH1 0x1 PUSH1 0x1 PUSH1 0xA0 SHL SUB AND CALLER PUSH1 0x1 PUSH1 0x1 PUSH1 0xA0 SHL SUB AND EQ DUP1 PUSH2 0x19C9 JUMPI POP PUSH2 0x19B4 PUSH2 0x2444 JUMP JUMPDEST PUSH1 0x1 PUSH1 0x1 PUSH1 0xA0 SHL SUB AND CALLER PUSH1 0x1 PUSH1 0x1 PUSH1 0xA0 SHL SUB AND EQ JUMPDEST PUSH2 0x19E5 JUMPI PUSH1 0x40 MLOAD PUSH3 0x461BCD PUSH1 0xE5 SHL DUP2 MSTORE PUSH1 0x4 ADD PUSH2 0x82D SWAP1 PUSH2 0x3493 JUMP JUMPDEST PUSH1 0x40 MLOAD DUP2 ISZERO ISZERO DUP2 MSTORE PUSH32 0xF769F6BF659BBBDABF212D830720CE893EEDC57F25EBB8E44EDF5B300618A35B SWAP1 PUSH1 0x20 ADD PUSH1 0x40 MLOAD DUP1 SWAP2 SUB SWAP1 LOG1 PUSH1 0x1 DUP1 SLOAD PUSH1 0xFF NOT AND SWAP2 ISZERO ISZERO SWAP2 SWAP1 SWAP2 OR SWAP1 SSTORE JUMP JUMPDEST PUSH1 0x10 DUP2 DUP2 SLOAD DUP2 LT PUSH2 0x1A3D JUMPI PUSH1 0x0 DUP1 REVERT JUMPDEST PUSH1 0x0 SWAP2 DUP3 MSTORE PUSH1 0x20 SWAP1 SWAP2 KECCAK256 ADD SLOAD PUSH1 0x1 PUSH1 0x1 PUSH1 0xA0 SHL SUB AND SWAP1 POP DUP2 JUMP JUMPDEST PUSH1 0x6 SLOAD PUSH1 0x40 MLOAD PUSH4 0x70A08231 PUSH1 0xE0 SHL DUP2 MSTORE ADDRESS PUSH1 0x4 DUP3 ADD MSTORE PUSH1 0x0 SWAP2 PUSH1 0x1 PUSH1 0x1 PUSH1 0xA0 SHL SUB AND SWAP1 PUSH4 0x70A08231 SWAP1 PUSH1 0x24 ADD PUSH2 0xBC5 JUMP JUMPDEST PUSH1 0x3 SLOAD PUSH1 0x1 PUSH1 0x1 PUSH1 0xA0 SHL SUB AND CALLER EQ DUP1 PUSH2 0x1AB9 JUMPI POP PUSH2 0x1AA4 PUSH2 0x2444 JUMP JUMPDEST PUSH1 0x1 PUSH1 0x1 PUSH1 0xA0 SHL SUB AND CALLER PUSH1 0x1 PUSH1 0x1 PUSH1 0xA0 SHL SUB AND EQ JUMPDEST PUSH2 0x1AD5 JUMPI PUSH1 0x40 MLOAD PUSH3 0x461BCD PUSH1 0xE5 SHL DUP2 MSTORE PUSH1 0x4 ADD PUSH2 0x82D SWAP1 PUSH2 0x3493 JUMP JUMPDEST PUSH1 0x1 PUSH1 0x1 PUSH1 0xA0 SHL SUB DUP2 AND PUSH2 0x1AE8 JUMPI PUSH1 0x0 DUP1 REVERT JUMPDEST PUSH1 0x3 DUP1 SLOAD PUSH1 0x1 PUSH1 0x1 PUSH1 0xA0 SHL SUB NOT AND PUSH1 0x1 PUSH1 0x1 PUSH1 0xA0 SHL SUB DUP4 AND SWAP1 DUP2 OR SWAP1 SWAP2 SSTORE PUSH1 0x40 MLOAD SWAP1 DUP2 MSTORE PUSH32 0x352ECECAE6D7D1E6D26BCF2C549DFD55BE1637E9B22DC0CF3B71DDB36097A6B4 SWAP1 PUSH1 0x20 ADD PUSH2 0xB81 JUMP JUMPDEST PUSH1 0x2 SLOAD PUSH1 0x1 PUSH1 0x1 PUSH1 0xA0 SHL SUB AND CALLER EQ PUSH2 0x1B4D JUMPI PUSH1 0x0 DUP1 REVERT JUMPDEST PUSH1 0x2 SLOAD PUSH1 0x40 DUP1 MLOAD PUSH4 0xFBFA77CF PUSH1 0xE0 SHL DUP2 MSTORE SWAP1 MLOAD PUSH1 0x1 PUSH1 0x1 PUSH1 0xA0 SHL SUB SWAP3 DUP4 AND SWAP3 DUP5 AND SWAP2 PUSH4 0xFBFA77CF SWAP2 PUSH1 0x4 DUP1 DUP4 ADD SWAP3 PUSH1 0x20 SWAP3 SWAP2 SWAP1 DUP3 SWAP1 SUB ADD DUP2 DUP7 GAS STATICCALL ISZERO DUP1 ISZERO PUSH2 0x1B99 JUMPI RETURNDATASIZE PUSH1 0x0 DUP1 RETURNDATACOPY RETURNDATASIZE PUSH1 0x0 REVERT JUMPDEST POP POP POP POP PUSH1 0x40 MLOAD RETURNDATASIZE PUSH1 0x1F NOT PUSH1 0x1F DUP3 ADD AND DUP3 ADD DUP1 PUSH1 0x40 MSTORE POP DUP2 ADD SWAP1 PUSH2 0x1BBD SWAP2 SWAP1 PUSH2 0x3670 JUMP JUMPDEST PUSH1 0x1 PUSH1 0x1 PUSH1 0xA0 SHL SUB AND EQ PUSH2 0x1BD0 JUMPI PUSH1 0x0 DUP1 REVERT JUMPDEST PUSH2 0x1BD9 DUP2 PUSH2 0x2D13 JUMP JUMPDEST PUSH1 0x6 SLOAD PUSH1 0x40 MLOAD PUSH4 0x70A08231 PUSH1 0xE0 SHL DUP2 MSTORE ADDRESS PUSH1 0x4 DUP3 ADD MSTORE PUSH2 0x1649 SWAP2 DUP4 SWAP2 PUSH1 0x1 PUSH1 0x1 PUSH1 0xA0 SHL SUB SWAP1 SWAP2 AND SWAP1 PUSH4 0x70A08231 SWAP1 PUSH1 0x24 ADD PUSH1 0x20 PUSH1 0x40 MLOAD DUP1 DUP4 SUB DUP2 DUP7 GAS STATICCALL ISZERO DUP1 ISZERO PUSH2 0x1C27 JUMPI RETURNDATASIZE PUSH1 0x0 DUP1 RETURNDATACOPY RETURNDATASIZE PUSH1 0x0 REVERT JUMPDEST POP POP POP POP PUSH1 0x40 MLOAD RETURNDATASIZE PUSH1 0x1F NOT PUSH1 0x1F DUP3 ADD AND DUP3 ADD DUP1 PUSH1 0x40 MSTORE POP DUP2 ADD SWAP1 PUSH2 0x1C4B SWAP2 SWAP1 PUSH2 0x34FF JUMP JUMPDEST PUSH1 0x6 SLOAD PUSH1 0x1 PUSH1 0x1 PUSH1 0xA0 SHL SUB AND SWAP2 SWAP1 PUSH2 0x251D JUMP JUMPDEST PUSH1 0x3 SLOAD PUSH1 0x1 PUSH1 0x1 PUSH1 0xA0 SHL SUB AND CALLER EQ PUSH2 0x1CA6 JUMPI PUSH1 0x40 MLOAD PUSH3 0x461BCD PUSH1 0xE5 SHL DUP2 MSTORE PUSH1 0x20 PUSH1 0x4 DUP3 ADD MSTORE PUSH1 0xB PUSH1 0x24 DUP3 ADD MSTORE PUSH11 0x85CDD1C985D1959DA5CDD PUSH1 0xAA SHL PUSH1 0x44 DUP3 ADD MSTORE PUSH1 0x64 ADD PUSH2 0x82D JUMP JUMPDEST PUSH1 0x1 PUSH1 0x1 PUSH1 0xA0 SHL SUB DUP2 AND PUSH2 0x1CB9 JUMPI PUSH1 0x0 DUP1 REVERT JUMPDEST PUSH1 0x2 SLOAD PUSH1 0x4 DUP1 SLOAD PUSH1 0x40 MLOAD PUSH4 0x95EA7B3 PUSH1 0xE0 SHL DUP2 MSTORE PUSH1 0x1 PUSH1 0x1 PUSH1 0xA0 SHL SUB SWAP2 DUP3 AND SWAP3 DUP2 ADD SWAP3 SWAP1 SWAP3 MSTORE PUSH1 0x0 PUSH1 0x24 DUP4 ADD MSTORE SWAP1 SWAP2 AND SWAP1 PUSH4 0x95EA7B3 SWAP1 PUSH1 0x44 ADD PUSH1 0x20 PUSH1 0x40 MLOAD DUP1 DUP4 SUB DUP2 PUSH1 0x0 DUP8 GAS CALL ISZERO DUP1 ISZERO PUSH2 0x1D12 JUMPI RETURNDATASIZE PUSH1 0x0 DUP1 RETURNDATACOPY RETURNDATASIZE PUSH1 0x0 REVERT JUMPDEST POP POP POP POP PUSH1 0x40 MLOAD RETURNDATASIZE PUSH1 0x1F NOT PUSH1 0x1F DUP3 ADD AND DUP3 ADD DUP1 PUSH1 0x40 MSTORE POP DUP2 ADD SWAP1 PUSH2 0x1D36 SWAP2 SWAP1 PUSH2 0x371F JUMP JUMPDEST POP PUSH1 0x4 DUP1 SLOAD PUSH1 0x1 PUSH1 0x1 PUSH1 0xA0 SHL SUB NOT AND PUSH1 0x1 PUSH1 0x1 PUSH1 0xA0 SHL SUB DUP4 DUP2 AND SWAP2 DUP3 OR DUP4 SSTORE PUSH1 0x2 SLOAD PUSH1 0x40 MLOAD PUSH4 0x95EA7B3 PUSH1 0xE0 SHL DUP2 MSTORE SWAP4 DUP5 ADD SWAP3 SWAP1 SWAP3 MSTORE PUSH1 0x0 NOT PUSH1 0x24 DUP5 ADD MSTORE AND SWAP1 PUSH4 0x95EA7B3 SWAP1 PUSH1 0x44 ADD PUSH1 0x20 PUSH1 0x40 MLOAD DUP1 DUP4 SUB DUP2 PUSH1 0x0 DUP8 GAS CALL ISZERO DUP1 ISZERO PUSH2 0x1D9E JUMPI RETURNDATASIZE PUSH1 0x0 DUP1 RETURNDATACOPY RETURNDATASIZE PUSH1 0x0 REVERT JUMPDEST POP POP POP POP PUSH1 0x40 MLOAD RETURNDATASIZE PUSH1 0x1F NOT PUSH1 0x1F DUP3 ADD AND DUP3 ADD DUP1 PUSH1 0x40 MSTORE POP DUP2 ADD SWAP1 PUSH2 0x1DC2 SWAP2 SWAP1 PUSH2 0x371F JUMP JUMPDEST POP PUSH1 0x40 MLOAD PUSH1 0x1 PUSH1 0x1 PUSH1 0xA0 SHL SUB DUP3 AND DUP2 MSTORE PUSH32 0xAFBB66ABF8F3B719799940473A4052A3717CDD8E40FB6C8A3FAADAB316B1A069 SWAP1 PUSH1 0x20 ADD PUSH2 0xB81 JUMP JUMPDEST PUSH1 0x0 DUP1 DUP3 PUSH1 0x2 SLOAD PUSH1 0x40 MLOAD PUSH4 0x39EBF823 PUSH1 0xE0 SHL DUP2 MSTORE ADDRESS PUSH1 0x4 DUP3 ADD MSTORE SWAP2 SWAP3 POP PUSH1 0x0 SWAP2 PUSH1 0x1 PUSH1 0x1 PUSH1 0xA0 SHL SUB SWAP1 SWAP2 AND SWAP1 PUSH4 0x39EBF823 SWAP1 PUSH1 0x24 ADD PUSH2 0x120 PUSH1 0x40 MLOAD DUP1 DUP4 SUB DUP2 DUP7 GAS STATICCALL ISZERO DUP1 ISZERO PUSH2 0x1E4F JUMPI RETURNDATASIZE PUSH1 0x0 DUP1 RETURNDATACOPY RETURNDATASIZE PUSH1 0x0 REVERT JUMPDEST POP POP POP POP PUSH1 0x40 MLOAD RETURNDATASIZE PUSH1 0x1F NOT PUSH1 0x1F DUP3 ADD AND DUP3 ADD DUP1 PUSH1 0x40 MSTORE POP DUP2 ADD SWAP1 PUSH2 0x1E73 SWAP2 SWAP1 PUSH2 0x368D JUMP JUMPDEST SWAP1 POP DUP1 PUSH1 0x20 ADD MLOAD PUSH1 0x0 EQ ISZERO PUSH2 0x1E8C JUMPI POP PUSH1 0x0 SWAP4 SWAP3 POP POP POP JUMP JUMPDEST PUSH1 0x7 SLOAD PUSH1 0xA0 DUP3 ADD MLOAD PUSH2 0x1E9E SWAP1 TIMESTAMP PUSH2 0x3708 JUMP JUMPDEST LT ISZERO PUSH2 0x1EAE JUMPI POP PUSH1 0x0 SWAP4 SWAP3 POP POP POP JUMP JUMPDEST PUSH1 0x8 SLOAD PUSH1 0xA0 DUP3 ADD MLOAD PUSH2 0x1EC0 SWAP1 TIMESTAMP PUSH2 0x3708 JUMP JUMPDEST LT PUSH2 0x1ECF JUMPI POP PUSH1 0x1 SWAP4 SWAP3 POP POP POP JUMP JUMPDEST PUSH1 0x2 SLOAD PUSH1 0x40 DUP1 MLOAD PUSH4 0xBF3759B5 PUSH1 0xE0 SHL DUP2 MSTORE SWAP1 MLOAD PUSH1 0x0 SWAP3 PUSH1 0x1 PUSH1 0x1 PUSH1 0xA0 SHL SUB AND SWAP2 PUSH4 0xBF3759B5 SWAP2 PUSH1 0x4 DUP1 DUP4 ADD SWAP3 PUSH1 0x20 SWAP3 SWAP2 SWAP1 DUP3 SWAP1 SUB ADD DUP2 DUP7 GAS STATICCALL ISZERO DUP1 ISZERO PUSH2 0x1F19 JUMPI RETURNDATASIZE PUSH1 0x0 DUP1 RETURNDATACOPY RETURNDATASIZE PUSH1 0x0 REVERT JUMPDEST POP POP POP POP PUSH1 0x40 MLOAD RETURNDATASIZE PUSH1 0x1F NOT PUSH1 0x1F DUP3 ADD AND DUP3 ADD DUP1 PUSH1 0x40 MSTORE POP DUP2 ADD SWAP1 PUSH2 0x1F3D SWAP2 SWAP1 PUSH2 0x34FF JUMP JUMPDEST SWAP1 POP PUSH1 0xA SLOAD DUP2 GT ISZERO PUSH2 0x1F54 JUMPI POP PUSH1 0x1 SWAP5 SWAP4 POP POP POP POP JUMP JUMPDEST PUSH1 0x0 PUSH2 0x1F5E PUSH2 0x203A JUMP JUMPDEST SWAP1 POP DUP3 PUSH1 0xC0 ADD MLOAD PUSH1 0xA SLOAD DUP3 PUSH2 0x1F73 SWAP2 SWAP1 PUSH2 0x376B JUMP JUMPDEST LT ISZERO PUSH2 0x1F85 JUMPI POP PUSH1 0x1 SWAP6 SWAP5 POP POP POP POP POP JUMP JUMPDEST PUSH1 0x0 DUP4 PUSH1 0xC0 ADD MLOAD DUP3 GT ISZERO PUSH2 0x1FA5 JUMPI PUSH1 0xC0 DUP5 ADD MLOAD PUSH2 0x1FA2 SWAP1 DUP4 PUSH2 0x3708 JUMP JUMPDEST SWAP1 POP JUMPDEST PUSH1 0x2 SLOAD PUSH1 0x40 DUP1 MLOAD PUSH4 0x112C1F9B PUSH1 0xE0 SHL DUP2 MSTORE SWAP1 MLOAD PUSH1 0x0 SWAP3 PUSH1 0x1 PUSH1 0x1 PUSH1 0xA0 SHL SUB AND SWAP2 PUSH4 0x112C1F9B SWAP2 PUSH1 0x4 DUP1 DUP4 ADD SWAP3 PUSH1 0x20 SWAP3 SWAP2 SWAP1 DUP3 SWAP1 SUB ADD DUP2 DUP7 GAS STATICCALL ISZERO DUP1 ISZERO PUSH2 0x1FEF JUMPI RETURNDATASIZE PUSH1 0x0 DUP1 RETURNDATACOPY RETURNDATASIZE PUSH1 0x0 REVERT JUMPDEST POP POP POP POP PUSH1 0x40 MLOAD RETURNDATASIZE PUSH1 0x1F NOT PUSH1 0x1F DUP3 ADD AND DUP3 ADD DUP1 PUSH1 0x40 MSTORE POP DUP2 ADD SWAP1 PUSH2 0x2013 SWAP2 SWAP1 PUSH2 0x34FF JUMP JUMPDEST SWAP1 POP PUSH2 0x201F DUP3 DUP3 PUSH2 0x376B JUMP JUMPDEST DUP7 PUSH1 0x9 SLOAD PUSH2 0x202D SWAP2 SWAP1 PUSH2 0x3783 JUMP JUMPDEST LT SWAP9 SWAP8 POP POP POP POP POP POP POP POP JUMP JUMPDEST PUSH1 0x0 PUSH2 0xC06 PUSH2 0x2047 PUSH2 0xB8C JUMP JUMPDEST PUSH2 0x204F PUSH2 0x1A57 JUMP JUMPDEST SWAP1 PUSH2 0x2D95 JUMP JUMPDEST PUSH1 0x3 SLOAD PUSH1 0x1 PUSH1 0x1 PUSH1 0xA0 SHL SUB AND CALLER EQ DUP1 PUSH2 0x2086 JUMPI POP PUSH2 0x2071 PUSH2 0x2444 JUMP JUMPDEST PUSH1 0x1 PUSH1 0x1 PUSH1 0xA0 SHL SUB AND CALLER PUSH1 0x1 PUSH1 0x1 PUSH1 0xA0 SHL SUB AND EQ JUMPDEST PUSH2 0x20A2 JUMPI PUSH1 0x40 MLOAD PUSH3 0x461BCD PUSH1 0xE5 SHL DUP2 MSTORE PUSH1 0x4 ADD PUSH2 0x82D SWAP1 PUSH2 0x3493 JUMP JUMPDEST PUSH1 0x8 DUP2 SWAP1 SSTORE PUSH1 0x40 MLOAD DUP2 DUP2 MSTORE PUSH32 0x5430E11864AD7AA9775B07D12657FE52DF9AA2BA734355BD8EF8747BE2C800C5 SWAP1 PUSH1 0x20 ADD PUSH2 0xB81 JUMP JUMPDEST PUSH1 0x3 SLOAD PUSH1 0x1 PUSH1 0x1 PUSH1 0xA0 SHL SUB AND CALLER EQ DUP1 PUSH2 0x2108 JUMPI POP PUSH2 0x20F3 PUSH2 0x2444 JUMP JUMPDEST PUSH1 0x1 PUSH1 0x1 PUSH1 0xA0 SHL SUB AND CALLER PUSH1 0x1 PUSH1 0x1 PUSH1 0xA0 SHL SUB AND EQ JUMPDEST DUP1 PUSH2 0x219A JUMPI POP PUSH1 0x2 PUSH1 0x0 SWAP1 SLOAD SWAP1 PUSH2 0x100 EXP SWAP1 DIV PUSH1 0x1 PUSH1 0x1 PUSH1 0xA0 SHL SUB AND PUSH1 0x1 PUSH1 0x1 PUSH1 0xA0 SHL SUB AND PUSH4 0x452A9320 PUSH1 0x40 MLOAD DUP2 PUSH4 0xFFFFFFFF AND PUSH1 0xE0 SHL DUP2 MSTORE PUSH1 0x4 ADD PUSH1 0x20 PUSH1 0x40 MLOAD DUP1 DUP4 SUB DUP2 DUP7 GAS STATICCALL ISZERO DUP1 ISZERO PUSH2 0x2161 JUMPI RETURNDATASIZE PUSH1 0x0 DUP1 RETURNDATACOPY RETURNDATASIZE PUSH1 0x0 REVERT JUMPDEST POP POP POP POP PUSH1 0x40 MLOAD RETURNDATASIZE PUSH1 0x1F NOT PUSH1 0x1F DUP3 ADD AND DUP3 ADD DUP1 PUSH1 0x40 MSTORE POP DUP2 ADD SWAP1 PUSH2 0x2185 SWAP2 SWAP1 PUSH2 0x3670 JUMP JUMPDEST PUSH1 0x1 PUSH1 0x1 PUSH1 0xA0 SHL SUB AND CALLER PUSH1 0x1 PUSH1 0x1 PUSH1 0xA0 SHL SUB AND EQ JUMPDEST DUP1 PUSH2 0x222C JUMPI POP PUSH1 0x2 PUSH1 0x0 SWAP1 SLOAD SWAP1 PUSH2 0x100 EXP SWAP1 DIV PUSH1 0x1 PUSH1 0x1 PUSH1 0xA0 SHL SUB AND PUSH1 0x1 PUSH1 0x1 PUSH1 0xA0 SHL SUB AND PUSH4 0x88A8D602 PUSH1 0x40 MLOAD DUP2 PUSH4 0xFFFFFFFF AND PUSH1 0xE0 SHL DUP2 MSTORE PUSH1 0x4 ADD PUSH1 0x20 PUSH1 0x40 MLOAD DUP1 DUP4 SUB DUP2 DUP7 GAS STATICCALL ISZERO DUP1 ISZERO PUSH2 0x21F3 JUMPI RETURNDATASIZE PUSH1 0x0 DUP1 RETURNDATACOPY RETURNDATASIZE PUSH1 0x0 REVERT JUMPDEST POP POP POP POP PUSH1 0x40 MLOAD RETURNDATASIZE PUSH1 0x1F NOT PUSH1 0x1F DUP3 ADD AND DUP3 ADD DUP1 PUSH1 0x40 MSTORE POP DUP2 ADD SWAP1 PUSH2 0x2217 SWAP2 SWAP1 PUSH2 0x3670 JUMP JUMPDEST PUSH1 0x1 PUSH1 0x1 PUSH1 0xA0 SHL SUB AND CALLER PUSH1 0x1 PUSH1 0x1 PUSH1 0xA0 SHL SUB AND EQ JUMPDEST PUSH2 0x2248 JUMPI PUSH1 0x40 MLOAD PUSH3 0x461BCD PUSH1 0xE5 SHL DUP2 MSTORE PUSH1 0x4 ADD PUSH2 0x82D SWAP1 PUSH2 0x3493 JUMP JUMPDEST PUSH1 0xB DUP1 SLOAD PUSH1 0xFF NOT AND PUSH1 0x1 OR SWAP1 SSTORE PUSH1 0x2 SLOAD PUSH1 0x40 DUP1 MLOAD PUSH4 0x507257CD PUSH1 0xE1 SHL DUP2 MSTORE SWAP1 MLOAD PUSH1 0x1 PUSH1 0x1 PUSH1 0xA0 SHL SUB SWAP1 SWAP3 AND SWAP2 PUSH4 0xA0E4AF9A SWAP2 PUSH1 0x4 DUP1 DUP3 ADD SWAP3 PUSH1 0x0 SWAP3 SWAP1 SWAP2 SWAP1 DUP3 SWAP1 SUB ADD DUP2 DUP4 DUP8 DUP1 EXTCODESIZE ISZERO DUP1 ISZERO PUSH2 0x229B JUMPI PUSH1 0x0 DUP1 REVERT JUMPDEST POP GAS CALL ISZERO DUP1 ISZERO PUSH2 0x22AF JUMPI RETURNDATASIZE PUSH1 0x0 DUP1 RETURNDATACOPY RETURNDATASIZE PUSH1 0x0 REVERT JUMPDEST POP POP PUSH1 0x40 MLOAD PUSH32 0x97E963041E952738788B9D4871D854D282065B8F90A464928D6528F2E9A4FD0B SWAP3 POP PUSH1 0x0 SWAP2 POP LOG1 JUMP JUMPDEST DUP1 ISZERO DUP1 PUSH2 0x2358 JUMPI POP PUSH1 0x40 MLOAD PUSH4 0x6EB1769F PUSH1 0xE1 SHL DUP2 MSTORE ADDRESS PUSH1 0x4 DUP3 ADD MSTORE PUSH1 0x1 PUSH1 0x1 PUSH1 0xA0 SHL SUB DUP4 DUP2 AND PUSH1 0x24 DUP4 ADD MSTORE DUP5 AND SWAP1 PUSH4 0xDD62ED3E SWAP1 PUSH1 0x44 ADD PUSH1 0x20 PUSH1 0x40 MLOAD DUP1 DUP4 SUB DUP2 DUP7 GAS STATICCALL ISZERO DUP1 ISZERO PUSH2 0x2332 JUMPI RETURNDATASIZE PUSH1 0x0 DUP1 RETURNDATACOPY RETURNDATASIZE PUSH1 0x0 REVERT JUMPDEST POP POP POP POP PUSH1 0x40 MLOAD RETURNDATASIZE PUSH1 0x1F NOT PUSH1 0x1F DUP3 ADD AND DUP3 ADD DUP1 PUSH1 0x40 MSTORE POP DUP2 ADD SWAP1 PUSH2 0x2356 SWAP2 SWAP1 PUSH2 0x34FF JUMP JUMPDEST ISZERO JUMPDEST PUSH2 0x23C3 JUMPI PUSH1 0x40 MLOAD PUSH3 0x461BCD PUSH1 0xE5 SHL DUP2 MSTORE PUSH1 0x20 PUSH1 0x4 DUP3 ADD MSTORE PUSH1 0x36 PUSH1 0x24 DUP3 ADD MSTORE PUSH32 0x5361666545524332303A20617070726F76652066726F6D206E6F6E2D7A65726F PUSH1 0x44 DUP3 ADD MSTORE PUSH22 0x20746F206E6F6E2D7A65726F20616C6C6F77616E6365 PUSH1 0x50 SHL PUSH1 0x64 DUP3 ADD MSTORE PUSH1 0x84 ADD PUSH2 0x82D JUMP JUMPDEST PUSH1 0x40 MLOAD PUSH1 0x1 PUSH1 0x1 PUSH1 0xA0 SHL SUB DUP4 AND PUSH1 0x24 DUP3 ADD MSTORE PUSH1 0x44 DUP2 ADD DUP3 SWAP1 MSTORE PUSH2 0x2426 SWAP1 DUP5 SWAP1 PUSH4 0x95EA7B3 PUSH1 0xE0 SHL SWAP1 PUSH1 0x64 ADD JUMPDEST PUSH1 0x40 DUP1 MLOAD PUSH1 0x1F NOT DUP2 DUP5 SUB ADD DUP2 MSTORE SWAP2 SWAP1 MSTORE PUSH1 0x20 DUP2 ADD DUP1 MLOAD PUSH1 0x1 PUSH1 0x1 PUSH1 0xE0 SHL SUB AND PUSH1 0x1 PUSH1 0x1 PUSH1 0xE0 SHL SUB NOT SWAP1 SWAP4 AND SWAP3 SWAP1 SWAP3 OR SWAP1 SWAP2 MSTORE PUSH2 0x2DA1 JUMP JUMPDEST POP POP POP JUMP JUMPDEST PUSH1 0x60 PUSH2 0x243A DUP5 DUP5 PUSH1 0x0 DUP6 PUSH2 0x2E73 JUMP JUMPDEST SWAP1 POP JUMPDEST SWAP4 SWAP3 POP POP POP JUMP JUMPDEST PUSH1 0x2 SLOAD PUSH1 0x40 DUP1 MLOAD PUSH4 0x5AA6E675 PUSH1 0xE0 SHL DUP2 MSTORE SWAP1 MLOAD PUSH1 0x0 SWAP3 PUSH1 0x1 PUSH1 0x1 PUSH1 0xA0 SHL SUB AND SWAP2 PUSH4 0x5AA6E675 SWAP2 PUSH1 0x4 DUP1 DUP4 ADD SWAP3 PUSH1 0x20 SWAP3 SWAP2 SWAP1 DUP3 SWAP1 SUB ADD DUP2 DUP7 GAS STATICCALL ISZERO DUP1 ISZERO PUSH2 0x248E JUMPI RETURNDATASIZE PUSH1 0x0 DUP1 RETURNDATACOPY RETURNDATASIZE PUSH1 0x0 REVERT JUMPDEST POP POP POP POP PUSH1 0x40 MLOAD RETURNDATASIZE PUSH1 0x1F NOT PUSH1 0x1F DUP3 ADD AND DUP3 ADD DUP1 PUSH1 0x40 MSTORE POP DUP2 ADD SWAP1 PUSH2 0xC06 SWAP2 SWAP1 PUSH2 0x3670 JUMP JUMPDEST PUSH1 0x40 DUP1 MLOAD PUSH1 0x1 DUP1 DUP3 MSTORE DUP2 DUP4 ADD SWAP1 SWAP3 MSTORE PUSH1 0x60 SWAP2 PUSH1 0x0 SWAP2 SWAP1 PUSH1 0x20 DUP1 DUP4 ADD SWAP1 DUP1 CALLDATASIZE DUP4 CALLDATACOPY ADD SWAP1 POP POP SWAP1 POP PUSH20 0xD533A949740BB3306D119CC777FA900BA034CD52 DUP2 PUSH1 0x0 DUP2 MLOAD DUP2 LT PUSH2 0x2500 JUMPI PUSH2 0x2500 PUSH2 0x34B8 JUMP JUMPDEST PUSH1 0x1 PUSH1 0x1 PUSH1 0xA0 SHL SUB SWAP1 SWAP3 AND PUSH1 0x20 SWAP3 DUP4 MUL SWAP2 SWAP1 SWAP2 ADD SWAP1 SWAP2 ADD MSTORE SWAP2 SWAP1 POP JUMP JUMPDEST PUSH1 0x40 MLOAD PUSH1 0x1 PUSH1 0x1 PUSH1 0xA0 SHL SUB DUP4 AND PUSH1 0x24 DUP3 ADD MSTORE PUSH1 0x44 DUP2 ADD DUP3 SWAP1 MSTORE PUSH2 0x2426 SWAP1 DUP5 SWAP1 PUSH4 0xA9059CBB PUSH1 0xE0 SHL SWAP1 PUSH1 0x64 ADD PUSH2 0x23EF JUMP JUMPDEST PUSH1 0x6 SLOAD PUSH1 0x40 MLOAD PUSH4 0x70A08231 PUSH1 0xE0 SHL DUP2 MSTORE ADDRESS PUSH1 0x4 DUP3 ADD MSTORE PUSH1 0x0 SWAP2 DUP3 SWAP2 DUP3 SWAP2 PUSH1 0x1 PUSH1 0x1 PUSH1 0xA0 SHL SUB AND SWAP1 PUSH4 0x70A08231 SWAP1 PUSH1 0x24 ADD PUSH1 0x20 PUSH1 0x40 MLOAD DUP1 DUP4 SUB DUP2 DUP7 GAS STATICCALL ISZERO DUP1 ISZERO PUSH2 0x259A JUMPI RETURNDATASIZE PUSH1 0x0 DUP1 RETURNDATACOPY RETURNDATASIZE PUSH1 0x0 REVERT JUMPDEST POP POP POP POP PUSH1 0x40 MLOAD RETURNDATASIZE PUSH1 0x1F NOT PUSH1 0x1F DUP3 ADD AND DUP3 ADD DUP1 PUSH1 0x40 MSTORE POP DUP2 ADD SWAP1 PUSH2 0x25BE SWAP2 SWAP1 PUSH2 0x34FF JUMP JUMPDEST SWAP1 POP DUP4 DUP2 LT ISZERO PUSH2 0x25F9 JUMPI PUSH2 0x25DA PUSH2 0x25D5 DUP6 DUP4 PUSH2 0x2F9B JUMP JUMPDEST PUSH2 0x2FA7 JUMP JUMPDEST SWAP3 POP PUSH2 0x25E6 DUP4 DUP3 PUSH2 0x2D95 JUMP JUMPDEST SWAP3 POP PUSH2 0x25F2 DUP5 DUP5 PUSH2 0x2F9B JUMP JUMPDEST SWAP2 POP PUSH2 0x25FD JUMP JUMPDEST DUP4 SWAP3 POP JUMPDEST POP SWAP2 POP SWAP2 JUMP JUMPDEST PUSH1 0x6 SLOAD PUSH1 0x40 MLOAD PUSH4 0x70A08231 PUSH1 0xE0 SHL DUP2 MSTORE ADDRESS PUSH1 0x4 DUP3 ADD MSTORE PUSH1 0x0 SWAP2 PUSH1 0x1 PUSH1 0x1 PUSH1 0xA0 SHL SUB AND SWAP1 PUSH4 0x70A08231 SWAP1 PUSH1 0x24 ADD PUSH1 0x20 PUSH1 0x40 MLOAD DUP1 DUP4 SUB DUP2 DUP7 GAS STATICCALL ISZERO DUP1 ISZERO PUSH2 0x264C JUMPI RETURNDATASIZE PUSH1 0x0 DUP1 RETURNDATACOPY RETURNDATASIZE PUSH1 0x0 REVERT JUMPDEST POP POP POP POP PUSH1 0x40 MLOAD RETURNDATASIZE PUSH1 0x1F NOT PUSH1 0x1F DUP3 ADD AND DUP3 ADD DUP1 PUSH1 0x40 MSTORE POP DUP2 ADD SWAP1 PUSH2 0x2670 SWAP2 SWAP1 PUSH2 0x34FF JUMP JUMPDEST SWAP1 POP DUP1 ISZERO PUSH2 0x9DB JUMPI PUSH1 0xB SLOAD PUSH1 0x6 SLOAD PUSH2 0x269B SWAP2 PUSH1 0x1 PUSH1 0x1 PUSH1 0xA0 SHL SUB SWAP2 DUP3 AND SWAP2 PUSH2 0x100 SWAP1 SWAP2 DIV AND DUP4 PUSH2 0x251D JUMP JUMPDEST PUSH1 0xB SLOAD PUSH1 0xE SLOAD PUSH1 0x6 SLOAD PUSH1 0x40 MLOAD PUSH4 0x1F2C13E1 PUSH1 0xE3 SHL DUP2 MSTORE PUSH1 0x1 PUSH1 0x1 PUSH1 0xA0 SHL SUB SWAP3 DUP4 AND PUSH1 0x4 DUP3 ADD MSTORE SWAP1 DUP3 AND PUSH1 0x24 DUP3 ADD MSTORE PUSH2 0x100 SWAP1 SWAP3 DIV AND SWAP1 PUSH4 0xF9609F08 SWAP1 PUSH1 0x44 ADD PUSH1 0x0 PUSH1 0x40 MLOAD DUP1 DUP4 SUB DUP2 PUSH1 0x0 DUP8 DUP1 EXTCODESIZE ISZERO DUP1 ISZERO PUSH2 0x26F4 JUMPI PUSH1 0x0 DUP1 REVERT JUMPDEST POP GAS CALL ISZERO DUP1 ISZERO PUSH2 0x2708 JUMPI RETURNDATASIZE PUSH1 0x0 DUP1 RETURNDATACOPY RETURNDATASIZE PUSH1 0x0 REVERT JUMPDEST POP POP POP POP POP POP JUMP JUMPDEST PUSH1 0x40 MLOAD PUSH3 0x461BCD PUSH1 0xE5 SHL DUP2 MSTORE PUSH1 0x20 PUSH1 0x4 DUP3 ADD MSTORE PUSH1 0xD PUSH1 0x24 DUP3 ADD MSTORE PUSH13 0x1D5B9A5B5C1B195B595B9D1959 PUSH1 0x9A SHL PUSH1 0x44 DUP3 ADD MSTORE PUSH1 0x0 SWAP1 PUSH1 0x64 ADD PUSH2 0x82D JUMP JUMPDEST PUSH1 0x6 SLOAD PUSH1 0x40 MLOAD PUSH4 0x70A08231 PUSH1 0xE0 SHL DUP2 MSTORE ADDRESS PUSH1 0x4 DUP3 ADD MSTORE PUSH1 0x0 SWAP2 DUP3 SWAP2 DUP3 SWAP2 DUP3 SWAP2 PUSH1 0x1 PUSH1 0x1 PUSH1 0xA0 SHL SUB SWAP1 SWAP2 AND SWAP1 PUSH4 0x70A08231 SWAP1 PUSH1 0x24 ADD PUSH1 0x20 PUSH1 0x40 MLOAD DUP1 DUP4 SUB DUP2 DUP7 GAS STATICCALL ISZERO DUP1 ISZERO PUSH2 0x279C JUMPI RETURNDATASIZE PUSH1 0x0 DUP1 RETURNDATACOPY RETURNDATASIZE PUSH1 0x0 REVERT JUMPDEST POP POP POP POP PUSH1 0x40 MLOAD RETURNDATASIZE PUSH1 0x1F NOT PUSH1 0x1F DUP3 ADD AND DUP3 ADD DUP1 PUSH1 0x40 MSTORE POP DUP2 ADD SWAP1 PUSH2 0x27C0 SWAP2 SWAP1 PUSH2 0x34FF JUMP JUMPDEST PUSH1 0xB SLOAD PUSH1 0xE SLOAD PUSH1 0x40 MLOAD PUSH4 0x72E008F PUSH1 0xE1 SHL DUP2 MSTORE PUSH1 0x1 PUSH1 0x1 PUSH1 0xA0 SHL SUB SWAP2 DUP3 AND PUSH1 0x4 DUP3 ADD MSTORE SWAP3 SWAP4 POP PUSH2 0x100 SWAP1 SWAP2 DIV AND SWAP1 PUSH4 0xE5C011E SWAP1 PUSH1 0x24 ADD PUSH1 0x0 PUSH1 0x40 MLOAD DUP1 DUP4 SUB DUP2 PUSH1 0x0 DUP8 DUP1 EXTCODESIZE ISZERO DUP1 ISZERO PUSH2 0x2811 JUMPI PUSH1 0x0 DUP1 REVERT JUMPDEST POP GAS CALL ISZERO DUP1 ISZERO PUSH2 0x2825 JUMPI RETURNDATASIZE PUSH1 0x0 DUP1 RETURNDATACOPY RETURNDATASIZE PUSH1 0x0 REVERT JUMPDEST POP POP PUSH1 0x40 MLOAD PUSH4 0x70A08231 PUSH1 0xE0 SHL DUP2 MSTORE ADDRESS PUSH1 0x4 DUP3 ADD MSTORE PUSH1 0x0 SWAP3 POP PUSH20 0xD533A949740BB3306D119CC777FA900BA034CD52 SWAP2 POP PUSH4 0x70A08231 SWAP1 PUSH1 0x24 ADD PUSH1 0x20 PUSH1 0x40 MLOAD DUP1 DUP4 SUB DUP2 DUP7 GAS STATICCALL ISZERO DUP1 ISZERO PUSH2 0x287B JUMPI RETURNDATASIZE PUSH1 0x0 DUP1 RETURNDATACOPY RETURNDATASIZE PUSH1 0x0 REVERT JUMPDEST POP POP POP POP PUSH1 0x40 MLOAD RETURNDATASIZE PUSH1 0x1F NOT PUSH1 0x1F DUP3 ADD AND DUP3 ADD DUP1 PUSH1 0x40 MSTORE POP DUP2 ADD SWAP1 PUSH2 0x289F SWAP2 SWAP1 PUSH2 0x34FF JUMP JUMPDEST SWAP1 POP DUP1 ISZERO PUSH2 0x2979 JUMPI PUSH2 0x28B0 DUP2 PUSH2 0x3047 JUMP JUMPDEST PUSH1 0xC SLOAD SWAP1 SWAP2 POP PUSH2 0x28E0 SWAP1 PUSH20 0xD533A949740BB3306D119CC777FA900BA034CD52 SWAP1 PUSH1 0x1 PUSH1 0x1 PUSH1 0xA0 SHL SUB AND PUSH1 0x0 PUSH2 0x22DE JUMP JUMPDEST PUSH1 0xC SLOAD PUSH2 0x290C SWAP1 PUSH20 0xD533A949740BB3306D119CC777FA900BA034CD52 SWAP1 PUSH1 0x1 PUSH1 0x1 PUSH1 0xA0 SHL SUB AND DUP4 PUSH2 0x22DE JUMP JUMPDEST PUSH1 0xC SLOAD PUSH1 0x40 MLOAD PUSH4 0x38ED1739 PUSH1 0xE0 SHL DUP2 MSTORE PUSH1 0x1 PUSH1 0x1 PUSH1 0xA0 SHL SUB SWAP1 SWAP2 AND SWAP1 PUSH4 0x38ED1739 SWAP1 PUSH2 0x2946 SWAP1 DUP5 SWAP1 PUSH1 0x0 SWAP1 PUSH1 0x10 SWAP1 ADDRESS SWAP1 TIMESTAMP SWAP1 PUSH1 0x4 ADD PUSH2 0x37A2 JUMP JUMPDEST PUSH1 0x0 PUSH1 0x40 MLOAD DUP1 DUP4 SUB DUP2 PUSH1 0x0 DUP8 DUP1 EXTCODESIZE ISZERO DUP1 ISZERO PUSH2 0x2960 JUMPI PUSH1 0x0 DUP1 REVERT JUMPDEST POP GAS CALL ISZERO DUP1 ISZERO PUSH2 0x2974 JUMPI RETURNDATASIZE PUSH1 0x0 DUP1 RETURNDATACOPY RETURNDATASIZE PUSH1 0x0 REVERT JUMPDEST POP POP POP POP JUMPDEST PUSH1 0x40 MLOAD PUSH4 0x70A08231 PUSH1 0xE0 SHL DUP2 MSTORE ADDRESS PUSH1 0x4 DUP3 ADD MSTORE PUSH1 0x0 SWAP1 PUSH20 0x6B175474E89094C44DA98B954EEDEAC495271D0F SWAP1 PUSH4 0x70A08231 SWAP1 PUSH1 0x24 ADD PUSH1 0x20 PUSH1 0x40 MLOAD DUP1 DUP4 SUB DUP2 DUP7 GAS STATICCALL ISZERO DUP1 ISZERO PUSH2 0x29CB JUMPI RETURNDATASIZE PUSH1 0x0 DUP1 RETURNDATACOPY RETURNDATASIZE PUSH1 0x0 REVERT JUMPDEST POP POP POP POP PUSH1 0x40 MLOAD RETURNDATASIZE PUSH1 0x1F NOT PUSH1 0x1F DUP3 ADD AND DUP3 ADD DUP1 PUSH1 0x40 MSTORE POP DUP2 ADD SWAP1 PUSH2 0x29EF SWAP2 SWAP1 PUSH2 0x34FF JUMP JUMPDEST PUSH1 0x40 MLOAD PUSH4 0x70A08231 PUSH1 0xE0 SHL DUP2 MSTORE ADDRESS PUSH1 0x4 DUP3 ADD MSTORE SWAP1 SWAP2 POP PUSH1 0x0 SWAP1 PUSH20 0xA0B86991C6218B36C1D19D4A2E9EB0CE3606EB48 SWAP1 PUSH4 0x70A08231 SWAP1 PUSH1 0x24 ADD PUSH1 0x20 PUSH1 0x40 MLOAD DUP1 DUP4 SUB DUP2 DUP7 GAS STATICCALL ISZERO DUP1 ISZERO PUSH2 0x2A44 JUMPI RETURNDATASIZE PUSH1 0x0 DUP1 RETURNDATACOPY RETURNDATASIZE PUSH1 0x0 REVERT JUMPDEST POP POP POP POP PUSH1 0x40 MLOAD RETURNDATASIZE PUSH1 0x1F NOT PUSH1 0x1F DUP3 ADD AND DUP3 ADD DUP1 PUSH1 0x40 MSTORE POP DUP2 ADD SWAP1 PUSH2 0x2A68 SWAP2 SWAP1 PUSH2 0x34FF JUMP JUMPDEST PUSH1 0x40 MLOAD PUSH4 0x70A08231 PUSH1 0xE0 SHL DUP2 MSTORE ADDRESS PUSH1 0x4 DUP3 ADD MSTORE SWAP1 SWAP2 POP PUSH1 0x0 SWAP1 PUSH20 0xDAC17F958D2EE523A2206206994597C13D831EC7 SWAP1 PUSH4 0x70A08231 SWAP1 PUSH1 0x24 ADD PUSH1 0x20 PUSH1 0x40 MLOAD DUP1 DUP4 SUB DUP2 DUP7 GAS STATICCALL ISZERO DUP1 ISZERO PUSH2 0x2ABD JUMPI RETURNDATASIZE PUSH1 0x0 DUP1 RETURNDATACOPY RETURNDATASIZE PUSH1 0x0 REVERT JUMPDEST POP POP POP POP PUSH1 0x40 MLOAD RETURNDATASIZE PUSH1 0x1F NOT PUSH1 0x1F DUP3 ADD AND DUP3 ADD DUP1 PUSH1 0x40 MSTORE POP DUP2 ADD SWAP1 PUSH2 0x2AE1 SWAP2 SWAP1 PUSH2 0x34FF JUMP JUMPDEST SWAP1 POP PUSH1 0x0 DUP4 GT DUP1 PUSH2 0x2AF2 JUMPI POP PUSH1 0x0 DUP3 GT JUMPDEST DUP1 PUSH2 0x2AFD JUMPI POP PUSH1 0x0 DUP2 GT JUMPDEST ISZERO PUSH2 0x2B0D JUMPI PUSH2 0x2B0D DUP4 DUP4 DUP4 PUSH2 0x30AA JUMP JUMPDEST PUSH1 0x6 SLOAD PUSH1 0x40 MLOAD PUSH4 0x70A08231 PUSH1 0xE0 SHL DUP2 MSTORE ADDRESS PUSH1 0x4 DUP3 ADD MSTORE PUSH2 0x2B85 SWAP2 DUP8 SWAP2 PUSH1 0x1 PUSH1 0x1 PUSH1 0xA0 SHL SUB SWAP1 SWAP2 AND SWAP1 PUSH4 0x70A08231 SWAP1 PUSH1 0x24 ADD PUSH1 0x20 PUSH1 0x40 MLOAD DUP1 DUP4 SUB DUP2 DUP7 GAS STATICCALL ISZERO DUP1 ISZERO PUSH2 0x2B5B JUMPI RETURNDATASIZE PUSH1 0x0 DUP1 RETURNDATACOPY RETURNDATASIZE PUSH1 0x0 REVERT JUMPDEST POP POP POP POP PUSH1 0x40 MLOAD RETURNDATASIZE PUSH1 0x1F NOT PUSH1 0x1F DUP3 ADD AND DUP3 ADD DUP1 PUSH1 0x40 MSTORE POP DUP2 ADD SWAP1 PUSH2 0x2B7F SWAP2 SWAP1 PUSH2 0x34FF JUMP JUMPDEST SWAP1 PUSH2 0x2F9B JUMP JUMPDEST SWAP8 POP PUSH1 0x0 PUSH2 0x2B91 PUSH2 0x203A JUMP JUMPDEST PUSH1 0x2 SLOAD PUSH1 0x40 MLOAD PUSH4 0x39EBF823 PUSH1 0xE0 SHL DUP2 MSTORE ADDRESS PUSH1 0x4 DUP3 ADD MSTORE SWAP2 SWAP3 POP PUSH1 0x0 SWAP2 PUSH1 0x1 PUSH1 0x1 PUSH1 0xA0 SHL SUB SWAP1 SWAP2 AND SWAP1 PUSH4 0x39EBF823 SWAP1 PUSH1 0x24 ADD PUSH2 0x120 PUSH1 0x40 MLOAD DUP1 DUP4 SUB DUP2 DUP7 GAS STATICCALL ISZERO DUP1 ISZERO PUSH2 0x2BE0 JUMPI RETURNDATASIZE PUSH1 0x0 DUP1 RETURNDATACOPY RETURNDATASIZE PUSH1 0x0 REVERT JUMPDEST POP POP POP POP PUSH1 0x40 MLOAD RETURNDATASIZE PUSH1 0x1F NOT PUSH1 0x1F DUP3 ADD AND DUP3 ADD DUP1 PUSH1 0x40 MSTORE POP DUP2 ADD SWAP1 PUSH2 0x2C04 SWAP2 SWAP1 PUSH2 0x368D JUMP JUMPDEST PUSH1 0xC0 ADD MLOAD SWAP1 POP DUP1 DUP3 LT ISZERO PUSH2 0x2C23 JUMPI PUSH2 0x2C1C DUP3 DUP3 PUSH2 0x3708 JUMP JUMPDEST SWAP9 POP PUSH1 0x0 SWAP10 POP JUMPDEST DUP11 ISZERO PUSH2 0x2C4B JUMPI PUSH2 0x2C32 DUP12 PUSH2 0x2FA7 JUMP JUMPDEST POP PUSH2 0x2C48 DUP12 PUSH2 0x2C43 DUP13 PUSH2 0x2B7F PUSH2 0x1A57 JUMP JUMPDEST PUSH2 0x3248 JUMP JUMPDEST SWAP8 POP JUMPDEST POP POP POP POP POP POP POP SWAP2 SWAP4 SWAP1 SWAP3 POP JUMP JUMPDEST DUP1 PUSH2 0x2CB8 JUMPI PUSH20 0x6B175474E89094C44DA98B954EEDEAC495271D0F PUSH1 0x10 PUSH1 0x2 DUP2 SLOAD DUP2 LT PUSH2 0x2C87 JUMPI PUSH2 0x2C87 PUSH2 0x34B8 JUMP JUMPDEST SWAP1 PUSH1 0x0 MSTORE PUSH1 0x20 PUSH1 0x0 KECCAK256 ADD PUSH1 0x0 PUSH2 0x100 EXP DUP2 SLOAD DUP2 PUSH1 0x1 PUSH1 0x1 PUSH1 0xA0 SHL SUB MUL NOT AND SWAP1 DUP4 PUSH1 0x1 PUSH1 0x1 PUSH1 0xA0 SHL SUB AND MUL OR SWAP1 SSTORE POP POP JUMP JUMPDEST DUP1 PUSH1 0x1 EQ ISZERO PUSH2 0x2CEA JUMPI PUSH20 0xA0B86991C6218B36C1D19D4A2E9EB0CE3606EB48 PUSH1 0x10 PUSH1 0x2 DUP2 SLOAD DUP2 LT PUSH2 0x2C87 JUMPI PUSH2 0x2C87 PUSH2 0x34B8 JUMP JUMPDEST PUSH20 0xDAC17F958D2EE523A2206206994597C13D831EC7 PUSH1 0x10 PUSH1 0x2 DUP2 SLOAD DUP2 LT PUSH2 0x2C87 JUMPI PUSH2 0x2C87 PUSH2 0x34B8 JUMP JUMPDEST PUSH1 0xB SLOAD PUSH1 0xE SLOAD PUSH1 0x6 SLOAD PUSH1 0x40 MLOAD PUSH4 0x1395C59 PUSH1 0xE3 SHL DUP2 MSTORE PUSH1 0x1 PUSH1 0x1 PUSH1 0xA0 SHL SUB SWAP3 DUP4 AND PUSH1 0x4 DUP3 ADD MSTORE SWAP1 DUP3 AND PUSH1 0x24 DUP3 ADD MSTORE PUSH2 0x100 SWAP1 SWAP3 DIV AND SWAP1 PUSH4 0x9CAE2C8 SWAP1 PUSH1 0x44 ADD PUSH1 0x20 PUSH1 0x40 MLOAD DUP1 DUP4 SUB DUP2 PUSH1 0x0 DUP8 GAS CALL ISZERO DUP1 ISZERO PUSH2 0x2D71 JUMPI RETURNDATASIZE PUSH1 0x0 DUP1 RETURNDATACOPY RETURNDATASIZE PUSH1 0x0 REVERT JUMPDEST POP POP POP POP PUSH1 0x40 MLOAD RETURNDATASIZE PUSH1 0x1F NOT PUSH1 0x1F DUP3 ADD AND DUP3 ADD DUP1 PUSH1 0x40 MSTORE POP DUP2 ADD SWAP1 PUSH2 0x9DB SWAP2 SWAP1 PUSH2 0x34FF JUMP JUMPDEST PUSH1 0x0 PUSH2 0x243D DUP3 DUP5 PUSH2 0x376B JUMP JUMPDEST PUSH1 0x0 PUSH2 0x2DF6 DUP3 PUSH1 0x40 MLOAD DUP1 PUSH1 0x40 ADD PUSH1 0x40 MSTORE DUP1 PUSH1 0x20 DUP2 MSTORE PUSH1 0x20 ADD PUSH32 0x5361666545524332303A206C6F772D6C6576656C2063616C6C206661696C6564 DUP2 MSTORE POP DUP6 PUSH1 0x1 PUSH1 0x1 PUSH1 0xA0 SHL SUB AND PUSH2 0x242B SWAP1 SWAP3 SWAP2 SWAP1 PUSH4 0xFFFFFFFF AND JUMP JUMPDEST DUP1 MLOAD SWAP1 SWAP2 POP ISZERO PUSH2 0x2426 JUMPI DUP1 DUP1 PUSH1 0x20 ADD SWAP1 MLOAD DUP2 ADD SWAP1 PUSH2 0x2E14 SWAP2 SWAP1 PUSH2 0x371F JUMP JUMPDEST PUSH2 0x2426 JUMPI PUSH1 0x40 MLOAD PUSH3 0x461BCD PUSH1 0xE5 SHL DUP2 MSTORE PUSH1 0x20 PUSH1 0x4 DUP3 ADD MSTORE PUSH1 0x2A PUSH1 0x24 DUP3 ADD MSTORE PUSH32 0x5361666545524332303A204552433230206F7065726174696F6E20646964206E PUSH1 0x44 DUP3 ADD MSTORE PUSH10 0x1BDD081CDD58D8D95959 PUSH1 0xB2 SHL PUSH1 0x64 DUP3 ADD MSTORE PUSH1 0x84 ADD PUSH2 0x82D JUMP JUMPDEST PUSH1 0x60 DUP3 SELFBALANCE LT ISZERO PUSH2 0x2ED4 JUMPI PUSH1 0x40 MLOAD PUSH3 0x461BCD PUSH1 0xE5 SHL DUP2 MSTORE PUSH1 0x20 PUSH1 0x4 DUP3 ADD MSTORE PUSH1 0x26 PUSH1 0x24 DUP3 ADD MSTORE PUSH32 0x416464726573733A20696E73756666696369656E742062616C616E636520666F PUSH1 0x44 DUP3 ADD MSTORE PUSH6 0x1C8818D85B1B PUSH1 0xD2 SHL PUSH1 0x64 DUP3 ADD MSTORE PUSH1 0x84 ADD PUSH2 0x82D JUMP JUMPDEST DUP5 EXTCODESIZE PUSH2 0x2F22 JUMPI PUSH1 0x40 MLOAD PUSH3 0x461BCD PUSH1 0xE5 SHL DUP2 MSTORE PUSH1 0x20 PUSH1 0x4 DUP3 ADD MSTORE PUSH1 0x1D PUSH1 0x24 DUP3 ADD MSTORE PUSH32 0x416464726573733A2063616C6C20746F206E6F6E2D636F6E7472616374000000 PUSH1 0x44 DUP3 ADD MSTORE PUSH1 0x64 ADD PUSH2 0x82D JUMP JUMPDEST PUSH1 0x0 DUP1 DUP7 PUSH1 0x1 PUSH1 0x1 PUSH1 0xA0 SHL SUB AND DUP6 DUP8 PUSH1 0x40 MLOAD PUSH2 0x2F3E SWAP2 SWAP1 PUSH2 0x3818 JUMP JUMPDEST PUSH1 0x0 PUSH1 0x40 MLOAD DUP1 DUP4 SUB DUP2 DUP6 DUP8 GAS CALL SWAP3 POP POP POP RETURNDATASIZE DUP1 PUSH1 0x0 DUP2 EQ PUSH2 0x2F7B JUMPI PUSH1 0x40 MLOAD SWAP2 POP PUSH1 0x1F NOT PUSH1 0x3F RETURNDATASIZE ADD AND DUP3 ADD PUSH1 0x40 MSTORE RETURNDATASIZE DUP3 MSTORE RETURNDATASIZE PUSH1 0x0 PUSH1 0x20 DUP5 ADD RETURNDATACOPY PUSH2 0x2F80 JUMP JUMPDEST PUSH1 0x60 SWAP2 POP JUMPDEST POP SWAP2 POP SWAP2 POP PUSH2 0x2F90 DUP3 DUP3 DUP7 PUSH2 0x325E JUMP JUMPDEST SWAP8 SWAP7 POP POP POP POP POP POP POP JUMP JUMPDEST PUSH1 0x0 PUSH2 0x243D DUP3 DUP5 PUSH2 0x3708 JUMP JUMPDEST PUSH1 0x0 PUSH2 0x2FB5 DUP3 PUSH2 0x2C43 PUSH2 0xB8C JUMP JUMPDEST PUSH1 0xB SLOAD PUSH1 0xE SLOAD PUSH1 0x6 SLOAD PUSH1 0x40 MLOAD PUSH4 0x6CE57689 PUSH1 0xE1 SHL DUP2 MSTORE PUSH1 0x1 PUSH1 0x1 PUSH1 0xA0 SHL SUB SWAP3 DUP4 AND PUSH1 0x4 DUP3 ADD MSTORE SWAP1 DUP3 AND PUSH1 0x24 DUP3 ADD MSTORE PUSH1 0x44 DUP2 ADD DUP5 SWAP1 MSTORE SWAP3 SWAP5 POP PUSH2 0x100 SWAP1 SWAP2 DIV AND SWAP1 PUSH4 0xD9CAED12 SWAP1 PUSH1 0x64 ADD PUSH1 0x20 PUSH1 0x40 MLOAD DUP1 DUP4 SUB DUP2 PUSH1 0x0 DUP8 GAS CALL ISZERO DUP1 ISZERO PUSH2 0x301D JUMPI RETURNDATASIZE PUSH1 0x0 DUP1 RETURNDATACOPY RETURNDATASIZE PUSH1 0x0 REVERT JUMPDEST POP POP POP POP PUSH1 0x40 MLOAD RETURNDATASIZE PUSH1 0x1F NOT PUSH1 0x1F DUP3 ADD AND DUP3 ADD DUP1 PUSH1 0x40 MSTORE POP DUP2 ADD SWAP1 PUSH2 0x3041 SWAP2 SWAP1 PUSH2 0x34FF JUMP JUMPDEST SWAP3 SWAP2 POP POP JUMP JUMPDEST PUSH1 0x0 DUP1 PUSH2 0x306B PUSH2 0x2710 PUSH2 0x3065 PUSH1 0xF SLOAD DUP7 PUSH2 0x3297 SWAP1 SWAP2 SWAP1 PUSH4 0xFFFFFFFF AND JUMP JUMPDEST SWAP1 PUSH2 0x32A3 JUMP JUMPDEST SWAP1 POP PUSH2 0x30A0 PUSH20 0xD533A949740BB3306D119CC777FA900BA034CD52 PUSH20 0xF147B8125D2EF93FB6965DB97D6746952A133934 DUP4 PUSH2 0x251D JUMP JUMPDEST PUSH2 0x243D DUP4 DUP3 PUSH2 0x2F9B JUMP JUMPDEST DUP3 ISZERO PUSH2 0x3109 JUMPI PUSH1 0xD SLOAD PUSH2 0x30DD SWAP1 PUSH20 0x6B175474E89094C44DA98B954EEDEAC495271D0F SWAP1 PUSH1 0x1 PUSH1 0x1 PUSH1 0xA0 SHL SUB AND PUSH1 0x0 PUSH2 0x22DE JUMP JUMPDEST PUSH1 0xD SLOAD PUSH2 0x3109 SWAP1 PUSH20 0x6B175474E89094C44DA98B954EEDEAC495271D0F SWAP1 PUSH1 0x1 PUSH1 0x1 PUSH1 0xA0 SHL SUB AND DUP6 PUSH2 0x22DE JUMP JUMPDEST DUP2 ISZERO PUSH2 0x3168 JUMPI PUSH1 0xD SLOAD PUSH2 0x313C SWAP1 PUSH20 0xA0B86991C6218B36C1D19D4A2E9EB0CE3606EB48 SWAP1 PUSH1 0x1 PUSH1 0x1 PUSH1 0xA0 SHL SUB AND PUSH1 0x0 PUSH2 0x22DE JUMP JUMPDEST PUSH1 0xD SLOAD PUSH2 0x3168 SWAP1 PUSH20 0xA0B86991C6218B36C1D19D4A2E9EB0CE3606EB48 SWAP1 PUSH1 0x1 PUSH1 0x1 PUSH1 0xA0 SHL SUB AND DUP5 PUSH2 0x22DE JUMP JUMPDEST DUP1 ISZERO PUSH2 0x31C7 JUMPI PUSH1 0xD SLOAD PUSH2 0x319B SWAP1 PUSH20 0xDAC17F958D2EE523A2206206994597C13D831EC7 SWAP1 PUSH1 0x1 PUSH1 0x1 PUSH1 0xA0 SHL SUB AND PUSH1 0x0 PUSH2 0x22DE JUMP JUMPDEST PUSH1 0xD SLOAD PUSH2 0x31C7 SWAP1 PUSH20 0xDAC17F958D2EE523A2206206994597C13D831EC7 SWAP1 PUSH1 0x1 PUSH1 0x1 PUSH1 0xA0 SHL SUB AND DUP4 PUSH2 0x22DE JUMP JUMPDEST PUSH1 0xD SLOAD PUSH1 0x40 DUP1 MLOAD PUSH1 0x60 DUP2 ADD DUP3 MSTORE DUP6 DUP2 MSTORE PUSH1 0x20 DUP2 ADD DUP6 SWAP1 MSTORE DUP1 DUP3 ADD DUP5 SWAP1 MSTORE SWAP1 MLOAD PUSH4 0x4515CEF3 PUSH1 0xE0 SHL DUP2 MSTORE PUSH1 0x1 PUSH1 0x1 PUSH1 0xA0 SHL SUB SWAP1 SWAP3 AND SWAP2 PUSH4 0x4515CEF3 SWAP2 PUSH2 0x3211 SWAP2 PUSH1 0x0 SWAP1 PUSH1 0x4 ADD PUSH2 0x3834 JUMP JUMPDEST PUSH1 0x0 PUSH1 0x40 MLOAD DUP1 DUP4 SUB DUP2 PUSH1 0x0 DUP8 DUP1 EXTCODESIZE ISZERO DUP1 ISZERO PUSH2 0x322B JUMPI PUSH1 0x0 DUP1 REVERT JUMPDEST POP GAS CALL ISZERO DUP1 ISZERO PUSH2 0x323F JUMPI RETURNDATASIZE PUSH1 0x0 DUP1 RETURNDATACOPY RETURNDATASIZE PUSH1 0x0 REVERT JUMPDEST POP POP POP POP POP POP POP JUMP JUMPDEST PUSH1 0x0 DUP2 DUP4 LT PUSH2 0x3257 JUMPI DUP2 PUSH2 0x243D JUMP JUMPDEST POP SWAP1 SWAP2 SWAP1 POP JUMP JUMPDEST PUSH1 0x60 DUP4 ISZERO PUSH2 0x326D JUMPI POP DUP2 PUSH2 0x243D JUMP JUMPDEST DUP3 MLOAD ISZERO PUSH2 0x327D JUMPI DUP3 MLOAD DUP1 DUP5 PUSH1 0x20 ADD REVERT JUMPDEST DUP2 PUSH1 0x40 MLOAD PUSH3 0x461BCD PUSH1 0xE5 SHL DUP2 MSTORE PUSH1 0x4 ADD PUSH2 0x82D SWAP2 SWAP1 PUSH2 0x33AA JUMP JUMPDEST PUSH1 0x0 PUSH2 0x243D DUP3 DUP5 PUSH2 0x3783 JUMP JUMPDEST PUSH1 0x0 PUSH2 0x243D DUP3 DUP5 PUSH2 0x386C JUMP JUMPDEST DUP3 DUP1 SLOAD PUSH2 0x32BB SWAP1 PUSH2 0x3518 JUMP JUMPDEST SWAP1 PUSH1 0x0 MSTORE PUSH1 0x20 PUSH1 0x0 KECCAK256 SWAP1 PUSH1 0x1F ADD PUSH1 0x20 SWAP1 DIV DUP2 ADD SWAP3 DUP3 PUSH2 0x32DD JUMPI PUSH1 0x0 DUP6 SSTORE PUSH2 0x3323 JUMP JUMPDEST DUP3 PUSH1 0x1F LT PUSH2 0x32F6 JUMPI DUP3 DUP1 ADD PUSH1 0xFF NOT DUP3 CALLDATALOAD AND OR DUP6 SSTORE PUSH2 0x3323 JUMP JUMPDEST DUP3 DUP1 ADD PUSH1 0x1 ADD DUP6 SSTORE DUP3 ISZERO PUSH2 0x3323 JUMPI SWAP2 DUP3 ADD JUMPDEST DUP3 DUP2 GT ISZERO PUSH2 0x3323 JUMPI DUP3 CALLDATALOAD DUP3 SSTORE SWAP2 PUSH1 0x20 ADD SWAP2 SWAP1 PUSH1 0x1 ADD SWAP1 PUSH2 0x3308 JUMP JUMPDEST POP PUSH2 0x332F SWAP3 SWAP2 POP PUSH2 0x3333 JUMP JUMPDEST POP SWAP1 JUMP JUMPDEST JUMPDEST DUP1 DUP3 GT ISZERO PUSH2 0x332F JUMPI PUSH1 0x0 DUP2 SSTORE PUSH1 0x1 ADD PUSH2 0x3334 JUMP JUMPDEST PUSH1 0x1 PUSH1 0x1 PUSH1 0xA0 SHL SUB DUP2 AND DUP2 EQ PUSH2 0x1649 JUMPI PUSH1 0x0 DUP1 REVERT JUMPDEST PUSH1 0x0 PUSH1 0x20 DUP3 DUP5 SUB SLT ISZERO PUSH2 0x336F JUMPI PUSH1 0x0 DUP1 REVERT JUMPDEST DUP2 CALLDATALOAD PUSH2 0x243D DUP2 PUSH2 0x3348 JUMP JUMPDEST PUSH1 0x0 JUMPDEST DUP4 DUP2 LT ISZERO PUSH2 0x3395 JUMPI DUP2 DUP2 ADD MLOAD DUP4 DUP3 ADD MSTORE PUSH1 0x20 ADD PUSH2 0x337D JUMP JUMPDEST DUP4 DUP2 GT ISZERO PUSH2 0x33A4 JUMPI PUSH1 0x0 DUP5 DUP5 ADD MSTORE JUMPDEST POP POP POP POP JUMP JUMPDEST PUSH1 0x20 DUP2 MSTORE PUSH1 0x0 DUP3 MLOAD DUP1 PUSH1 0x20 DUP5 ADD MSTORE PUSH2 0x33C9 DUP2 PUSH1 0x40 DUP6 ADD PUSH1 0x20 DUP8 ADD PUSH2 0x337A JUMP JUMPDEST PUSH1 0x1F ADD PUSH1 0x1F NOT AND SWAP2 SWAP1 SWAP2 ADD PUSH1 0x40 ADD SWAP3 SWAP2 POP POP JUMP JUMPDEST PUSH1 0x0 PUSH1 0x20 DUP3 DUP5 SUB SLT ISZERO PUSH2 0x33EF JUMPI PUSH1 0x0 DUP1 REVERT JUMPDEST POP CALLDATALOAD SWAP2 SWAP1 POP JUMP JUMPDEST DUP1 ISZERO ISZERO DUP2 EQ PUSH2 0x1649 JUMPI PUSH1 0x0 DUP1 REVERT JUMPDEST PUSH1 0x0 PUSH1 0x20 DUP3 DUP5 SUB SLT ISZERO PUSH2 0x3416 JUMPI PUSH1 0x0 DUP1 REVERT JUMPDEST DUP2 CALLDATALOAD PUSH2 0x243D DUP2 PUSH2 0x33F6 JUMP JUMPDEST PUSH1 0x0 DUP1 PUSH1 0x20 DUP4 DUP6 SUB SLT ISZERO PUSH2 0x3434 JUMPI PUSH1 0x0 DUP1 REVERT JUMPDEST DUP3 CALLDATALOAD PUSH8 0xFFFFFFFFFFFFFFFF DUP1 DUP3 GT ISZERO PUSH2 0x344C JUMPI PUSH1 0x0 DUP1 REVERT JUMPDEST DUP2 DUP6 ADD SWAP2 POP DUP6 PUSH1 0x1F DUP4 ADD SLT PUSH2 0x3460 JUMPI PUSH1 0x0 DUP1 REVERT JUMPDEST DUP2 CALLDATALOAD DUP2 DUP2 GT ISZERO PUSH2 0x346F JUMPI PUSH1 0x0 DUP1 REVERT JUMPDEST DUP7 PUSH1 0x20 DUP3 DUP6 ADD ADD GT ISZERO PUSH2 0x3481 JUMPI PUSH1 0x0 DUP1 REVERT JUMPDEST PUSH1 0x20 SWAP3 SWAP1 SWAP3 ADD SWAP7 SWAP2 SWAP6 POP SWAP1 SWAP4 POP POP POP POP JUMP JUMPDEST PUSH1 0x20 DUP1 DUP3 MSTORE PUSH1 0xB SWAP1 DUP3 ADD MSTORE PUSH11 0x8585D5D1A1BDC9A5E9959 PUSH1 0xAA SHL PUSH1 0x40 DUP3 ADD MSTORE PUSH1 0x60 ADD SWAP1 JUMP JUMPDEST PUSH4 0x4E487B71 PUSH1 0xE0 SHL PUSH1 0x0 MSTORE PUSH1 0x32 PUSH1 0x4 MSTORE PUSH1 0x24 PUSH1 0x0 REVERT JUMPDEST PUSH4 0x4E487B71 PUSH1 0xE0 SHL PUSH1 0x0 MSTORE PUSH1 0x11 PUSH1 0x4 MSTORE PUSH1 0x24 PUSH1 0x0 REVERT JUMPDEST PUSH1 0x0 PUSH1 0x0 NOT DUP3 EQ ISZERO PUSH2 0x34F8 JUMPI PUSH2 0x34F8 PUSH2 0x34CE JUMP JUMPDEST POP PUSH1 0x1 ADD SWAP1 JUMP JUMPDEST PUSH1 0x0 PUSH1 0x20 DUP3 DUP5 SUB SLT ISZERO PUSH2 0x3511 JUMPI PUSH1 0x0 DUP1 REVERT JUMPDEST POP MLOAD SWAP2 SWAP1 POP JUMP JUMPDEST PUSH1 0x1 DUP2 DUP2 SHR SWAP1 DUP3 AND DUP1 PUSH2 0x352C JUMPI PUSH1 0x7F DUP3 AND SWAP2 POP JUMPDEST PUSH1 0x20 DUP3 LT DUP2 EQ ISZERO PUSH2 0xE34 JUMPI PUSH4 0x4E487B71 PUSH1 0xE0 SHL PUSH1 0x0 MSTORE PUSH1 0x22 PUSH1 0x4 MSTORE PUSH1 0x24 PUSH1 0x0 REVERT JUMPDEST PUSH4 0x4E487B71 PUSH1 0xE0 SHL PUSH1 0x0 MSTORE PUSH1 0x41 PUSH1 0x4 MSTORE PUSH1 0x24 PUSH1 0x0 REVERT JUMPDEST PUSH1 0x40 MLOAD PUSH2 0x120 DUP2 ADD PUSH8 0xFFFFFFFFFFFFFFFF DUP2 GT DUP3 DUP3 LT OR ISZERO PUSH2 0x3587 JUMPI PUSH2 0x3587 PUSH2 0x354D JUMP JUMPDEST PUSH1 0x40 MSTORE SWAP1 JUMP JUMPDEST PUSH1 0x0 PUSH1 0x20 DUP3 DUP5 SUB SLT ISZERO PUSH2 0x359F JUMPI PUSH1 0x0 DUP1 REVERT JUMPDEST DUP2 MLOAD PUSH8 0xFFFFFFFFFFFFFFFF DUP1 DUP3 GT ISZERO PUSH2 0x35B7 JUMPI PUSH1 0x0 DUP1 REVERT JUMPDEST DUP2 DUP5 ADD SWAP2 POP DUP5 PUSH1 0x1F DUP4 ADD SLT PUSH2 0x35CB JUMPI PUSH1 0x0 DUP1 REVERT JUMPDEST DUP2 MLOAD DUP2 DUP2 GT ISZERO PUSH2 0x35DD JUMPI PUSH2 0x35DD PUSH2 0x354D JUMP JUMPDEST PUSH1 0x40 MLOAD PUSH1 0x1F DUP3 ADD PUSH1 0x1F NOT SWAP1 DUP2 AND PUSH1 0x3F ADD AND DUP2 ADD SWAP1 DUP4 DUP3 GT DUP2 DUP4 LT OR ISZERO PUSH2 0x3605 JUMPI PUSH2 0x3605 PUSH2 0x354D JUMP JUMPDEST DUP2 PUSH1 0x40 MSTORE DUP3 DUP2 MSTORE DUP8 PUSH1 0x20 DUP5 DUP8 ADD ADD GT ISZERO PUSH2 0x361E JUMPI PUSH1 0x0 DUP1 REVERT JUMPDEST PUSH2 0x2F90 DUP4 PUSH1 0x20 DUP4 ADD PUSH1 0x20 DUP9 ADD PUSH2 0x337A JUMP JUMPDEST PUSH5 0x4375727665 PUSH1 0xD8 SHL DUP2 MSTORE PUSH1 0x0 DUP3 MLOAD PUSH2 0x364F DUP2 PUSH1 0x5 DUP6 ADD PUSH1 0x20 DUP8 ADD PUSH2 0x337A JUMP JUMPDEST PUSH10 0x566F74657250726F7879 PUSH1 0xB0 SHL PUSH1 0x5 SWAP4 SWAP1 SWAP2 ADD SWAP3 DUP4 ADD MSTORE POP PUSH1 0xF ADD SWAP2 SWAP1 POP JUMP JUMPDEST PUSH1 0x0 PUSH1 0x20 DUP3 DUP5 SUB SLT ISZERO PUSH2 0x3682 JUMPI PUSH1 0x0 DUP1 REVERT JUMPDEST DUP2 MLOAD PUSH2 0x243D DUP2 PUSH2 0x3348 JUMP JUMPDEST PUSH1 0x0 PUSH2 0x120 DUP3 DUP5 SUB SLT ISZERO PUSH2 0x36A0 JUMPI PUSH1 0x0 DUP1 REVERT JUMPDEST PUSH2 0x36A8 PUSH2 0x3563 JUMP JUMPDEST DUP3 MLOAD DUP2 MSTORE PUSH1 0x20 DUP4 ADD MLOAD PUSH1 0x20 DUP3 ADD MSTORE PUSH1 0x40 DUP4 ADD MLOAD PUSH1 0x40 DUP3 ADD MSTORE PUSH1 0x60 DUP4 ADD MLOAD PUSH1 0x60 DUP3 ADD MSTORE PUSH1 0x80 DUP4 ADD MLOAD PUSH1 0x80 DUP3 ADD MSTORE PUSH1 0xA0 DUP4 ADD MLOAD PUSH1 0xA0 DUP3 ADD MSTORE PUSH1 0xC0 DUP4 ADD MLOAD PUSH1 0xC0 DUP3 ADD MSTORE PUSH1 0xE0 DUP4 ADD MLOAD PUSH1 0xE0 DUP3 ADD MSTORE PUSH2 0x100 DUP1 DUP5 ADD MLOAD DUP2 DUP4 ADD MSTORE POP DUP1 SWAP2 POP POP SWAP3 SWAP2 POP POP JUMP JUMPDEST PUSH1 0x0 DUP3 DUP3 LT ISZERO PUSH2 0x371A JUMPI PUSH2 0x371A PUSH2 0x34CE JUMP JUMPDEST POP SUB SWAP1 JUMP JUMPDEST PUSH1 0x0 PUSH1 0x20 DUP3 DUP5 SUB SLT ISZERO PUSH2 0x3731 JUMPI PUSH1 0x0 DUP1 REVERT JUMPDEST DUP2 MLOAD PUSH2 0x243D DUP2 PUSH2 0x33F6 JUMP JUMPDEST PUSH1 0x20 DUP2 MSTORE DUP2 PUSH1 0x20 DUP3 ADD MSTORE DUP2 DUP4 PUSH1 0x40 DUP4 ADD CALLDATACOPY PUSH1 0x0 DUP2 DUP4 ADD PUSH1 0x40 SWAP1 DUP2 ADD SWAP2 SWAP1 SWAP2 MSTORE PUSH1 0x1F SWAP1 SWAP3 ADD PUSH1 0x1F NOT AND ADD ADD SWAP2 SWAP1 POP JUMP JUMPDEST PUSH1 0x0 DUP3 NOT DUP3 GT ISZERO PUSH2 0x377E JUMPI PUSH2 0x377E PUSH2 0x34CE JUMP JUMPDEST POP ADD SWAP1 JUMP JUMPDEST PUSH1 0x0 DUP2 PUSH1 0x0 NOT DIV DUP4 GT DUP3 ISZERO ISZERO AND ISZERO PUSH2 0x379D JUMPI PUSH2 0x379D PUSH2 0x34CE JUMP JUMPDEST POP MUL SWAP1 JUMP JUMPDEST PUSH1 0x0 PUSH1 0xA0 DUP3 ADD DUP8 DUP4 MSTORE PUSH1 0x20 DUP8 DUP2 DUP6 ADD MSTORE PUSH1 0xA0 PUSH1 0x40 DUP6 ADD MSTORE DUP2 DUP8 SLOAD DUP1 DUP5 MSTORE PUSH1 0xC0 DUP7 ADD SWAP2 POP DUP9 PUSH1 0x0 MSTORE DUP3 PUSH1 0x0 KECCAK256 SWAP4 POP PUSH1 0x0 JUMPDEST DUP2 DUP2 LT ISZERO PUSH2 0x37F7 JUMPI DUP5 SLOAD PUSH1 0x1 PUSH1 0x1 PUSH1 0xA0 SHL SUB AND DUP4 MSTORE PUSH1 0x1 SWAP5 DUP6 ADD SWAP5 SWAP3 DUP5 ADD SWAP3 ADD PUSH2 0x37D2 JUMP JUMPDEST POP POP PUSH1 0x1 PUSH1 0x1 PUSH1 0xA0 SHL SUB SWAP7 SWAP1 SWAP7 AND PUSH1 0x60 DUP6 ADD MSTORE POP POP POP PUSH1 0x80 ADD MSTORE SWAP4 SWAP3 POP POP POP JUMP JUMPDEST PUSH1 0x0 DUP3 MLOAD PUSH2 0x382A DUP2 DUP5 PUSH1 0x20 DUP8 ADD PUSH2 0x337A JUMP JUMPDEST SWAP2 SWAP1 SWAP2 ADD SWAP3 SWAP2 POP POP JUMP JUMPDEST PUSH1 0x80 DUP2 ADD DUP2 DUP5 PUSH1 0x0 JUMPDEST PUSH1 0x3 DUP2 LT ISZERO PUSH2 0x385C JUMPI DUP2 MLOAD DUP4 MSTORE PUSH1 0x20 SWAP3 DUP4 ADD SWAP3 SWAP1 SWAP2 ADD SWAP1 PUSH1 0x1 ADD PUSH2 0x383D JUMP JUMPDEST POP POP POP DUP3 PUSH1 0x60 DUP4 ADD MSTORE SWAP4 SWAP3 POP POP POP JUMP JUMPDEST PUSH1 0x0 DUP3 PUSH2 0x3889 JUMPI PUSH4 0x4E487B71 PUSH1 0xE0 SHL PUSH1 0x0 MSTORE PUSH1 0x12 PUSH1 0x4 MSTORE PUSH1 0x24 PUSH1 0x0 REVERT JUMPDEST POP DIV SWAP1 JUMP INVALID LOG2 PUSH5 0x6970667358 0x22 SLT KECCAK256 MULMOD 0xA9 JUMP POP JUMP 0x49 SWAP6 CHAINID 0xD6 0xDA MLOAD 0x49 PUSH29 0x4B6338B63A60A76DBA4D97399AFFF103E8FF5764736F6C634300080C00 CALLER ",
  "sha1": "dec39208a877b3e0a9da49e9bc9c210f19229d02",
  "source": "// SPDX-License-Identifier: AGPL-3.0\npragma solidity ^0.8.12;\n\nimport \"./CurveVoterProxy.sol\";\n\n// Part: Uni\n\ninterface Uni {\n    function swapExactTokensForTokens(\n        uint256,\n        uint256,\n        address[] calldata,\n        address,\n        uint256\n    ) external;\n}\n\n// Part: ICurveFi\n\ninterface ICurveFi {\n    function add_liquidity(\n        uint256[2] calldata amounts,\n        uint256 min_mint_amount,\n        bool _use_underlying\n    ) external payable returns (uint256);\n\n    function add_liquidity(\n        uint256[3] calldata amounts,\n        uint256 min_mint_amount,\n        bool _use_underlying\n    ) external payable returns (uint256);\n\n    function add_liquidity(\n        uint256[4] calldata amounts,\n        uint256 min_mint_amount,\n        bool _use_underlying\n    ) external payable returns (uint256);\n\n    function add_liquidity(\n        uint256[2] calldata amounts,\n        uint256 min_mint_amount\n    ) external payable;\n\n    function add_liquidity(\n        uint256[3] calldata amounts,\n        uint256 min_mint_amount\n    ) external payable;\n\n    function add_liquidity(\n        uint256[4] calldata amounts,\n        uint256 min_mint_amount\n    ) external payable;\n\n    // crv.finance: Curve.fi Factory USD Metapool v2\n    function add_liquidity(\n        address pool,\n        uint256[4] calldata amounts,\n        uint256 min_mint_amount\n    ) external;\n\n    function exchange(\n        int128 i,\n        int128 j,\n        uint256 dx,\n        uint256 min_dy\n    ) external;\n\n    function exchange_underlying(\n        int128 i,\n        int128 j,\n        uint256 dx,\n        uint256 min_dy\n    ) external;\n\n    function get_dy(\n        int128 i,\n        int128 j,\n        uint256 dx\n    ) external view returns (uint256);\n\n    function balances(int128) external view returns (uint256);\n\n    function get_virtual_price() external view returns (uint256);\n}\n\n\n// File: 3pool.sol\ncontract Strategy is CurveVoterProxy {\n    using SafeERC20 for IERC20;\n    using Address for address;\n    using SafeMath for uint256;\n\n    address[] public path;\n\n    constructor(address _vault) CurveVoterProxy(_vault) {\n        dex = sushiswap;\n        curve = address(0xbEbc44782C7dB0a1A60Cb6fe97d0b483032FF1C7);\n        gauge = address(0xbFcF63294aD7105dEa65aA58F8AE5BE2D9d0952A);\n        keepCRV = 1000;\n\n        path = new address[](3);\n        path[0] = crv;\n        path[1] = weth;\n        _setPath(0);\n    }\n\n    function _setPath(uint _id) internal {\n        if (_id == 0) path[2] = dai;\n        else if (_id == 1) path[2] = usdc;\n        else path[2] = usdt;\n    }\n\n    function setPath(uint _id) external onlyAuthorized {\n        _setPath(_id);\n    }\n\n    function prepareReturn(uint256 _debtOutstanding)\n        internal\n        override\n        returns (\n            uint256 _profit,\n            uint256 _loss,\n            uint256 _debtPayment\n        )\n    {\n        uint before = want.balanceOf(address(this));\n        IVoterProxy(proxy).harvest(gauge);\n        uint256 _crv = IERC20(crv).balanceOf(address(this));\n        if (_crv > 0) {\n            _crv = _adjustCRV(_crv);\n\n            IERC20(crv).safeApprove(dex, 0);\n            IERC20(crv).safeApprove(dex, _crv);\n\n            Uni(dex).swapExactTokensForTokens(_crv, uint256(0), path, address(this), block.timestamp);\n        }\n        uint256 _dai = IERC20(dai).balanceOf(address(this));\n        uint256 _usdc = IERC20(usdc).balanceOf(address(this));\n        uint256 _usdt = IERC20(usdt).balanceOf(address(this));\n        if (_dai > 0 || _usdc > 0 || _usdt > 0) {\n            _add_liquidity(_dai, _usdc, _usdt);\n        }\n        _profit = want.balanceOf(address(this)).sub(before);\n\n        uint _total = estimatedTotalAssets();\n        uint _debt = vault.strategies(address(this)).totalDebt;\n        if(_total < _debt) {\n            _loss = _debt - _total;\n            _profit = 0;\n        }\n\n        if (_debtOutstanding > 0) {\n            _withdrawSome(_debtOutstanding);\n            _debtPayment = Math.min(_debtOutstanding, balanceOfWant().sub(_profit));\n        }\n    }\n\n    function _add_liquidity(uint _dai, uint _usdc, uint _usdt) internal {\n        if (_dai > 0) {\n            IERC20(dai).safeApprove(curve, 0);\n            IERC20(dai).safeApprove(curve, _dai);\n        }\n        if (_usdc > 0) {\n            IERC20(usdc).safeApprove(curve, 0);\n            IERC20(usdc).safeApprove(curve, _usdc);\n        }\n        if (_usdt > 0) {\n            IERC20(usdt).safeApprove(curve, 0);\n            IERC20(usdt).safeApprove(curve, _usdt);\n        }\n        ICurveFi(curve).add_liquidity([_dai, _usdc, _usdt], 0);\n    }\n\n    // NOTE: Can override `tendTrigger` and `harvestTrigger` if necessary\n\n    function protectedTokens()\n        internal\n        view\n        override\n        returns (address[] memory)\n    {\n        address[] memory protected = new address[](1);\n        protected[0] = crv;\n        return protected;\n    }\n}",
  "sourcePath": "contracts/3pool.sol",
  "type": "contract"
}