{
  "abi": [
    {
      "inputs": [],
      "stateMutability": "nonpayable",
      "type": "constructor"
    },
    {
      "anonymous": false,
      "inputs": [
        {
          "indexed": true,
          "internalType": "address",
          "name": "owner",
          "type": "address"
        },
        {
          "indexed": true,
          "internalType": "address",
          "name": "spender",
          "type": "address"
        },
        {
          "indexed": false,
          "internalType": "uint256",
          "name": "amount",
          "type": "uint256"
        }
      ],
      "name": "Approval",
      "type": "event"
    },
    {
      "anonymous": false,
      "inputs": [
        {
          "indexed": true,
          "internalType": "address",
          "name": "delegator",
          "type": "address"
        },
        {
          "indexed": true,
          "internalType": "address",
          "name": "fromDelegate",
          "type": "address"
        },
        {
          "indexed": true,
          "internalType": "address",
          "name": "toDelegate",
          "type": "address"
        }
      ],
      "name": "DelegateChanged",
      "type": "event"
    },
    {
      "anonymous": false,
      "inputs": [
        {
          "indexed": true,
          "internalType": "address",
          "name": "delegate",
          "type": "address"
        },
        {
          "indexed": false,
          "internalType": "uint256",
          "name": "previousBalance",
          "type": "uint256"
        },
        {
          "indexed": false,
          "internalType": "uint256",
          "name": "newBalance",
          "type": "uint256"
        }
      ],
      "name": "DelegateVotesChanged",
      "type": "event"
    },
    {
      "anonymous": false,
      "inputs": [
        {
          "indexed": true,
          "internalType": "address",
          "name": "from",
          "type": "address"
        },
        {
          "indexed": true,
          "internalType": "address",
          "name": "to",
          "type": "address"
        },
        {
          "indexed": false,
          "internalType": "uint256",
          "name": "amount",
          "type": "uint256"
        }
      ],
      "name": "Transfer",
      "type": "event"
    },
    {
      "inputs": [],
      "name": "DELEGATION_TYPEHASH",
      "outputs": [
        {
          "internalType": "bytes32",
          "name": "",
          "type": "bytes32"
        }
      ],
      "stateMutability": "view",
      "type": "function"
    },
    {
      "inputs": [],
      "name": "DOMAINSEPARATOR",
      "outputs": [
        {
          "internalType": "bytes32",
          "name": "",
          "type": "bytes32"
        }
      ],
      "stateMutability": "view",
      "type": "function"
    },
    {
      "inputs": [],
      "name": "DOMAIN_TYPEHASH",
      "outputs": [
        {
          "internalType": "bytes32",
          "name": "",
          "type": "bytes32"
        }
      ],
      "stateMutability": "view",
      "type": "function"
    },
    {
      "inputs": [],
      "name": "LOCK",
      "outputs": [
        {
          "internalType": "address",
          "name": "",
          "type": "address"
        }
      ],
      "stateMutability": "view",
      "type": "function"
    },
    {
      "inputs": [],
      "name": "PERMIT_TYPEHASH",
      "outputs": [
        {
          "internalType": "bytes32",
          "name": "",
          "type": "bytes32"
        }
      ],
      "stateMutability": "view",
      "type": "function"
    },
    {
      "inputs": [],
      "name": "SDL",
      "outputs": [
        {
          "internalType": "contract IERC20",
          "name": "",
          "type": "address"
        }
      ],
      "stateMutability": "view",
      "type": "function"
    },
    {
      "inputs": [],
      "name": "acceptGovernance",
      "outputs": [],
      "stateMutability": "nonpayable",
      "type": "function"
    },
    {
      "inputs": [
        {
          "internalType": "address",
          "name": "account",
          "type": "address"
        },
        {
          "internalType": "address",
          "name": "spender",
          "type": "address"
        }
      ],
      "name": "allowance",
      "outputs": [
        {
          "internalType": "uint256",
          "name": "",
          "type": "uint256"
        }
      ],
      "stateMutability": "view",
      "type": "function"
    },
    {
      "inputs": [
        {
          "internalType": "address",
          "name": "spender",
          "type": "address"
        },
        {
          "internalType": "uint256",
          "name": "amount",
          "type": "uint256"
        }
      ],
      "name": "approve",
      "outputs": [
        {
          "internalType": "bool",
          "name": "",
          "type": "bool"
        }
      ],
      "stateMutability": "nonpayable",
      "type": "function"
    },
    {
      "inputs": [],
      "name": "bal",
      "outputs": [
        {
          "internalType": "uint256",
          "name": "",
          "type": "uint256"
        }
      ],
      "stateMutability": "view",
      "type": "function"
    },
    {
      "inputs": [
        {
          "internalType": "address",
          "name": "account",
          "type": "address"
        }
      ],
      "name": "balanceOf",
      "outputs": [
        {
          "internalType": "uint256",
          "name": "",
          "type": "uint256"
        }
      ],
      "stateMutability": "view",
      "type": "function"
    },
    {
      "inputs": [
        {
          "internalType": "address",
          "name": "",
          "type": "address"
        },
        {
          "internalType": "uint32",
          "name": "",
          "type": "uint32"
        }
      ],
      "name": "checkpoints",
      "outputs": [
        {
          "internalType": "uint32",
          "name": "fromBlock",
          "type": "uint32"
        },
        {
          "internalType": "uint256",
          "name": "votes",
          "type": "uint256"
        }
      ],
      "stateMutability": "view",
      "type": "function"
    },
    {
      "inputs": [],
      "name": "claim",
      "outputs": [],
      "stateMutability": "nonpayable",
      "type": "function"
    },
    {
      "inputs": [
        {
          "internalType": "address",
          "name": "recipient",
          "type": "address"
        }
      ],
      "name": "claimFor",
      "outputs": [],
      "stateMutability": "nonpayable",
      "type": "function"
    },
    {
      "inputs": [
        {
          "internalType": "address",
          "name": "",
          "type": "address"
        }
      ],
      "name": "claimable",
      "outputs": [
        {
          "internalType": "uint256",
          "name": "",
          "type": "uint256"
        }
      ],
      "stateMutability": "view",
      "type": "function"
    },
    {
      "inputs": [],
      "name": "decimals",
      "outputs": [
        {
          "internalType": "uint8",
          "name": "",
          "type": "uint8"
        }
      ],
      "stateMutability": "view",
      "type": "function"
    },
    {
      "inputs": [
        {
          "internalType": "address",
          "name": "delegatee",
          "type": "address"
        }
      ],
      "name": "delegate",
      "outputs": [],
      "stateMutability": "nonpayable",
      "type": "function"
    },
    {
      "inputs": [
        {
          "internalType": "address",
          "name": "delegatee",
          "type": "address"
        },
        {
          "internalType": "uint256",
          "name": "nonce",
          "type": "uint256"
        },
        {
          "internalType": "uint256",
          "name": "expiry",
          "type": "uint256"
        },
        {
          "internalType": "uint8",
          "name": "v",
          "type": "uint8"
        },
        {
          "internalType": "bytes32",
          "name": "r",
          "type": "bytes32"
        },
        {
          "internalType": "bytes32",
          "name": "s",
          "type": "bytes32"
        }
      ],
      "name": "delegateBySig",
      "outputs": [],
      "stateMutability": "nonpayable",
      "type": "function"
    },
    {
      "inputs": [
        {
          "internalType": "address",
          "name": "",
          "type": "address"
        }
      ],
      "name": "delegates",
      "outputs": [
        {
          "internalType": "address",
          "name": "",
          "type": "address"
        }
      ],
      "stateMutability": "view",
      "type": "function"
    },
    {
      "inputs": [
        {
          "internalType": "uint256",
          "name": "_amount",
          "type": "uint256"
        }
      ],
      "name": "deposit",
      "outputs": [],
      "stateMutability": "nonpayable",
      "type": "function"
    },
    {
      "inputs": [],
      "name": "depositAll",
      "outputs": [],
      "stateMutability": "nonpayable",
      "type": "function"
    },
    {
      "inputs": [],
      "name": "feeDistribution",
      "outputs": [
        {
          "internalType": "address",
          "name": "",
          "type": "address"
        }
      ],
      "stateMutability": "view",
      "type": "function"
    },
    {
      "inputs": [
        {
          "internalType": "address",
          "name": "account",
          "type": "address"
        }
      ],
      "name": "getCurrentVotes",
      "outputs": [
        {
          "internalType": "uint256",
          "name": "",
          "type": "uint256"
        }
      ],
      "stateMutability": "view",
      "type": "function"
    },
    {
      "inputs": [
        {
          "internalType": "address",
          "name": "account",
          "type": "address"
        },
        {
          "internalType": "uint256",
          "name": "blockNumber",
          "type": "uint256"
        }
      ],
      "name": "getPriorVotes",
      "outputs": [
        {
          "internalType": "uint256",
          "name": "",
          "type": "uint256"
        }
      ],
      "stateMutability": "view",
      "type": "function"
    },
    {
      "inputs": [],
      "name": "governance",
      "outputs": [
        {
          "internalType": "address",
          "name": "",
          "type": "address"
        }
      ],
      "stateMutability": "view",
      "type": "function"
    },
    {
      "inputs": [],
      "name": "index",
      "outputs": [
        {
          "internalType": "uint256",
          "name": "",
          "type": "uint256"
        }
      ],
      "stateMutability": "view",
      "type": "function"
    },
    {
      "inputs": [],
      "name": "name",
      "outputs": [
        {
          "internalType": "string",
          "name": "",
          "type": "string"
        }
      ],
      "stateMutability": "view",
      "type": "function"
    },
    {
      "inputs": [
        {
          "internalType": "address",
          "name": "",
          "type": "address"
        }
      ],
      "name": "nonces",
      "outputs": [
        {
          "internalType": "uint256",
          "name": "",
          "type": "uint256"
        }
      ],
      "stateMutability": "view",
      "type": "function"
    },
    {
      "inputs": [
        {
          "internalType": "address",
          "name": "",
          "type": "address"
        }
      ],
      "name": "numCheckpoints",
      "outputs": [
        {
          "internalType": "uint32",
          "name": "",
          "type": "uint32"
        }
      ],
      "stateMutability": "view",
      "type": "function"
    },
    {
      "inputs": [],
      "name": "pendingGovernance",
      "outputs": [
        {
          "internalType": "address",
          "name": "",
          "type": "address"
        }
      ],
      "stateMutability": "view",
      "type": "function"
    },
    {
      "inputs": [
        {
          "internalType": "address",
          "name": "owner",
          "type": "address"
        },
        {
          "internalType": "address",
          "name": "spender",
          "type": "address"
        },
        {
          "internalType": "uint256",
          "name": "amount",
          "type": "uint256"
        },
        {
          "internalType": "uint256",
          "name": "deadline",
          "type": "uint256"
        },
        {
          "internalType": "uint8",
          "name": "v",
          "type": "uint8"
        },
        {
          "internalType": "bytes32",
          "name": "r",
          "type": "bytes32"
        },
        {
          "internalType": "bytes32",
          "name": "s",
          "type": "bytes32"
        }
      ],
      "name": "permit",
      "outputs": [],
      "stateMutability": "nonpayable",
      "type": "function"
    },
    {
      "inputs": [],
      "name": "proxy",
      "outputs": [
        {
          "internalType": "address",
          "name": "",
          "type": "address"
        }
      ],
      "stateMutability": "view",
      "type": "function"
    },
    {
      "inputs": [],
      "name": "rewards",
      "outputs": [
        {
          "internalType": "contract IERC20",
          "name": "",
          "type": "address"
        }
      ],
      "stateMutability": "view",
      "type": "function"
    },
    {
      "inputs": [
        {
          "internalType": "address",
          "name": "_feeDistribution",
          "type": "address"
        }
      ],
      "name": "setFeeDistribution",
      "outputs": [],
      "stateMutability": "nonpayable",
      "type": "function"
    },
    {
      "inputs": [
        {
          "internalType": "address",
          "name": "_governance",
          "type": "address"
        }
      ],
      "name": "setGovernance",
      "outputs": [],
      "stateMutability": "nonpayable",
      "type": "function"
    },
    {
      "inputs": [
        {
          "internalType": "address",
          "name": "_proxy",
          "type": "address"
        }
      ],
      "name": "setProxy",
      "outputs": [],
      "stateMutability": "nonpayable",
      "type": "function"
    },
    {
      "inputs": [
        {
          "internalType": "address",
          "name": "",
          "type": "address"
        }
      ],
      "name": "supplyIndex",
      "outputs": [
        {
          "internalType": "uint256",
          "name": "",
          "type": "uint256"
        }
      ],
      "stateMutability": "view",
      "type": "function"
    },
    {
      "inputs": [],
      "name": "symbol",
      "outputs": [
        {
          "internalType": "string",
          "name": "",
          "type": "string"
        }
      ],
      "stateMutability": "view",
      "type": "function"
    },
    {
      "inputs": [],
      "name": "totalSupply",
      "outputs": [
        {
          "internalType": "uint256",
          "name": "",
          "type": "uint256"
        }
      ],
      "stateMutability": "view",
      "type": "function"
    },
    {
      "inputs": [
        {
          "internalType": "address",
          "name": "dst",
          "type": "address"
        },
        {
          "internalType": "uint256",
          "name": "amount",
          "type": "uint256"
        }
      ],
      "name": "transfer",
      "outputs": [
        {
          "internalType": "bool",
          "name": "",
          "type": "bool"
        }
      ],
      "stateMutability": "nonpayable",
      "type": "function"
    },
    {
      "inputs": [
        {
          "internalType": "address",
          "name": "src",
          "type": "address"
        },
        {
          "internalType": "address",
          "name": "dst",
          "type": "address"
        },
        {
          "internalType": "uint256",
          "name": "amount",
          "type": "uint256"
        }
      ],
      "name": "transferFrom",
      "outputs": [
        {
          "internalType": "bool",
          "name": "",
          "type": "bool"
        }
      ],
      "stateMutability": "nonpayable",
      "type": "function"
    },
    {
      "inputs": [],
      "name": "update",
      "outputs": [],
      "stateMutability": "nonpayable",
      "type": "function"
    },
    {
      "inputs": [
        {
          "internalType": "address",
          "name": "recipient",
          "type": "address"
        }
      ],
      "name": "updateFor",
      "outputs": [],
      "stateMutability": "nonpayable",
      "type": "function"
    }
  ],
  "bytecode": "60a06040526000808055600980546001600160a01b03191673882094c153d83da48df9660e7470a478199f1bd5179055600b819055600c5534801561004357600080fd5b50600780546001600160a01b031916331790556040805180820190915260118152701d9954d1130b511053c81859d5985d5b1d607a1b6020909101527f797cfab58fcb15f590eb8e4252d5c228ff88f94f907e119e80c4393a946e8f357f9c76c54cfcb03df9c9968028812e25597bc7ba9d191424f98098bfd5188c04876100c84690565b604080516020810194909452830191909152606082015230608082015260a00160408051601f19818403018152919052805160209091012060805260805161220061012c600039600081816102f101528181610e7401526110e601526122006000f3fe608060405234801561001057600080fd5b50600436106102695760003560e01c806370a0823111610151578063b6b55f25116100c3578063de5f626811610087578063de5f62681461065f578063e380fcad14610667578063e7a324dc14610687578063ec556889146106ae578063f1127ed8146106c1578063f39c38a01461071857600080fd5b8063b6b55f25146105da578063c3cda520146105ed578063d505accf14610600578063dd62ed3e14610613578063ddeae0331461064c57600080fd5b80639ec5a894116101155780639ec5a89414610563578063a2e620451461057e578063a4f0d7d014610586578063a9059cbb146105a1578063ab033ea9146105b4578063b4b5ea57146105c757600080fd5b806370a08231146104ca578063782d6fe1146104f35780637ecebe001461050657806395d89b411461052657806397107d6d1461055057600080fd5b80632986c0e5116101ea5780634e71d92d116101ae5780634e71d92d1461041d578063587cde1e146104255780635aa6e6751461044e5780635c19a95c1461046157806360b5e8ca146104745780636fcfff451461048f57600080fd5b80632986c0e5146103aa57806330adf81f146103b3578063313ce567146103da5780633d79d1c8146103f4578063402914f5146103fd57600080fd5b80631919db33116102315780631919db331461032a57806320606b701461033d578063238efcbc1461036457806323b872dd1461036c5780632479b1771461037f57600080fd5b806306fdde031461026e578063095ea7b3146102b45780630e0a5968146102d75780631778e29c146102ec57806318160ddd14610321575b600080fd5b61029e604051806040016040528060118152602001701d9954d1130b511053c81859d5985d5b1d607a1b81525081565b6040516102ab9190611de8565b60405180910390f35b6102c76102c2366004611e59565b61072b565b60405190151581526020016102ab565b6102ea6102e5366004611e83565b610798565b005b6103137f000000000000000000000000000000000000000000000000000000000000000081565b6040519081526020016102ab565b61031360005481565b6102ea610338366004611e83565b6108b3565b6103137f797cfab58fcb15f590eb8e4252d5c228ff88f94f907e119e80c4393a946e8f3581565b6102ea610908565b6102c761037a366004611e9e565b610986565b600a54610392906001600160a01b031681565b6040516001600160a01b0390911681526020016102ab565b610313600b5481565b6103137f5fae9ec55a1e547936e0e74d606b44cd5f912f9adcd0bba561fea62d570259e981565b6103e2601281565b60405160ff90911681526020016102ab565b610313600c5481565b61031361040b366004611e83565b600e6020526000908152604090205481565b6102ea610a6b565b610392610433366004611e83565b6001602052600090815260409020546001600160a01b031681565b600754610392906001600160a01b031681565b6102ea61046f366004611e83565b610a76565b61039273f1dc500fde233a4055e25e5bbf516372bc4f687181565b6104b561049d366004611e83565b60036020526000908152604090205463ffffffff1681565b60405163ffffffff90911681526020016102ab565b6103136104d8366004611e83565b6001600160a01b031660009081526005602052604090205490565b610313610501366004611e59565b610a83565b610313610514366004611e83565b60066020526000908152604090205481565b61029e6040518060400160405280600b81526020016a6167766553444c2d44414f60a81b81525081565b6102ea61055e366004611e83565b610cc9565b610392730c6f06b32e6ae0c110861b8607e67da59478196181565b6102ea610d15565b610392730d8ab4cb61bcaa6cd506d10e7c572c418cc0d0d481565b6102c76105af366004611e59565b610d1d565b6102ea6105c2366004611e83565b610d33565b6103136105d5366004611e83565b610d7f565b6102ea6105e8366004611eda565b610df4565b6102ea6105fb366004611f04565b610dfd565b6102ea61060e366004611f5c565b611035565b610313610621366004611fc6565b6001600160a01b03918216600090815260046020908152604080832093909416825291909152205490565b6102ea61065a366004611e83565b6112dd565b6102ea6112e6565b610313610675366004611e83565b600d6020526000908152604090205481565b6103137f1ac861a6a8532f3704e1768564a53a32774f00d6cf20ccbbdf60ab61378302bc81565b600954610392906001600160a01b031681565b6106fc6106cf366004611ff9565b60026020908152600092835260408084209091529082529020805460019091015463ffffffff9091169082565b6040805163ffffffff90931683526020830191909152016102ab565b600854610392906001600160a01b031681565b3360008181526004602090815260408083206001600160a01b038716808552925280832085905551919290917f8c5be1e5ebec7d5bd14f71427d1e84f3dd0314c0f7b2291e5b200ac8c7c3b925906107869086815260200190565b60405180910390a35060015b92915050565b6107a0611362565b6001600160a01b0381166000908152600560205260409020548015610892576001600160a01b0382166000908152600d602090815260408083208054600b54918290558251808401909352601d83527f766553444c3a3a5f636c61696d466f723a20696e6465782064656c746100000093830193909352919291610825918490611487565b9050801561088c57600061084b670de0b6b3a764000061084586856114b3565b906114bf565b6001600160a01b0386166000908152600e602052604090205490915061087190826114cb565b6001600160a01b0386166000908152600e6020526040902055505b50505050565b600b546001600160a01b0383166000908152600d60205260409020555b5050565b6007546001600160a01b031633146108e65760405162461bcd60e51b81526004016108dd90612039565b60405180910390fd5b600a80546001600160a01b0319166001600160a01b0392909216919091179055565b6008546001600160a01b031633146109625760405162461bcd60e51b815260206004820152601d60248201527f616363657074476f7665726e616e63653a202170656e64696e67476f7600000060448201526064016108dd565b600854600780546001600160a01b0319166001600160a01b03909216919091179055565b6001600160a01b038316600081815260046020908152604080832033808552925282205491929091906000199083148015906109c25750808214155b15610a535760006109ee866040518060600160405280602781526020016121a460279139859190611487565b6001600160a01b038981166000818152600460209081526040808320948a16808452948252918290208590559051848152939450919290917f8c5be1e5ebec7d5bd14f71427d1e84f3dd0314c0f7b2291e5b200ac8c7c3b925910160405180910390a3505b610a5e8787876114d7565b5060019695505050505050565b610a743361167c565b565b610a8033826117b0565b50565b6000438210610ac55760405162461bcd60e51b815260206004820152600e60248201526d33b2ba283934b7b92b37ba32b99d60911b60448201526064016108dd565b6001600160a01b03831660009081526003602052604090205463ffffffff1680610af3576000915050610792565b6001600160a01b03841660009081526002602052604081208491610b1860018561207c565b63ffffffff90811682526020820192909252604001600020541611610b81576001600160a01b038416600090815260026020526040812090610b5b60018461207c565b63ffffffff1663ffffffff16815260200190815260200160002060010154915050610792565b6001600160a01b038416600090815260026020908152604080832083805290915290205463ffffffff16831015610bbc576000915050610792565b600080610bca60018461207c565b90505b8163ffffffff168163ffffffff161115610c925760006002610bef848461207c565b610bf991906120b7565b610c03908361207c565b6001600160a01b038816600090815260026020908152604080832063ffffffff8086168552908352928190208151808301909252805490931680825260019093015491810191909152919250871415610c66576020015194506107929350505050565b805163ffffffff16871115610c7d57819350610c8b565b610c8860018361207c565b92505b5050610bcd565b506001600160a01b038516600090815260026020908152604080832063ffffffff9094168352929052206001015491505092915050565b6007546001600160a01b03163314610cf35760405162461bcd60e51b81526004016108dd90612039565b600980546001600160a01b0319166001600160a01b0392909216919091179055565b610a74611362565b6000610d2a3384846114d7565b50600192915050565b6007546001600160a01b03163314610d5d5760405162461bcd60e51b81526004016108dd90612039565b600880546001600160a01b0319166001600160a01b0392909216919091179055565b6001600160a01b03811660009081526003602052604081205463ffffffff1680610daa576000610ded565b6001600160a01b038316600090815260026020526040812090610dce60018461207c565b63ffffffff1663ffffffff168152602001908152602001600020600101545b9392505050565b610a808161182a565b604080517f1ac861a6a8532f3704e1768564a53a32774f00d6cf20ccbbdf60ab61378302bc60208201526001600160a01b03881691810191909152606081018690526080810185905260009060a00160408051601f1981840301815290829052805160209182012061190160f01b918301919091527f0000000000000000000000000000000000000000000000000000000000000000602283015260428201819052915060009060620160408051601f198184030181528282528051602091820120600080855291840180845281905260ff89169284019290925260608301879052608083018690529092509060019060a0016020604051602081039080840390855afa158015610f12573d6000803e3d6000fd5b5050604051601f1901519150506001600160a01b038116610f6a5760405162461bcd60e51b815260206004820152601260248201527164656c656761746542795369673a2073696760701b60448201526064016108dd565b6001600160a01b0381166000908152600660205260408120805491610f8e836120da565b919050558814610fd75760405162461bcd60e51b815260206004820152601460248201527364656c656761746542795369673a206e6f6e636560601b60448201526064016108dd565b864211156110205760405162461bcd60e51b815260206004820152601660248201527519195b1959d85d19509e54da59ce88195e1c1a5c995960521b60448201526064016108dd565b61102a818a6117b0565b505050505050505050565b6001600160a01b038716600090815260066020526040812080547f5fae9ec55a1e547936e0e74d606b44cd5f912f9adcd0bba561fea62d570259e9918a918a918a919086611082836120da565b909155506040805160208101969096526001600160a01b0394851690860152929091166060840152608083015260a082015260c0810186905260e00160408051601f1981840301815290829052805160209182012061190160f01b918301919091527f0000000000000000000000000000000000000000000000000000000000000000602283015260428201819052915060009060620160408051601f198184030181528282528051602091820120600080855291840180845281905260ff89169284019290925260608301879052608083018690529092509060019060a0016020604051602081039080840390855afa158015611184573d6000803e3d6000fd5b5050604051601f1901519150506001600160a01b0381166111db5760405162461bcd60e51b81526020600482015260116024820152707065726d69743a207369676e617475726560781b60448201526064016108dd565b896001600160a01b0316816001600160a01b0316146112335760405162461bcd60e51b81526020600482015260146024820152731c195c9b5a5d0e881d5b985d5d1a1bdc9a5e995960621b60448201526064016108dd565b864211156112755760405162461bcd60e51b815260206004820152600f60248201526e1c195c9b5a5d0e88195e1c1a5c9959608a1b60448201526064016108dd565b6001600160a01b038a81166000818152600460209081526040808320948e16808452948252918290208c905590518b81527f8c5be1e5ebec7d5bd14f71427d1e84f3dd0314c0f7b2291e5b200ac8c7c3b925910160405180910390a350505050505050505050565b610a808161167c565b6040516370a0823160e01b8152336004820152610a749073f1dc500fde233a4055e25e5bbf516372bc4f6871906370a0823190602401602060405180830381865afa158015611339573d6000803e3d6000fd5b505050506040513d601f19601f8201168201806040525081019061135d91906120f5565b61182a565b60005415610a7457611372611936565b6040516370a0823160e01b8152306004820152600090730c6f06b32e6ae0c110861b8607e67da594781961906370a0823190602401602060405180830381865afa1580156113c4573d6000803e3d6000fd5b505050506040513d601f19601f820116820180604052508101906113e891906120f5565b9050600c54811115610a80576000611442600c546040518060400160405280601981526020017f766553444c3a3a5f7570646174653a2062616c205f6469666600000000000000815250846114879092919063ffffffff16565b905080156108af57600080546114649061084584670de0b6b3a76400006114b3565b9050801561148257600b5461147990826114cb565b600b55600c8390555b505050565b600081848411156114ab5760405162461bcd60e51b81526004016108dd9190611de8565b505050900390565b6000610ded828461210e565b6000610ded828461212d565b6000610ded8284612141565b6001600160a01b03831661152d5760405162461bcd60e51b815260206004820152601d60248201527f5f7472616e73666572546f6b656e733a207a65726f206164647265737300000060448201526064016108dd565b6001600160a01b0382166115835760405162461bcd60e51b815260206004820152601d60248201527f5f7472616e73666572546f6b656e733a207a65726f206164647265737300000060448201526064016108dd565b61158c83610798565b61159582610798565b60408051808201825260208082527f5f7472616e73666572546f6b656e733a20657863656564732062616c616e6365818301526001600160a01b0386166000908152600590915291909120546115ec918390611487565b6001600160a01b03808516600090815260056020526040808220939093559084168152205461161b90826114cb565b6001600160a01b0380841660008181526005602052604090819020939093559151908516907fddf252ad1be2c89b69c2b068fc378daa952ba7f163c4a11628f55a4df523b3ef9061166f9085815260200190565b60405180910390a3505050565b61168581610798565b6001600160a01b0381166000818152600e60205260409081902054905163a9059cbb60e01b815260048101929092526024820152730c6f06b32e6ae0c110861b8607e67da5947819619063a9059cbb906044016020604051808303816000875af11580156116f7573d6000803e3d6000fd5b505050506040513d601f19601f8201168201806040525081019061171b9190612159565b506001600160a01b0381166000908152600e602052604080822091909155516370a0823160e01b8152306004820152730c6f06b32e6ae0c110861b8607e67da594781961906370a0823190602401602060405180830381865afa158015611786573d6000803e3d6000fd5b505050506040513d601f19601f820116820180604052508101906117aa91906120f5565b600c5550565b6001600160a01b03808316600081815260016020818152604080842080546005845282862054949093528787166001600160a01b03198416811790915590519190951694919391928592917f3134e8a2e6d97e929a7e54011ea5485d7d196dd5f0ba4d4ef95803e8e3fc257f9190a461088c8284836119a0565b6040516323b872dd60e01b8152336004820152730d8ab4cb61bcaa6cd506d10e7c572c418cc0d0d460248201526044810182905273f1dc500fde233a4055e25e5bbf516372bc4f6871906323b872dd906064016020604051808303816000875af115801561189c573d6000803e3d6000fd5b505050506040513d601f19601f820116820180604052508101906118c09190612159565b506118cb3382611b40565b600960009054906101000a90046001600160a01b03166001600160a01b031663f83d08ba6040518163ffffffff1660e01b8152600401600060405180830381600087803b15801561191b57600080fd5b505af115801561192f573d6000803e3d6000fd5b5050505050565b600a546001600160a01b031615610a7457600a54604051630f41a04d60e11b81523060048201526001600160a01b0390911690631e83409a90602401600060405180830381600087803b15801561198c57600080fd5b505af115801561088c573d6000803e3d6000fd5b816001600160a01b0316836001600160a01b0316141580156119c25750600081115b15611482576001600160a01b03831615611a9e576001600160a01b03831660009081526003602052604081205463ffffffff169081611a02576000611a45565b6001600160a01b038516600090815260026020526040812090611a2660018561207c565b63ffffffff1663ffffffff168152602001908152602001600020600101545b90506000611a8c84604051806040016040528060168152602001755f6d6f7665566f7465733a20756e646572666c6f777360501b815250846114879092919063ffffffff16565b9050611a9a86848484611bf9565b5050505b6001600160a01b03821615611482576001600160a01b03821660009081526003602052604081205463ffffffff169081611ad9576000611b1c565b6001600160a01b038416600090815260026020526040812090611afd60018561207c565b63ffffffff1663ffffffff168152602001908152602001600020600101545b90506000611b2a82856114cb565b9050611b3885848484611bf9565b505050505050565b611b4982610798565b600054611b5690826114cb565b60009081556001600160a01b038316815260056020526040902054611b7b90826114cb565b6001600160a01b0383166000818152600560205260408082209390935591519091907fddf252ad1be2c89b69c2b068fc378daa952ba7f163c4a11628f55a4df523b3ef90611bcc9085815260200190565b60405180910390a36001600160a01b038083166000908152600160205260408120546108af9216836119a0565b6000611c3a436040518060400160405280601981526020017f5f7772697465436865636b706f696e743a203332206269747300000000000000815250611db8565b905060008463ffffffff16118015611c9457506001600160a01b038516600090815260026020526040812063ffffffff831691611c7860018861207c565b63ffffffff908116825260208201929092526040016000205416145b15611cdd576001600160a01b03851660009081526002602052604081208391611cbe60018861207c565b63ffffffff168152602081019190915260400160002060010155611d6d565b60408051808201825263ffffffff838116825260208083018681526001600160a01b038a166000908152600283528581208a851682529092529390209151825463ffffffff191691161781559051600191820155611d3c90859061217b565b6001600160a01b0386166000908152600360205260409020805463ffffffff191663ffffffff929092169190911790555b60408051848152602081018490526001600160a01b038716917fdec2bacdd2f05b59de34da9b523dff8be42e5e38e818c82fdb0bae774387a724910160405180910390a25050505050565b6000816401000000008410611de05760405162461bcd60e51b81526004016108dd9190611de8565b509192915050565b600060208083528351808285015260005b81811015611e1557858101830151858201604001528201611df9565b81811115611e27576000604083870101525b50601f01601f1916929092016040019392505050565b80356001600160a01b0381168114611e5457600080fd5b919050565b60008060408385031215611e6c57600080fd5b611e7583611e3d565b946020939093013593505050565b600060208284031215611e9557600080fd5b610ded82611e3d565b600080600060608486031215611eb357600080fd5b611ebc84611e3d565b9250611eca60208501611e3d565b9150604084013590509250925092565b600060208284031215611eec57600080fd5b5035919050565b803560ff81168114611e5457600080fd5b60008060008060008060c08789031215611f1d57600080fd5b611f2687611e3d565b95506020870135945060408701359350611f4260608801611ef3565b92506080870135915060a087013590509295509295509295565b600080600080600080600060e0888a031215611f7757600080fd5b611f8088611e3d565b9650611f8e60208901611e3d565b95506040880135945060608801359350611faa60808901611ef3565b925060a0880135915060c0880135905092959891949750929550565b60008060408385031215611fd957600080fd5b611fe283611e3d565b9150611ff060208401611e3d565b90509250929050565b6000806040838503121561200c57600080fd5b61201583611e3d565b9150602083013563ffffffff8116811461202e57600080fd5b809150509250929050565b60208082526013908201527239b2ba23b7bb32b93730b731b29d1010b3b7bb60691b604082015260600190565b634e487b7160e01b600052601160045260246000fd5b600063ffffffff8381169083168181101561209957612099612066565b039392505050565b634e487b7160e01b600052601260045260246000fd5b600063ffffffff808416806120ce576120ce6120a1565b92169190910492915050565b60006000198214156120ee576120ee612066565b5060010190565b60006020828403121561210757600080fd5b5051919050565b600081600019048311821515161561212857612128612066565b500290565b60008261213c5761213c6120a1565b500490565b6000821982111561215457612154612066565b500190565b60006020828403121561216b57600080fd5b81518015158114610ded57600080fd5b600063ffffffff80831681851680830382111561219a5761219a612066565b0194935050505056fe7472616e7366657246726f6d3a2065786365656473207370656e64657220616c6c6f77616e6365a264697066735822122024a28db2b77f1e284830185869bfd59dcef9bf9157e4d13f8359fd479f725cc764736f6c634300080c0033",
  "bytecodeSha1": "9c4c3966a8ad1538a250184456f92a2a19b4ecca",
  "compiler": {
    "evm_version": "istanbul",
    "optimizer": {
      "enabled": true,
      "runs": 200
    },
    "version": "0.8.12+commit.f00d7308"
  },
  "contractName": "veSaddleVault",
  "language": "Solidity",
  "natspec": {
    "kind": "dev",
    "methods": {
      "DELEGATION_TYPEHASH()": {
        "notice": "The EIP-712 typehash for the delegation struct used by the contract"
      },
      "DOMAIN_TYPEHASH()": {
        "notice": "The EIP-712 typehash for the contract's domain"
      },
      "PERMIT_TYPEHASH()": {
        "notice": "The EIP-712 typehash for the permit struct used by the contract"
      },
      "acceptGovernance()": {
        "notice": "Allows pendingGovernance to accept their role as governance (protection pattern)"
      },
      "allowance(address,address)": {
        "notice": "Get the number of tokens `spender` is approved to spend on behalf of `account`",
        "params": {
          "account": "The address of the account holding the funds",
          "spender": "The address of the account spending the funds"
        },
        "returns": {
          "_0": "The number of tokens approved"
        }
      },
      "approve(address,uint256)": {
        "details": "This will overwrite the approval amount for `spender`  and is subject to issues noted [here](https://eips.ethereum.org/EIPS/eip-20#approve)",
        "notice": "Approve `spender` to transfer up to `amount` from `src`",
        "params": {
          "amount": "The number of tokens that are approved (2^256-1 means infinite)",
          "spender": "The address of the account which may transfer tokens"
        },
        "returns": {
          "_0": "Whether or not the approval succeeded"
        }
      },
      "balanceOf(address)": {
        "notice": "Get the number of tokens held by the `account`",
        "params": {
          "account": "The address of the account to get the balance of"
        },
        "returns": {
          "_0": "The number of tokens held"
        }
      },
      "checkpoints(address,uint32)": {
        "notice": "A record of votes checkpoints for each account, by index"
      },
      "decimals()": {
        "notice": "EIP-20 token decimals for this token"
      },
      "delegate(address)": {
        "notice": "Delegate votes from `msg.sender` to `delegatee`",
        "params": {
          "delegatee": "The address to delegate votes to"
        }
      },
      "delegateBySig(address,uint256,uint256,uint8,bytes32,bytes32)": {
        "notice": "Delegates votes from signatory to `delegatee`",
        "params": {
          "delegatee": "The address to delegate votes to",
          "expiry": "The time at which to expire the signature",
          "nonce": "The contract state required to match the signature",
          "r": "Half of the ECDSA signature pair",
          "s": "Half of the ECDSA signature pair",
          "v": "The recovery byte of the signature"
        }
      },
      "delegates(address)": {
        "notice": "A record of each accounts delegate"
      },
      "getCurrentVotes(address)": {
        "notice": "Gets the current votes balance for `account`",
        "params": {
          "account": "The address to get votes balance"
        },
        "returns": {
          "_0": "The number of current votes for `account`"
        }
      },
      "getPriorVotes(address,uint256)": {
        "details": "Block number must be a finalized block or else this function will revert to prevent misinformation.",
        "notice": "Determine the prior number of votes for an account as of a block number",
        "params": {
          "account": "The address of the account to check",
          "blockNumber": "The block number to get the vote balance at"
        },
        "returns": {
          "_0": "The number of votes the account had as of the given block"
        }
      },
      "governance()": {
        "notice": "governance address for the governance contract"
      },
      "name()": {
        "notice": "EIP-20 token name for this token"
      },
      "nonces(address)": {
        "notice": "A record of states for signing / validating signatures"
      },
      "numCheckpoints(address)": {
        "notice": "The number of checkpoints for each account"
      },
      "permit(address,address,uint256,uint256,uint8,bytes32,bytes32)": {
        "notice": "Triggers an approval from owner to spends",
        "params": {
          "amount": "The number of tokens that are approved (2^256-1 means infinite)",
          "deadline": "The time at which to expire the signature",
          "owner": "The address to approve from",
          "r": "Half of the ECDSA signature pair",
          "s": "Half of the ECDSA signature pair",
          "spender": "The address to be approved",
          "v": "The recovery byte of the signature"
        }
      },
      "setGovernance(address)": {
        "notice": "Allows governance to change governance (for future upgradability)",
        "params": {
          "_governance": "new governance address to set"
        }
      },
      "symbol()": {
        "notice": "EIP-20 token symbol for this token"
      },
      "totalSupply()": {
        "notice": "Total number of tokens in circulation"
      },
      "transfer(address,uint256)": {
        "notice": "Transfer `amount` tokens from `msg.sender` to `dst`",
        "params": {
          "amount": "The number of tokens to transfer",
          "dst": "The address of the destination account"
        },
        "returns": {
          "_0": "Whether or not the transfer succeeded"
        }
      },
      "transferFrom(address,address,uint256)": {
        "notice": "Transfer `amount` tokens from `src` to `dst`",
        "params": {
          "amount": "The number of tokens to transfer",
          "dst": "The address of the destination account",
          "src": "The address of the source account"
        },
        "returns": {
          "_0": "Whether or not the transfer succeeded"
        }
      }
    },
    "version": 1
  },
  "opcodes": "PUSH1 0x80 PUSH1 0x40 MSTORE CALLVALUE DUP1 ISZERO PUSH2 0x10 JUMPI PUSH1 0x0 DUP1 REVERT JUMPDEST POP PUSH1 0x4 CALLDATASIZE LT PUSH2 0x269 JUMPI PUSH1 0x0 CALLDATALOAD PUSH1 0xE0 SHR DUP1 PUSH4 0x70A08231 GT PUSH2 0x151 JUMPI DUP1 PUSH4 0xB6B55F25 GT PUSH2 0xC3 JUMPI DUP1 PUSH4 0xDE5F6268 GT PUSH2 0x87 JUMPI DUP1 PUSH4 0xDE5F6268 EQ PUSH2 0x65F JUMPI DUP1 PUSH4 0xE380FCAD EQ PUSH2 0x667 JUMPI DUP1 PUSH4 0xE7A324DC EQ PUSH2 0x687 JUMPI DUP1 PUSH4 0xEC556889 EQ PUSH2 0x6AE JUMPI DUP1 PUSH4 0xF1127ED8 EQ PUSH2 0x6C1 JUMPI DUP1 PUSH4 0xF39C38A0 EQ PUSH2 0x718 JUMPI PUSH1 0x0 DUP1 REVERT JUMPDEST DUP1 PUSH4 0xB6B55F25 EQ PUSH2 0x5DA JUMPI DUP1 PUSH4 0xC3CDA520 EQ PUSH2 0x5ED JUMPI DUP1 PUSH4 0xD505ACCF EQ PUSH2 0x600 JUMPI DUP1 PUSH4 0xDD62ED3E EQ PUSH2 0x613 JUMPI DUP1 PUSH4 0xDDEAE033 EQ PUSH2 0x64C JUMPI PUSH1 0x0 DUP1 REVERT JUMPDEST DUP1 PUSH4 0x9EC5A894 GT PUSH2 0x115 JUMPI DUP1 PUSH4 0x9EC5A894 EQ PUSH2 0x563 JUMPI DUP1 PUSH4 0xA2E62045 EQ PUSH2 0x57E JUMPI DUP1 PUSH4 0xA4F0D7D0 EQ PUSH2 0x586 JUMPI DUP1 PUSH4 0xA9059CBB EQ PUSH2 0x5A1 JUMPI DUP1 PUSH4 0xAB033EA9 EQ PUSH2 0x5B4 JUMPI DUP1 PUSH4 0xB4B5EA57 EQ PUSH2 0x5C7 JUMPI PUSH1 0x0 DUP1 REVERT JUMPDEST DUP1 PUSH4 0x70A08231 EQ PUSH2 0x4CA JUMPI DUP1 PUSH4 0x782D6FE1 EQ PUSH2 0x4F3 JUMPI DUP1 PUSH4 0x7ECEBE00 EQ PUSH2 0x506 JUMPI DUP1 PUSH4 0x95D89B41 EQ PUSH2 0x526 JUMPI DUP1 PUSH4 0x97107D6D EQ PUSH2 0x550 JUMPI PUSH1 0x0 DUP1 REVERT JUMPDEST DUP1 PUSH4 0x2986C0E5 GT PUSH2 0x1EA JUMPI DUP1 PUSH4 0x4E71D92D GT PUSH2 0x1AE JUMPI DUP1 PUSH4 0x4E71D92D EQ PUSH2 0x41D JUMPI DUP1 PUSH4 0x587CDE1E EQ PUSH2 0x425 JUMPI DUP1 PUSH4 0x5AA6E675 EQ PUSH2 0x44E JUMPI DUP1 PUSH4 0x5C19A95C EQ PUSH2 0x461 JUMPI DUP1 PUSH4 0x60B5E8CA EQ PUSH2 0x474 JUMPI DUP1 PUSH4 0x6FCFFF45 EQ PUSH2 0x48F JUMPI PUSH1 0x0 DUP1 REVERT JUMPDEST DUP1 PUSH4 0x2986C0E5 EQ PUSH2 0x3AA JUMPI DUP1 PUSH4 0x30ADF81F EQ PUSH2 0x3B3 JUMPI DUP1 PUSH4 0x313CE567 EQ PUSH2 0x3DA JUMPI DUP1 PUSH4 0x3D79D1C8 EQ PUSH2 0x3F4 JUMPI DUP1 PUSH4 0x402914F5 EQ PUSH2 0x3FD JUMPI PUSH1 0x0 DUP1 REVERT JUMPDEST DUP1 PUSH4 0x1919DB33 GT PUSH2 0x231 JUMPI DUP1 PUSH4 0x1919DB33 EQ PUSH2 0x32A JUMPI DUP1 PUSH4 0x20606B70 EQ PUSH2 0x33D JUMPI DUP1 PUSH4 0x238EFCBC EQ PUSH2 0x364 JUMPI DUP1 PUSH4 0x23B872DD EQ PUSH2 0x36C JUMPI DUP1 PUSH4 0x2479B177 EQ PUSH2 0x37F JUMPI PUSH1 0x0 DUP1 REVERT JUMPDEST DUP1 PUSH4 0x6FDDE03 EQ PUSH2 0x26E JUMPI DUP1 PUSH4 0x95EA7B3 EQ PUSH2 0x2B4 JUMPI DUP1 PUSH4 0xE0A5968 EQ PUSH2 0x2D7 JUMPI DUP1 PUSH4 0x1778E29C EQ PUSH2 0x2EC JUMPI DUP1 PUSH4 0x18160DDD EQ PUSH2 0x321 JUMPI JUMPDEST PUSH1 0x0 DUP1 REVERT JUMPDEST PUSH2 0x29E PUSH1 0x40 MLOAD DUP1 PUSH1 0x40 ADD PUSH1 0x40 MSTORE DUP1 PUSH1 0x11 DUP2 MSTORE PUSH1 0x20 ADD PUSH17 0x1D9954D1130B511053C81859D5985D5B1D PUSH1 0x7A SHL DUP2 MSTORE POP DUP2 JUMP JUMPDEST PUSH1 0x40 MLOAD PUSH2 0x2AB SWAP2 SWAP1 PUSH2 0x1DE8 JUMP JUMPDEST PUSH1 0x40 MLOAD DUP1 SWAP2 SUB SWAP1 RETURN JUMPDEST PUSH2 0x2C7 PUSH2 0x2C2 CALLDATASIZE PUSH1 0x4 PUSH2 0x1E59 JUMP JUMPDEST PUSH2 0x72B JUMP JUMPDEST PUSH1 0x40 MLOAD SWAP1 ISZERO ISZERO DUP2 MSTORE PUSH1 0x20 ADD PUSH2 0x2AB JUMP JUMPDEST PUSH2 0x2EA PUSH2 0x2E5 CALLDATASIZE PUSH1 0x4 PUSH2 0x1E83 JUMP JUMPDEST PUSH2 0x798 JUMP JUMPDEST STOP JUMPDEST PUSH2 0x313 PUSH32 0x0 DUP2 JUMP JUMPDEST PUSH1 0x40 MLOAD SWAP1 DUP2 MSTORE PUSH1 0x20 ADD PUSH2 0x2AB JUMP JUMPDEST PUSH2 0x313 PUSH1 0x0 SLOAD DUP2 JUMP JUMPDEST PUSH2 0x2EA PUSH2 0x338 CALLDATASIZE PUSH1 0x4 PUSH2 0x1E83 JUMP JUMPDEST PUSH2 0x8B3 JUMP JUMPDEST PUSH2 0x313 PUSH32 0x797CFAB58FCB15F590EB8E4252D5C228FF88F94F907E119E80C4393A946E8F35 DUP2 JUMP JUMPDEST PUSH2 0x2EA PUSH2 0x908 JUMP JUMPDEST PUSH2 0x2C7 PUSH2 0x37A CALLDATASIZE PUSH1 0x4 PUSH2 0x1E9E JUMP JUMPDEST PUSH2 0x986 JUMP JUMPDEST PUSH1 0xA SLOAD PUSH2 0x392 SWAP1 PUSH1 0x1 PUSH1 0x1 PUSH1 0xA0 SHL SUB AND DUP2 JUMP JUMPDEST PUSH1 0x40 MLOAD PUSH1 0x1 PUSH1 0x1 PUSH1 0xA0 SHL SUB SWAP1 SWAP2 AND DUP2 MSTORE PUSH1 0x20 ADD PUSH2 0x2AB JUMP JUMPDEST PUSH2 0x313 PUSH1 0xB SLOAD DUP2 JUMP JUMPDEST PUSH2 0x313 PUSH32 0x5FAE9EC55A1E547936E0E74D606B44CD5F912F9ADCD0BBA561FEA62D570259E9 DUP2 JUMP JUMPDEST PUSH2 0x3E2 PUSH1 0x12 DUP2 JUMP JUMPDEST PUSH1 0x40 MLOAD PUSH1 0xFF SWAP1 SWAP2 AND DUP2 MSTORE PUSH1 0x20 ADD PUSH2 0x2AB JUMP JUMPDEST PUSH2 0x313 PUSH1 0xC SLOAD DUP2 JUMP JUMPDEST PUSH2 0x313 PUSH2 0x40B CALLDATASIZE PUSH1 0x4 PUSH2 0x1E83 JUMP JUMPDEST PUSH1 0xE PUSH1 0x20 MSTORE PUSH1 0x0 SWAP1 DUP2 MSTORE PUSH1 0x40 SWAP1 KECCAK256 SLOAD DUP2 JUMP JUMPDEST PUSH2 0x2EA PUSH2 0xA6B JUMP JUMPDEST PUSH2 0x392 PUSH2 0x433 CALLDATASIZE PUSH1 0x4 PUSH2 0x1E83 JUMP JUMPDEST PUSH1 0x1 PUSH1 0x20 MSTORE PUSH1 0x0 SWAP1 DUP2 MSTORE PUSH1 0x40 SWAP1 KECCAK256 SLOAD PUSH1 0x1 PUSH1 0x1 PUSH1 0xA0 SHL SUB AND DUP2 JUMP JUMPDEST PUSH1 0x7 SLOAD PUSH2 0x392 SWAP1 PUSH1 0x1 PUSH1 0x1 PUSH1 0xA0 SHL SUB AND DUP2 JUMP JUMPDEST PUSH2 0x2EA PUSH2 0x46F CALLDATASIZE PUSH1 0x4 PUSH2 0x1E83 JUMP JUMPDEST PUSH2 0xA76 JUMP JUMPDEST PUSH2 0x392 PUSH20 0xF1DC500FDE233A4055E25E5BBF516372BC4F6871 DUP2 JUMP JUMPDEST PUSH2 0x4B5 PUSH2 0x49D CALLDATASIZE PUSH1 0x4 PUSH2 0x1E83 JUMP JUMPDEST PUSH1 0x3 PUSH1 0x20 MSTORE PUSH1 0x0 SWAP1 DUP2 MSTORE PUSH1 0x40 SWAP1 KECCAK256 SLOAD PUSH4 0xFFFFFFFF AND DUP2 JUMP JUMPDEST PUSH1 0x40 MLOAD PUSH4 0xFFFFFFFF SWAP1 SWAP2 AND DUP2 MSTORE PUSH1 0x20 ADD PUSH2 0x2AB JUMP JUMPDEST PUSH2 0x313 PUSH2 0x4D8 CALLDATASIZE PUSH1 0x4 PUSH2 0x1E83 JUMP JUMPDEST PUSH1 0x1 PUSH1 0x1 PUSH1 0xA0 SHL SUB AND PUSH1 0x0 SWAP1 DUP2 MSTORE PUSH1 0x5 PUSH1 0x20 MSTORE PUSH1 0x40 SWAP1 KECCAK256 SLOAD SWAP1 JUMP JUMPDEST PUSH2 0x313 PUSH2 0x501 CALLDATASIZE PUSH1 0x4 PUSH2 0x1E59 JUMP JUMPDEST PUSH2 0xA83 JUMP JUMPDEST PUSH2 0x313 PUSH2 0x514 CALLDATASIZE PUSH1 0x4 PUSH2 0x1E83 JUMP JUMPDEST PUSH1 0x6 PUSH1 0x20 MSTORE PUSH1 0x0 SWAP1 DUP2 MSTORE PUSH1 0x40 SWAP1 KECCAK256 SLOAD DUP2 JUMP JUMPDEST PUSH2 0x29E PUSH1 0x40 MLOAD DUP1 PUSH1 0x40 ADD PUSH1 0x40 MSTORE DUP1 PUSH1 0xB DUP2 MSTORE PUSH1 0x20 ADD PUSH11 0x6167766553444C2D44414F PUSH1 0xA8 SHL DUP2 MSTORE POP DUP2 JUMP JUMPDEST PUSH2 0x2EA PUSH2 0x55E CALLDATASIZE PUSH1 0x4 PUSH2 0x1E83 JUMP JUMPDEST PUSH2 0xCC9 JUMP JUMPDEST PUSH2 0x392 PUSH20 0xC6F06B32E6AE0C110861B8607E67DA594781961 DUP2 JUMP JUMPDEST PUSH2 0x2EA PUSH2 0xD15 JUMP JUMPDEST PUSH2 0x392 PUSH20 0xD8AB4CB61BCAA6CD506D10E7C572C418CC0D0D4 DUP2 JUMP JUMPDEST PUSH2 0x2C7 PUSH2 0x5AF CALLDATASIZE PUSH1 0x4 PUSH2 0x1E59 JUMP JUMPDEST PUSH2 0xD1D JUMP JUMPDEST PUSH2 0x2EA PUSH2 0x5C2 CALLDATASIZE PUSH1 0x4 PUSH2 0x1E83 JUMP JUMPDEST PUSH2 0xD33 JUMP JUMPDEST PUSH2 0x313 PUSH2 0x5D5 CALLDATASIZE PUSH1 0x4 PUSH2 0x1E83 JUMP JUMPDEST PUSH2 0xD7F JUMP JUMPDEST PUSH2 0x2EA PUSH2 0x5E8 CALLDATASIZE PUSH1 0x4 PUSH2 0x1EDA JUMP JUMPDEST PUSH2 0xDF4 JUMP JUMPDEST PUSH2 0x2EA PUSH2 0x5FB CALLDATASIZE PUSH1 0x4 PUSH2 0x1F04 JUMP JUMPDEST PUSH2 0xDFD JUMP JUMPDEST PUSH2 0x2EA PUSH2 0x60E CALLDATASIZE PUSH1 0x4 PUSH2 0x1F5C JUMP JUMPDEST PUSH2 0x1035 JUMP JUMPDEST PUSH2 0x313 PUSH2 0x621 CALLDATASIZE PUSH1 0x4 PUSH2 0x1FC6 JUMP JUMPDEST PUSH1 0x1 PUSH1 0x1 PUSH1 0xA0 SHL SUB SWAP2 DUP3 AND PUSH1 0x0 SWAP1 DUP2 MSTORE PUSH1 0x4 PUSH1 0x20 SWAP1 DUP2 MSTORE PUSH1 0x40 DUP1 DUP4 KECCAK256 SWAP4 SWAP1 SWAP5 AND DUP3 MSTORE SWAP2 SWAP1 SWAP2 MSTORE KECCAK256 SLOAD SWAP1 JUMP JUMPDEST PUSH2 0x2EA PUSH2 0x65A CALLDATASIZE PUSH1 0x4 PUSH2 0x1E83 JUMP JUMPDEST PUSH2 0x12DD JUMP JUMPDEST PUSH2 0x2EA PUSH2 0x12E6 JUMP JUMPDEST PUSH2 0x313 PUSH2 0x675 CALLDATASIZE PUSH1 0x4 PUSH2 0x1E83 JUMP JUMPDEST PUSH1 0xD PUSH1 0x20 MSTORE PUSH1 0x0 SWAP1 DUP2 MSTORE PUSH1 0x40 SWAP1 KECCAK256 SLOAD DUP2 JUMP JUMPDEST PUSH2 0x313 PUSH32 0x1AC861A6A8532F3704E1768564A53A32774F00D6CF20CCBBDF60AB61378302BC DUP2 JUMP JUMPDEST PUSH1 0x9 SLOAD PUSH2 0x392 SWAP1 PUSH1 0x1 PUSH1 0x1 PUSH1 0xA0 SHL SUB AND DUP2 JUMP JUMPDEST PUSH2 0x6FC PUSH2 0x6CF CALLDATASIZE PUSH1 0x4 PUSH2 0x1FF9 JUMP JUMPDEST PUSH1 0x2 PUSH1 0x20 SWAP1 DUP2 MSTORE PUSH1 0x0 SWAP3 DUP4 MSTORE PUSH1 0x40 DUP1 DUP5 KECCAK256 SWAP1 SWAP2 MSTORE SWAP1 DUP3 MSTORE SWAP1 KECCAK256 DUP1 SLOAD PUSH1 0x1 SWAP1 SWAP2 ADD SLOAD PUSH4 0xFFFFFFFF SWAP1 SWAP2 AND SWAP1 DUP3 JUMP JUMPDEST PUSH1 0x40 DUP1 MLOAD PUSH4 0xFFFFFFFF SWAP1 SWAP4 AND DUP4 MSTORE PUSH1 0x20 DUP4 ADD SWAP2 SWAP1 SWAP2 MSTORE ADD PUSH2 0x2AB JUMP JUMPDEST PUSH1 0x8 SLOAD PUSH2 0x392 SWAP1 PUSH1 0x1 PUSH1 0x1 PUSH1 0xA0 SHL SUB AND DUP2 JUMP JUMPDEST CALLER PUSH1 0x0 DUP2 DUP2 MSTORE PUSH1 0x4 PUSH1 0x20 SWAP1 DUP2 MSTORE PUSH1 0x40 DUP1 DUP4 KECCAK256 PUSH1 0x1 PUSH1 0x1 PUSH1 0xA0 SHL SUB DUP8 AND DUP1 DUP6 MSTORE SWAP3 MSTORE DUP1 DUP4 KECCAK256 DUP6 SWAP1 SSTORE MLOAD SWAP2 SWAP3 SWAP1 SWAP2 PUSH32 0x8C5BE1E5EBEC7D5BD14F71427D1E84F3DD0314C0F7B2291E5B200AC8C7C3B925 SWAP1 PUSH2 0x786 SWAP1 DUP7 DUP2 MSTORE PUSH1 0x20 ADD SWAP1 JUMP JUMPDEST PUSH1 0x40 MLOAD DUP1 SWAP2 SUB SWAP1 LOG3 POP PUSH1 0x1 JUMPDEST SWAP3 SWAP2 POP POP JUMP JUMPDEST PUSH2 0x7A0 PUSH2 0x1362 JUMP JUMPDEST PUSH1 0x1 PUSH1 0x1 PUSH1 0xA0 SHL SUB DUP2 AND PUSH1 0x0 SWAP1 DUP2 MSTORE PUSH1 0x5 PUSH1 0x20 MSTORE PUSH1 0x40 SWAP1 KECCAK256 SLOAD DUP1 ISZERO PUSH2 0x892 JUMPI PUSH1 0x1 PUSH1 0x1 PUSH1 0xA0 SHL SUB DUP3 AND PUSH1 0x0 SWAP1 DUP2 MSTORE PUSH1 0xD PUSH1 0x20 SWAP1 DUP2 MSTORE PUSH1 0x40 DUP1 DUP4 KECCAK256 DUP1 SLOAD PUSH1 0xB SLOAD SWAP2 DUP3 SWAP1 SSTORE DUP3 MLOAD DUP1 DUP5 ADD SWAP1 SWAP4 MSTORE PUSH1 0x1D DUP4 MSTORE PUSH32 0x766553444C3A3A5F636C61696D466F723A20696E6465782064656C7461000000 SWAP4 DUP4 ADD SWAP4 SWAP1 SWAP4 MSTORE SWAP2 SWAP3 SWAP2 PUSH2 0x825 SWAP2 DUP5 SWAP1 PUSH2 0x1487 JUMP JUMPDEST SWAP1 POP DUP1 ISZERO PUSH2 0x88C JUMPI PUSH1 0x0 PUSH2 0x84B PUSH8 0xDE0B6B3A7640000 PUSH2 0x845 DUP7 DUP6 PUSH2 0x14B3 JUMP JUMPDEST SWAP1 PUSH2 0x14BF JUMP JUMPDEST PUSH1 0x1 PUSH1 0x1 PUSH1 0xA0 SHL SUB DUP7 AND PUSH1 0x0 SWAP1 DUP2 MSTORE PUSH1 0xE PUSH1 0x20 MSTORE PUSH1 0x40 SWAP1 KECCAK256 SLOAD SWAP1 SWAP2 POP PUSH2 0x871 SWAP1 DUP3 PUSH2 0x14CB JUMP JUMPDEST PUSH1 0x1 PUSH1 0x1 PUSH1 0xA0 SHL SUB DUP7 AND PUSH1 0x0 SWAP1 DUP2 MSTORE PUSH1 0xE PUSH1 0x20 MSTORE PUSH1 0x40 SWAP1 KECCAK256 SSTORE POP JUMPDEST POP POP POP POP JUMP JUMPDEST PUSH1 0xB SLOAD PUSH1 0x1 PUSH1 0x1 PUSH1 0xA0 SHL SUB DUP4 AND PUSH1 0x0 SWAP1 DUP2 MSTORE PUSH1 0xD PUSH1 0x20 MSTORE PUSH1 0x40 SWAP1 KECCAK256 SSTORE JUMPDEST POP POP JUMP JUMPDEST PUSH1 0x7 SLOAD PUSH1 0x1 PUSH1 0x1 PUSH1 0xA0 SHL SUB AND CALLER EQ PUSH2 0x8E6 JUMPI PUSH1 0x40 MLOAD PUSH3 0x461BCD PUSH1 0xE5 SHL DUP2 MSTORE PUSH1 0x4 ADD PUSH2 0x8DD SWAP1 PUSH2 0x2039 JUMP JUMPDEST PUSH1 0x40 MLOAD DUP1 SWAP2 SUB SWAP1 REVERT JUMPDEST PUSH1 0xA DUP1 SLOAD PUSH1 0x1 PUSH1 0x1 PUSH1 0xA0 SHL SUB NOT AND PUSH1 0x1 PUSH1 0x1 PUSH1 0xA0 SHL SUB SWAP3 SWAP1 SWAP3 AND SWAP2 SWAP1 SWAP2 OR SWAP1 SSTORE JUMP JUMPDEST PUSH1 0x8 SLOAD PUSH1 0x1 PUSH1 0x1 PUSH1 0xA0 SHL SUB AND CALLER EQ PUSH2 0x962 JUMPI PUSH1 0x40 MLOAD PUSH3 0x461BCD PUSH1 0xE5 SHL DUP2 MSTORE PUSH1 0x20 PUSH1 0x4 DUP3 ADD MSTORE PUSH1 0x1D PUSH1 0x24 DUP3 ADD MSTORE PUSH32 0x616363657074476F7665726E616E63653A202170656E64696E67476F76000000 PUSH1 0x44 DUP3 ADD MSTORE PUSH1 0x64 ADD PUSH2 0x8DD JUMP JUMPDEST PUSH1 0x8 SLOAD PUSH1 0x7 DUP1 SLOAD PUSH1 0x1 PUSH1 0x1 PUSH1 0xA0 SHL SUB NOT AND PUSH1 0x1 PUSH1 0x1 PUSH1 0xA0 SHL SUB SWAP1 SWAP3 AND SWAP2 SWAP1 SWAP2 OR SWAP1 SSTORE JUMP JUMPDEST PUSH1 0x1 PUSH1 0x1 PUSH1 0xA0 SHL SUB DUP4 AND PUSH1 0x0 DUP2 DUP2 MSTORE PUSH1 0x4 PUSH1 0x20 SWAP1 DUP2 MSTORE PUSH1 0x40 DUP1 DUP4 KECCAK256 CALLER DUP1 DUP6 MSTORE SWAP3 MSTORE DUP3 KECCAK256 SLOAD SWAP2 SWAP3 SWAP1 SWAP2 SWAP1 PUSH1 0x0 NOT SWAP1 DUP4 EQ DUP1 ISZERO SWAP1 PUSH2 0x9C2 JUMPI POP DUP1 DUP3 EQ ISZERO JUMPDEST ISZERO PUSH2 0xA53 JUMPI PUSH1 0x0 PUSH2 0x9EE DUP7 PUSH1 0x40 MLOAD DUP1 PUSH1 0x60 ADD PUSH1 0x40 MSTORE DUP1 PUSH1 0x27 DUP2 MSTORE PUSH1 0x20 ADD PUSH2 0x21A4 PUSH1 0x27 SWAP2 CODECOPY DUP6 SWAP2 SWAP1 PUSH2 0x1487 JUMP JUMPDEST PUSH1 0x1 PUSH1 0x1 PUSH1 0xA0 SHL SUB DUP10 DUP2 AND PUSH1 0x0 DUP2 DUP2 MSTORE PUSH1 0x4 PUSH1 0x20 SWAP1 DUP2 MSTORE PUSH1 0x40 DUP1 DUP4 KECCAK256 SWAP5 DUP11 AND DUP1 DUP5 MSTORE SWAP5 DUP3 MSTORE SWAP2 DUP3 SWAP1 KECCAK256 DUP6 SWAP1 SSTORE SWAP1 MLOAD DUP5 DUP2 MSTORE SWAP4 SWAP5 POP SWAP2 SWAP3 SWAP1 SWAP2 PUSH32 0x8C5BE1E5EBEC7D5BD14F71427D1E84F3DD0314C0F7B2291E5B200AC8C7C3B925 SWAP2 ADD PUSH1 0x40 MLOAD DUP1 SWAP2 SUB SWAP1 LOG3 POP JUMPDEST PUSH2 0xA5E DUP8 DUP8 DUP8 PUSH2 0x14D7 JUMP JUMPDEST POP PUSH1 0x1 SWAP7 SWAP6 POP POP POP POP POP POP JUMP JUMPDEST PUSH2 0xA74 CALLER PUSH2 0x167C JUMP JUMPDEST JUMP JUMPDEST PUSH2 0xA80 CALLER DUP3 PUSH2 0x17B0 JUMP JUMPDEST POP JUMP JUMPDEST PUSH1 0x0 NUMBER DUP3 LT PUSH2 0xAC5 JUMPI PUSH1 0x40 MLOAD PUSH3 0x461BCD PUSH1 0xE5 SHL DUP2 MSTORE PUSH1 0x20 PUSH1 0x4 DUP3 ADD MSTORE PUSH1 0xE PUSH1 0x24 DUP3 ADD MSTORE PUSH14 0x33B2BA283934B7B92B37BA32B99D PUSH1 0x91 SHL PUSH1 0x44 DUP3 ADD MSTORE PUSH1 0x64 ADD PUSH2 0x8DD JUMP JUMPDEST PUSH1 0x1 PUSH1 0x1 PUSH1 0xA0 SHL SUB DUP4 AND PUSH1 0x0 SWAP1 DUP2 MSTORE PUSH1 0x3 PUSH1 0x20 MSTORE PUSH1 0x40 SWAP1 KECCAK256 SLOAD PUSH4 0xFFFFFFFF AND DUP1 PUSH2 0xAF3 JUMPI PUSH1 0x0 SWAP2 POP POP PUSH2 0x792 JUMP JUMPDEST PUSH1 0x1 PUSH1 0x1 PUSH1 0xA0 SHL SUB DUP5 AND PUSH1 0x0 SWAP1 DUP2 MSTORE PUSH1 0x2 PUSH1 0x20 MSTORE PUSH1 0x40 DUP2 KECCAK256 DUP5 SWAP2 PUSH2 0xB18 PUSH1 0x1 DUP6 PUSH2 0x207C JUMP JUMPDEST PUSH4 0xFFFFFFFF SWAP1 DUP2 AND DUP3 MSTORE PUSH1 0x20 DUP3 ADD SWAP3 SWAP1 SWAP3 MSTORE PUSH1 0x40 ADD PUSH1 0x0 KECCAK256 SLOAD AND GT PUSH2 0xB81 JUMPI PUSH1 0x1 PUSH1 0x1 PUSH1 0xA0 SHL SUB DUP5 AND PUSH1 0x0 SWAP1 DUP2 MSTORE PUSH1 0x2 PUSH1 0x20 MSTORE PUSH1 0x40 DUP2 KECCAK256 SWAP1 PUSH2 0xB5B PUSH1 0x1 DUP5 PUSH2 0x207C JUMP JUMPDEST PUSH4 0xFFFFFFFF AND PUSH4 0xFFFFFFFF AND DUP2 MSTORE PUSH1 0x20 ADD SWAP1 DUP2 MSTORE PUSH1 0x20 ADD PUSH1 0x0 KECCAK256 PUSH1 0x1 ADD SLOAD SWAP2 POP POP PUSH2 0x792 JUMP JUMPDEST PUSH1 0x1 PUSH1 0x1 PUSH1 0xA0 SHL SUB DUP5 AND PUSH1 0x0 SWAP1 DUP2 MSTORE PUSH1 0x2 PUSH1 0x20 SWAP1 DUP2 MSTORE PUSH1 0x40 DUP1 DUP4 KECCAK256 DUP4 DUP1 MSTORE SWAP1 SWAP2 MSTORE SWAP1 KECCAK256 SLOAD PUSH4 0xFFFFFFFF AND DUP4 LT ISZERO PUSH2 0xBBC JUMPI PUSH1 0x0 SWAP2 POP POP PUSH2 0x792 JUMP JUMPDEST PUSH1 0x0 DUP1 PUSH2 0xBCA PUSH1 0x1 DUP5 PUSH2 0x207C JUMP JUMPDEST SWAP1 POP JUMPDEST DUP2 PUSH4 0xFFFFFFFF AND DUP2 PUSH4 0xFFFFFFFF AND GT ISZERO PUSH2 0xC92 JUMPI PUSH1 0x0 PUSH1 0x2 PUSH2 0xBEF DUP5 DUP5 PUSH2 0x207C JUMP JUMPDEST PUSH2 0xBF9 SWAP2 SWAP1 PUSH2 0x20B7 JUMP JUMPDEST PUSH2 0xC03 SWAP1 DUP4 PUSH2 0x207C JUMP JUMPDEST PUSH1 0x1 PUSH1 0x1 PUSH1 0xA0 SHL SUB DUP9 AND PUSH1 0x0 SWAP1 DUP2 MSTORE PUSH1 0x2 PUSH1 0x20 SWAP1 DUP2 MSTORE PUSH1 0x40 DUP1 DUP4 KECCAK256 PUSH4 0xFFFFFFFF DUP1 DUP7 AND DUP6 MSTORE SWAP1 DUP4 MSTORE SWAP3 DUP2 SWAP1 KECCAK256 DUP2 MLOAD DUP1 DUP4 ADD SWAP1 SWAP3 MSTORE DUP1 SLOAD SWAP1 SWAP4 AND DUP1 DUP3 MSTORE PUSH1 0x1 SWAP1 SWAP4 ADD SLOAD SWAP2 DUP2 ADD SWAP2 SWAP1 SWAP2 MSTORE SWAP2 SWAP3 POP DUP8 EQ ISZERO PUSH2 0xC66 JUMPI PUSH1 0x20 ADD MLOAD SWAP5 POP PUSH2 0x792 SWAP4 POP POP POP POP JUMP JUMPDEST DUP1 MLOAD PUSH4 0xFFFFFFFF AND DUP8 GT ISZERO PUSH2 0xC7D JUMPI DUP2 SWAP4 POP PUSH2 0xC8B JUMP JUMPDEST PUSH2 0xC88 PUSH1 0x1 DUP4 PUSH2 0x207C JUMP JUMPDEST SWAP3 POP JUMPDEST POP POP PUSH2 0xBCD JUMP JUMPDEST POP PUSH1 0x1 PUSH1 0x1 PUSH1 0xA0 SHL SUB DUP6 AND PUSH1 0x0 SWAP1 DUP2 MSTORE PUSH1 0x2 PUSH1 0x20 SWAP1 DUP2 MSTORE PUSH1 0x40 DUP1 DUP4 KECCAK256 PUSH4 0xFFFFFFFF SWAP1 SWAP5 AND DUP4 MSTORE SWAP3 SWAP1 MSTORE KECCAK256 PUSH1 0x1 ADD SLOAD SWAP2 POP POP SWAP3 SWAP2 POP POP JUMP JUMPDEST PUSH1 0x7 SLOAD PUSH1 0x1 PUSH1 0x1 PUSH1 0xA0 SHL SUB AND CALLER EQ PUSH2 0xCF3 JUMPI PUSH1 0x40 MLOAD PUSH3 0x461BCD PUSH1 0xE5 SHL DUP2 MSTORE PUSH1 0x4 ADD PUSH2 0x8DD SWAP1 PUSH2 0x2039 JUMP JUMPDEST PUSH1 0x9 DUP1 SLOAD PUSH1 0x1 PUSH1 0x1 PUSH1 0xA0 SHL SUB NOT AND PUSH1 0x1 PUSH1 0x1 PUSH1 0xA0 SHL SUB SWAP3 SWAP1 SWAP3 AND SWAP2 SWAP1 SWAP2 OR SWAP1 SSTORE JUMP JUMPDEST PUSH2 0xA74 PUSH2 0x1362 JUMP JUMPDEST PUSH1 0x0 PUSH2 0xD2A CALLER DUP5 DUP5 PUSH2 0x14D7 JUMP JUMPDEST POP PUSH1 0x1 SWAP3 SWAP2 POP POP JUMP JUMPDEST PUSH1 0x7 SLOAD PUSH1 0x1 PUSH1 0x1 PUSH1 0xA0 SHL SUB AND CALLER EQ PUSH2 0xD5D JUMPI PUSH1 0x40 MLOAD PUSH3 0x461BCD PUSH1 0xE5 SHL DUP2 MSTORE PUSH1 0x4 ADD PUSH2 0x8DD SWAP1 PUSH2 0x2039 JUMP JUMPDEST PUSH1 0x8 DUP1 SLOAD PUSH1 0x1 PUSH1 0x1 PUSH1 0xA0 SHL SUB NOT AND PUSH1 0x1 PUSH1 0x1 PUSH1 0xA0 SHL SUB SWAP3 SWAP1 SWAP3 AND SWAP2 SWAP1 SWAP2 OR SWAP1 SSTORE JUMP JUMPDEST PUSH1 0x1 PUSH1 0x1 PUSH1 0xA0 SHL SUB DUP2 AND PUSH1 0x0 SWAP1 DUP2 MSTORE PUSH1 0x3 PUSH1 0x20 MSTORE PUSH1 0x40 DUP2 KECCAK256 SLOAD PUSH4 0xFFFFFFFF AND DUP1 PUSH2 0xDAA JUMPI PUSH1 0x0 PUSH2 0xDED JUMP JUMPDEST PUSH1 0x1 PUSH1 0x1 PUSH1 0xA0 SHL SUB DUP4 AND PUSH1 0x0 SWAP1 DUP2 MSTORE PUSH1 0x2 PUSH1 0x20 MSTORE PUSH1 0x40 DUP2 KECCAK256 SWAP1 PUSH2 0xDCE PUSH1 0x1 DUP5 PUSH2 0x207C JUMP JUMPDEST PUSH4 0xFFFFFFFF AND PUSH4 0xFFFFFFFF AND DUP2 MSTORE PUSH1 0x20 ADD SWAP1 DUP2 MSTORE PUSH1 0x20 ADD PUSH1 0x0 KECCAK256 PUSH1 0x1 ADD SLOAD JUMPDEST SWAP4 SWAP3 POP POP POP JUMP JUMPDEST PUSH2 0xA80 DUP2 PUSH2 0x182A JUMP JUMPDEST PUSH1 0x40 DUP1 MLOAD PUSH32 0x1AC861A6A8532F3704E1768564A53A32774F00D6CF20CCBBDF60AB61378302BC PUSH1 0x20 DUP3 ADD MSTORE PUSH1 0x1 PUSH1 0x1 PUSH1 0xA0 SHL SUB DUP9 AND SWAP2 DUP2 ADD SWAP2 SWAP1 SWAP2 MSTORE PUSH1 0x60 DUP2 ADD DUP7 SWAP1 MSTORE PUSH1 0x80 DUP2 ADD DUP6 SWAP1 MSTORE PUSH1 0x0 SWAP1 PUSH1 0xA0 ADD PUSH1 0x40 DUP1 MLOAD PUSH1 0x1F NOT DUP2 DUP5 SUB ADD DUP2 MSTORE SWAP1 DUP3 SWAP1 MSTORE DUP1 MLOAD PUSH1 0x20 SWAP2 DUP3 ADD KECCAK256 PUSH2 0x1901 PUSH1 0xF0 SHL SWAP2 DUP4 ADD SWAP2 SWAP1 SWAP2 MSTORE PUSH32 0x0 PUSH1 0x22 DUP4 ADD MSTORE PUSH1 0x42 DUP3 ADD DUP2 SWAP1 MSTORE SWAP2 POP PUSH1 0x0 SWAP1 PUSH1 0x62 ADD PUSH1 0x40 DUP1 MLOAD PUSH1 0x1F NOT DUP2 DUP5 SUB ADD DUP2 MSTORE DUP3 DUP3 MSTORE DUP1 MLOAD PUSH1 0x20 SWAP2 DUP3 ADD KECCAK256 PUSH1 0x0 DUP1 DUP6 MSTORE SWAP2 DUP5 ADD DUP1 DUP5 MSTORE DUP2 SWAP1 MSTORE PUSH1 0xFF DUP10 AND SWAP3 DUP5 ADD SWAP3 SWAP1 SWAP3 MSTORE PUSH1 0x60 DUP4 ADD DUP8 SWAP1 MSTORE PUSH1 0x80 DUP4 ADD DUP7 SWAP1 MSTORE SWAP1 SWAP3 POP SWAP1 PUSH1 0x1 SWAP1 PUSH1 0xA0 ADD PUSH1 0x20 PUSH1 0x40 MLOAD PUSH1 0x20 DUP2 SUB SWAP1 DUP1 DUP5 SUB SWAP1 DUP6 GAS STATICCALL ISZERO DUP1 ISZERO PUSH2 0xF12 JUMPI RETURNDATASIZE PUSH1 0x0 DUP1 RETURNDATACOPY RETURNDATASIZE PUSH1 0x0 REVERT JUMPDEST POP POP PUSH1 0x40 MLOAD PUSH1 0x1F NOT ADD MLOAD SWAP2 POP POP PUSH1 0x1 PUSH1 0x1 PUSH1 0xA0 SHL SUB DUP2 AND PUSH2 0xF6A JUMPI PUSH1 0x40 MLOAD PUSH3 0x461BCD PUSH1 0xE5 SHL DUP2 MSTORE PUSH1 0x20 PUSH1 0x4 DUP3 ADD MSTORE PUSH1 0x12 PUSH1 0x24 DUP3 ADD MSTORE PUSH18 0x64656C656761746542795369673A20736967 PUSH1 0x70 SHL PUSH1 0x44 DUP3 ADD MSTORE PUSH1 0x64 ADD PUSH2 0x8DD JUMP JUMPDEST PUSH1 0x1 PUSH1 0x1 PUSH1 0xA0 SHL SUB DUP2 AND PUSH1 0x0 SWAP1 DUP2 MSTORE PUSH1 0x6 PUSH1 0x20 MSTORE PUSH1 0x40 DUP2 KECCAK256 DUP1 SLOAD SWAP2 PUSH2 0xF8E DUP4 PUSH2 0x20DA JUMP JUMPDEST SWAP2 SWAP1 POP SSTORE DUP9 EQ PUSH2 0xFD7 JUMPI PUSH1 0x40 MLOAD PUSH3 0x461BCD PUSH1 0xE5 SHL DUP2 MSTORE PUSH1 0x20 PUSH1 0x4 DUP3 ADD MSTORE PUSH1 0x14 PUSH1 0x24 DUP3 ADD MSTORE PUSH20 0x64656C656761746542795369673A206E6F6E6365 PUSH1 0x60 SHL PUSH1 0x44 DUP3 ADD MSTORE PUSH1 0x64 ADD PUSH2 0x8DD JUMP JUMPDEST DUP7 TIMESTAMP GT ISZERO PUSH2 0x1020 JUMPI PUSH1 0x40 MLOAD PUSH3 0x461BCD PUSH1 0xE5 SHL DUP2 MSTORE PUSH1 0x20 PUSH1 0x4 DUP3 ADD MSTORE PUSH1 0x16 PUSH1 0x24 DUP3 ADD MSTORE PUSH22 0x19195B1959D85D19509E54DA59CE88195E1C1A5C9959 PUSH1 0x52 SHL PUSH1 0x44 DUP3 ADD MSTORE PUSH1 0x64 ADD PUSH2 0x8DD JUMP JUMPDEST PUSH2 0x102A DUP2 DUP11 PUSH2 0x17B0 JUMP JUMPDEST POP POP POP POP POP POP POP POP POP JUMP JUMPDEST PUSH1 0x1 PUSH1 0x1 PUSH1 0xA0 SHL SUB DUP8 AND PUSH1 0x0 SWAP1 DUP2 MSTORE PUSH1 0x6 PUSH1 0x20 MSTORE PUSH1 0x40 DUP2 KECCAK256 DUP1 SLOAD PUSH32 0x5FAE9EC55A1E547936E0E74D606B44CD5F912F9ADCD0BBA561FEA62D570259E9 SWAP2 DUP11 SWAP2 DUP11 SWAP2 DUP11 SWAP2 SWAP1 DUP7 PUSH2 0x1082 DUP4 PUSH2 0x20DA JUMP JUMPDEST SWAP1 SWAP2 SSTORE POP PUSH1 0x40 DUP1 MLOAD PUSH1 0x20 DUP2 ADD SWAP7 SWAP1 SWAP7 MSTORE PUSH1 0x1 PUSH1 0x1 PUSH1 0xA0 SHL SUB SWAP5 DUP6 AND SWAP1 DUP7 ADD MSTORE SWAP3 SWAP1 SWAP2 AND PUSH1 0x60 DUP5 ADD MSTORE PUSH1 0x80 DUP4 ADD MSTORE PUSH1 0xA0 DUP3 ADD MSTORE PUSH1 0xC0 DUP2 ADD DUP7 SWAP1 MSTORE PUSH1 0xE0 ADD PUSH1 0x40 DUP1 MLOAD PUSH1 0x1F NOT DUP2 DUP5 SUB ADD DUP2 MSTORE SWAP1 DUP3 SWAP1 MSTORE DUP1 MLOAD PUSH1 0x20 SWAP2 DUP3 ADD KECCAK256 PUSH2 0x1901 PUSH1 0xF0 SHL SWAP2 DUP4 ADD SWAP2 SWAP1 SWAP2 MSTORE PUSH32 0x0 PUSH1 0x22 DUP4 ADD MSTORE PUSH1 0x42 DUP3 ADD DUP2 SWAP1 MSTORE SWAP2 POP PUSH1 0x0 SWAP1 PUSH1 0x62 ADD PUSH1 0x40 DUP1 MLOAD PUSH1 0x1F NOT DUP2 DUP5 SUB ADD DUP2 MSTORE DUP3 DUP3 MSTORE DUP1 MLOAD PUSH1 0x20 SWAP2 DUP3 ADD KECCAK256 PUSH1 0x0 DUP1 DUP6 MSTORE SWAP2 DUP5 ADD DUP1 DUP5 MSTORE DUP2 SWAP1 MSTORE PUSH1 0xFF DUP10 AND SWAP3 DUP5 ADD SWAP3 SWAP1 SWAP3 MSTORE PUSH1 0x60 DUP4 ADD DUP8 SWAP1 MSTORE PUSH1 0x80 DUP4 ADD DUP7 SWAP1 MSTORE SWAP1 SWAP3 POP SWAP1 PUSH1 0x1 SWAP1 PUSH1 0xA0 ADD PUSH1 0x20 PUSH1 0x40 MLOAD PUSH1 0x20 DUP2 SUB SWAP1 DUP1 DUP5 SUB SWAP1 DUP6 GAS STATICCALL ISZERO DUP1 ISZERO PUSH2 0x1184 JUMPI RETURNDATASIZE PUSH1 0x0 DUP1 RETURNDATACOPY RETURNDATASIZE PUSH1 0x0 REVERT JUMPDEST POP POP PUSH1 0x40 MLOAD PUSH1 0x1F NOT ADD MLOAD SWAP2 POP POP PUSH1 0x1 PUSH1 0x1 PUSH1 0xA0 SHL SUB DUP2 AND PUSH2 0x11DB JUMPI PUSH1 0x40 MLOAD PUSH3 0x461BCD PUSH1 0xE5 SHL DUP2 MSTORE PUSH1 0x20 PUSH1 0x4 DUP3 ADD MSTORE PUSH1 0x11 PUSH1 0x24 DUP3 ADD MSTORE PUSH17 0x7065726D69743A207369676E6174757265 PUSH1 0x78 SHL PUSH1 0x44 DUP3 ADD MSTORE PUSH1 0x64 ADD PUSH2 0x8DD JUMP JUMPDEST DUP10 PUSH1 0x1 PUSH1 0x1 PUSH1 0xA0 SHL SUB AND DUP2 PUSH1 0x1 PUSH1 0x1 PUSH1 0xA0 SHL SUB AND EQ PUSH2 0x1233 JUMPI PUSH1 0x40 MLOAD PUSH3 0x461BCD PUSH1 0xE5 SHL DUP2 MSTORE PUSH1 0x20 PUSH1 0x4 DUP3 ADD MSTORE PUSH1 0x14 PUSH1 0x24 DUP3 ADD MSTORE PUSH20 0x1C195C9B5A5D0E881D5B985D5D1A1BDC9A5E9959 PUSH1 0x62 SHL PUSH1 0x44 DUP3 ADD MSTORE PUSH1 0x64 ADD PUSH2 0x8DD JUMP JUMPDEST DUP7 TIMESTAMP GT ISZERO PUSH2 0x1275 JUMPI PUSH1 0x40 MLOAD PUSH3 0x461BCD PUSH1 0xE5 SHL DUP2 MSTORE PUSH1 0x20 PUSH1 0x4 DUP3 ADD MSTORE PUSH1 0xF PUSH1 0x24 DUP3 ADD MSTORE PUSH15 0x1C195C9B5A5D0E88195E1C1A5C9959 PUSH1 0x8A SHL PUSH1 0x44 DUP3 ADD MSTORE PUSH1 0x64 ADD PUSH2 0x8DD JUMP JUMPDEST PUSH1 0x1 PUSH1 0x1 PUSH1 0xA0 SHL SUB DUP11 DUP2 AND PUSH1 0x0 DUP2 DUP2 MSTORE PUSH1 0x4 PUSH1 0x20 SWAP1 DUP2 MSTORE PUSH1 0x40 DUP1 DUP4 KECCAK256 SWAP5 DUP15 AND DUP1 DUP5 MSTORE SWAP5 DUP3 MSTORE SWAP2 DUP3 SWAP1 KECCAK256 DUP13 SWAP1 SSTORE SWAP1 MLOAD DUP12 DUP2 MSTORE PUSH32 0x8C5BE1E5EBEC7D5BD14F71427D1E84F3DD0314C0F7B2291E5B200AC8C7C3B925 SWAP2 ADD PUSH1 0x40 MLOAD DUP1 SWAP2 SUB SWAP1 LOG3 POP POP POP POP POP POP POP POP POP POP JUMP JUMPDEST PUSH2 0xA80 DUP2 PUSH2 0x167C JUMP JUMPDEST PUSH1 0x40 MLOAD PUSH4 0x70A08231 PUSH1 0xE0 SHL DUP2 MSTORE CALLER PUSH1 0x4 DUP3 ADD MSTORE PUSH2 0xA74 SWAP1 PUSH20 0xF1DC500FDE233A4055E25E5BBF516372BC4F6871 SWAP1 PUSH4 0x70A08231 SWAP1 PUSH1 0x24 ADD PUSH1 0x20 PUSH1 0x40 MLOAD DUP1 DUP4 SUB DUP2 DUP7 GAS STATICCALL ISZERO DUP1 ISZERO PUSH2 0x1339 JUMPI RETURNDATASIZE PUSH1 0x0 DUP1 RETURNDATACOPY RETURNDATASIZE PUSH1 0x0 REVERT JUMPDEST POP POP POP POP PUSH1 0x40 MLOAD RETURNDATASIZE PUSH1 0x1F NOT PUSH1 0x1F DUP3 ADD AND DUP3 ADD DUP1 PUSH1 0x40 MSTORE POP DUP2 ADD SWAP1 PUSH2 0x135D SWAP2 SWAP1 PUSH2 0x20F5 JUMP JUMPDEST PUSH2 0x182A JUMP JUMPDEST PUSH1 0x0 SLOAD ISZERO PUSH2 0xA74 JUMPI PUSH2 0x1372 PUSH2 0x1936 JUMP JUMPDEST PUSH1 0x40 MLOAD PUSH4 0x70A08231 PUSH1 0xE0 SHL DUP2 MSTORE ADDRESS PUSH1 0x4 DUP3 ADD MSTORE PUSH1 0x0 SWAP1 PUSH20 0xC6F06B32E6AE0C110861B8607E67DA594781961 SWAP1 PUSH4 0x70A08231 SWAP1 PUSH1 0x24 ADD PUSH1 0x20 PUSH1 0x40 MLOAD DUP1 DUP4 SUB DUP2 DUP7 GAS STATICCALL ISZERO DUP1 ISZERO PUSH2 0x13C4 JUMPI RETURNDATASIZE PUSH1 0x0 DUP1 RETURNDATACOPY RETURNDATASIZE PUSH1 0x0 REVERT JUMPDEST POP POP POP POP PUSH1 0x40 MLOAD RETURNDATASIZE PUSH1 0x1F NOT PUSH1 0x1F DUP3 ADD AND DUP3 ADD DUP1 PUSH1 0x40 MSTORE POP DUP2 ADD SWAP1 PUSH2 0x13E8 SWAP2 SWAP1 PUSH2 0x20F5 JUMP JUMPDEST SWAP1 POP PUSH1 0xC SLOAD DUP2 GT ISZERO PUSH2 0xA80 JUMPI PUSH1 0x0 PUSH2 0x1442 PUSH1 0xC SLOAD PUSH1 0x40 MLOAD DUP1 PUSH1 0x40 ADD PUSH1 0x40 MSTORE DUP1 PUSH1 0x19 DUP2 MSTORE PUSH1 0x20 ADD PUSH32 0x766553444C3A3A5F7570646174653A2062616C205F6469666600000000000000 DUP2 MSTORE POP DUP5 PUSH2 0x1487 SWAP1 SWAP3 SWAP2 SWAP1 PUSH4 0xFFFFFFFF AND JUMP JUMPDEST SWAP1 POP DUP1 ISZERO PUSH2 0x8AF JUMPI PUSH1 0x0 DUP1 SLOAD PUSH2 0x1464 SWAP1 PUSH2 0x845 DUP5 PUSH8 0xDE0B6B3A7640000 PUSH2 0x14B3 JUMP JUMPDEST SWAP1 POP DUP1 ISZERO PUSH2 0x1482 JUMPI PUSH1 0xB SLOAD PUSH2 0x1479 SWAP1 DUP3 PUSH2 0x14CB JUMP JUMPDEST PUSH1 0xB SSTORE PUSH1 0xC DUP4 SWAP1 SSTORE JUMPDEST POP POP POP JUMP JUMPDEST PUSH1 0x0 DUP2 DUP5 DUP5 GT ISZERO PUSH2 0x14AB JUMPI PUSH1 0x40 MLOAD PUSH3 0x461BCD PUSH1 0xE5 SHL DUP2 MSTORE PUSH1 0x4 ADD PUSH2 0x8DD SWAP2 SWAP1 PUSH2 0x1DE8 JUMP JUMPDEST POP POP POP SWAP1 SUB SWAP1 JUMP JUMPDEST PUSH1 0x0 PUSH2 0xDED DUP3 DUP5 PUSH2 0x210E JUMP JUMPDEST PUSH1 0x0 PUSH2 0xDED DUP3 DUP5 PUSH2 0x212D JUMP JUMPDEST PUSH1 0x0 PUSH2 0xDED DUP3 DUP5 PUSH2 0x2141 JUMP JUMPDEST PUSH1 0x1 PUSH1 0x1 PUSH1 0xA0 SHL SUB DUP4 AND PUSH2 0x152D JUMPI PUSH1 0x40 MLOAD PUSH3 0x461BCD PUSH1 0xE5 SHL DUP2 MSTORE PUSH1 0x20 PUSH1 0x4 DUP3 ADD MSTORE PUSH1 0x1D PUSH1 0x24 DUP3 ADD MSTORE PUSH32 0x5F7472616E73666572546F6B656E733A207A65726F2061646472657373000000 PUSH1 0x44 DUP3 ADD MSTORE PUSH1 0x64 ADD PUSH2 0x8DD JUMP JUMPDEST PUSH1 0x1 PUSH1 0x1 PUSH1 0xA0 SHL SUB DUP3 AND PUSH2 0x1583 JUMPI PUSH1 0x40 MLOAD PUSH3 0x461BCD PUSH1 0xE5 SHL DUP2 MSTORE PUSH1 0x20 PUSH1 0x4 DUP3 ADD MSTORE PUSH1 0x1D PUSH1 0x24 DUP3 ADD MSTORE PUSH32 0x5F7472616E73666572546F6B656E733A207A65726F2061646472657373000000 PUSH1 0x44 DUP3 ADD MSTORE PUSH1 0x64 ADD PUSH2 0x8DD JUMP JUMPDEST PUSH2 0x158C DUP4 PUSH2 0x798 JUMP JUMPDEST PUSH2 0x1595 DUP3 PUSH2 0x798 JUMP JUMPDEST PUSH1 0x40 DUP1 MLOAD DUP1 DUP3 ADD DUP3 MSTORE PUSH1 0x20 DUP1 DUP3 MSTORE PUSH32 0x5F7472616E73666572546F6B656E733A20657863656564732062616C616E6365 DUP2 DUP4 ADD MSTORE PUSH1 0x1 PUSH1 0x1 PUSH1 0xA0 SHL SUB DUP7 AND PUSH1 0x0 SWAP1 DUP2 MSTORE PUSH1 0x5 SWAP1 SWAP2 MSTORE SWAP2 SWAP1 SWAP2 KECCAK256 SLOAD PUSH2 0x15EC SWAP2 DUP4 SWAP1 PUSH2 0x1487 JUMP JUMPDEST PUSH1 0x1 PUSH1 0x1 PUSH1 0xA0 SHL SUB DUP1 DUP6 AND PUSH1 0x0 SWAP1 DUP2 MSTORE PUSH1 0x5 PUSH1 0x20 MSTORE PUSH1 0x40 DUP1 DUP3 KECCAK256 SWAP4 SWAP1 SWAP4 SSTORE SWAP1 DUP5 AND DUP2 MSTORE KECCAK256 SLOAD PUSH2 0x161B SWAP1 DUP3 PUSH2 0x14CB JUMP JUMPDEST PUSH1 0x1 PUSH1 0x1 PUSH1 0xA0 SHL SUB DUP1 DUP5 AND PUSH1 0x0 DUP2 DUP2 MSTORE PUSH1 0x5 PUSH1 0x20 MSTORE PUSH1 0x40 SWAP1 DUP2 SWAP1 KECCAK256 SWAP4 SWAP1 SWAP4 SSTORE SWAP2 MLOAD SWAP1 DUP6 AND SWAP1 PUSH32 0xDDF252AD1BE2C89B69C2B068FC378DAA952BA7F163C4A11628F55A4DF523B3EF SWAP1 PUSH2 0x166F SWAP1 DUP6 DUP2 MSTORE PUSH1 0x20 ADD SWAP1 JUMP JUMPDEST PUSH1 0x40 MLOAD DUP1 SWAP2 SUB SWAP1 LOG3 POP POP POP JUMP JUMPDEST PUSH2 0x1685 DUP2 PUSH2 0x798 JUMP JUMPDEST PUSH1 0x1 PUSH1 0x1 PUSH1 0xA0 SHL SUB DUP2 AND PUSH1 0x0 DUP2 DUP2 MSTORE PUSH1 0xE PUSH1 0x20 MSTORE PUSH1 0x40 SWAP1 DUP2 SWAP1 KECCAK256 SLOAD SWAP1 MLOAD PUSH4 0xA9059CBB PUSH1 0xE0 SHL DUP2 MSTORE PUSH1 0x4 DUP2 ADD SWAP3 SWAP1 SWAP3 MSTORE PUSH1 0x24 DUP3 ADD MSTORE PUSH20 0xC6F06B32E6AE0C110861B8607E67DA594781961 SWAP1 PUSH4 0xA9059CBB SWAP1 PUSH1 0x44 ADD PUSH1 0x20 PUSH1 0x40 MLOAD DUP1 DUP4 SUB DUP2 PUSH1 0x0 DUP8 GAS CALL ISZERO DUP1 ISZERO PUSH2 0x16F7 JUMPI RETURNDATASIZE PUSH1 0x0 DUP1 RETURNDATACOPY RETURNDATASIZE PUSH1 0x0 REVERT JUMPDEST POP POP POP POP PUSH1 0x40 MLOAD RETURNDATASIZE PUSH1 0x1F NOT PUSH1 0x1F DUP3 ADD AND DUP3 ADD DUP1 PUSH1 0x40 MSTORE POP DUP2 ADD SWAP1 PUSH2 0x171B SWAP2 SWAP1 PUSH2 0x2159 JUMP JUMPDEST POP PUSH1 0x1 PUSH1 0x1 PUSH1 0xA0 SHL SUB DUP2 AND PUSH1 0x0 SWAP1 DUP2 MSTORE PUSH1 0xE PUSH1 0x20 MSTORE PUSH1 0x40 DUP1 DUP3 KECCAK256 SWAP2 SWAP1 SWAP2 SSTORE MLOAD PUSH4 0x70A08231 PUSH1 0xE0 SHL DUP2 MSTORE ADDRESS PUSH1 0x4 DUP3 ADD MSTORE PUSH20 0xC6F06B32E6AE0C110861B8607E67DA594781961 SWAP1 PUSH4 0x70A08231 SWAP1 PUSH1 0x24 ADD PUSH1 0x20 PUSH1 0x40 MLOAD DUP1 DUP4 SUB DUP2 DUP7 GAS STATICCALL ISZERO DUP1 ISZERO PUSH2 0x1786 JUMPI RETURNDATASIZE PUSH1 0x0 DUP1 RETURNDATACOPY RETURNDATASIZE PUSH1 0x0 REVERT JUMPDEST POP POP POP POP PUSH1 0x40 MLOAD RETURNDATASIZE PUSH1 0x1F NOT PUSH1 0x1F DUP3 ADD AND DUP3 ADD DUP1 PUSH1 0x40 MSTORE POP DUP2 ADD SWAP1 PUSH2 0x17AA SWAP2 SWAP1 PUSH2 0x20F5 JUMP JUMPDEST PUSH1 0xC SSTORE POP JUMP JUMPDEST PUSH1 0x1 PUSH1 0x1 PUSH1 0xA0 SHL SUB DUP1 DUP4 AND PUSH1 0x0 DUP2 DUP2 MSTORE PUSH1 0x1 PUSH1 0x20 DUP2 DUP2 MSTORE PUSH1 0x40 DUP1 DUP5 KECCAK256 DUP1 SLOAD PUSH1 0x5 DUP5 MSTORE DUP3 DUP7 KECCAK256 SLOAD SWAP5 SWAP1 SWAP4 MSTORE DUP8 DUP8 AND PUSH1 0x1 PUSH1 0x1 PUSH1 0xA0 SHL SUB NOT DUP5 AND DUP2 OR SWAP1 SWAP2 SSTORE SWAP1 MLOAD SWAP2 SWAP1 SWAP6 AND SWAP5 SWAP2 SWAP4 SWAP2 SWAP3 DUP6 SWAP3 SWAP2 PUSH32 0x3134E8A2E6D97E929A7E54011EA5485D7D196DD5F0BA4D4EF95803E8E3FC257F SWAP2 SWAP1 LOG4 PUSH2 0x88C DUP3 DUP5 DUP4 PUSH2 0x19A0 JUMP JUMPDEST PUSH1 0x40 MLOAD PUSH4 0x23B872DD PUSH1 0xE0 SHL DUP2 MSTORE CALLER PUSH1 0x4 DUP3 ADD MSTORE PUSH20 0xD8AB4CB61BCAA6CD506D10E7C572C418CC0D0D4 PUSH1 0x24 DUP3 ADD MSTORE PUSH1 0x44 DUP2 ADD DUP3 SWAP1 MSTORE PUSH20 0xF1DC500FDE233A4055E25E5BBF516372BC4F6871 SWAP1 PUSH4 0x23B872DD SWAP1 PUSH1 0x64 ADD PUSH1 0x20 PUSH1 0x40 MLOAD DUP1 DUP4 SUB DUP2 PUSH1 0x0 DUP8 GAS CALL ISZERO DUP1 ISZERO PUSH2 0x189C JUMPI RETURNDATASIZE PUSH1 0x0 DUP1 RETURNDATACOPY RETURNDATASIZE PUSH1 0x0 REVERT JUMPDEST POP POP POP POP PUSH1 0x40 MLOAD RETURNDATASIZE PUSH1 0x1F NOT PUSH1 0x1F DUP3 ADD AND DUP3 ADD DUP1 PUSH1 0x40 MSTORE POP DUP2 ADD SWAP1 PUSH2 0x18C0 SWAP2 SWAP1 PUSH2 0x2159 JUMP JUMPDEST POP PUSH2 0x18CB CALLER DUP3 PUSH2 0x1B40 JUMP JUMPDEST PUSH1 0x9 PUSH1 0x0 SWAP1 SLOAD SWAP1 PUSH2 0x100 EXP SWAP1 DIV PUSH1 0x1 PUSH1 0x1 PUSH1 0xA0 SHL SUB AND PUSH1 0x1 PUSH1 0x1 PUSH1 0xA0 SHL SUB AND PUSH4 0xF83D08BA PUSH1 0x40 MLOAD DUP2 PUSH4 0xFFFFFFFF AND PUSH1 0xE0 SHL DUP2 MSTORE PUSH1 0x4 ADD PUSH1 0x0 PUSH1 0x40 MLOAD DUP1 DUP4 SUB DUP2 PUSH1 0x0 DUP8 DUP1 EXTCODESIZE ISZERO DUP1 ISZERO PUSH2 0x191B JUMPI PUSH1 0x0 DUP1 REVERT JUMPDEST POP GAS CALL ISZERO DUP1 ISZERO PUSH2 0x192F JUMPI RETURNDATASIZE PUSH1 0x0 DUP1 RETURNDATACOPY RETURNDATASIZE PUSH1 0x0 REVERT JUMPDEST POP POP POP POP POP JUMP JUMPDEST PUSH1 0xA SLOAD PUSH1 0x1 PUSH1 0x1 PUSH1 0xA0 SHL SUB AND ISZERO PUSH2 0xA74 JUMPI PUSH1 0xA SLOAD PUSH1 0x40 MLOAD PUSH4 0xF41A04D PUSH1 0xE1 SHL DUP2 MSTORE ADDRESS PUSH1 0x4 DUP3 ADD MSTORE PUSH1 0x1 PUSH1 0x1 PUSH1 0xA0 SHL SUB SWAP1 SWAP2 AND SWAP1 PUSH4 0x1E83409A SWAP1 PUSH1 0x24 ADD PUSH1 0x0 PUSH1 0x40 MLOAD DUP1 DUP4 SUB DUP2 PUSH1 0x0 DUP8 DUP1 EXTCODESIZE ISZERO DUP1 ISZERO PUSH2 0x198C JUMPI PUSH1 0x0 DUP1 REVERT JUMPDEST POP GAS CALL ISZERO DUP1 ISZERO PUSH2 0x88C JUMPI RETURNDATASIZE PUSH1 0x0 DUP1 RETURNDATACOPY RETURNDATASIZE PUSH1 0x0 REVERT JUMPDEST DUP2 PUSH1 0x1 PUSH1 0x1 PUSH1 0xA0 SHL SUB AND DUP4 PUSH1 0x1 PUSH1 0x1 PUSH1 0xA0 SHL SUB AND EQ ISZERO DUP1 ISZERO PUSH2 0x19C2 JUMPI POP PUSH1 0x0 DUP2 GT JUMPDEST ISZERO PUSH2 0x1482 JUMPI PUSH1 0x1 PUSH1 0x1 PUSH1 0xA0 SHL SUB DUP4 AND ISZERO PUSH2 0x1A9E JUMPI PUSH1 0x1 PUSH1 0x1 PUSH1 0xA0 SHL SUB DUP4 AND PUSH1 0x0 SWAP1 DUP2 MSTORE PUSH1 0x3 PUSH1 0x20 MSTORE PUSH1 0x40 DUP2 KECCAK256 SLOAD PUSH4 0xFFFFFFFF AND SWAP1 DUP2 PUSH2 0x1A02 JUMPI PUSH1 0x0 PUSH2 0x1A45 JUMP JUMPDEST PUSH1 0x1 PUSH1 0x1 PUSH1 0xA0 SHL SUB DUP6 AND PUSH1 0x0 SWAP1 DUP2 MSTORE PUSH1 0x2 PUSH1 0x20 MSTORE PUSH1 0x40 DUP2 KECCAK256 SWAP1 PUSH2 0x1A26 PUSH1 0x1 DUP6 PUSH2 0x207C JUMP JUMPDEST PUSH4 0xFFFFFFFF AND PUSH4 0xFFFFFFFF AND DUP2 MSTORE PUSH1 0x20 ADD SWAP1 DUP2 MSTORE PUSH1 0x20 ADD PUSH1 0x0 KECCAK256 PUSH1 0x1 ADD SLOAD JUMPDEST SWAP1 POP PUSH1 0x0 PUSH2 0x1A8C DUP5 PUSH1 0x40 MLOAD DUP1 PUSH1 0x40 ADD PUSH1 0x40 MSTORE DUP1 PUSH1 0x16 DUP2 MSTORE PUSH1 0x20 ADD PUSH22 0x5F6D6F7665566F7465733A20756E646572666C6F7773 PUSH1 0x50 SHL DUP2 MSTORE POP DUP5 PUSH2 0x1487 SWAP1 SWAP3 SWAP2 SWAP1 PUSH4 0xFFFFFFFF AND JUMP JUMPDEST SWAP1 POP PUSH2 0x1A9A DUP7 DUP5 DUP5 DUP5 PUSH2 0x1BF9 JUMP JUMPDEST POP POP POP JUMPDEST PUSH1 0x1 PUSH1 0x1 PUSH1 0xA0 SHL SUB DUP3 AND ISZERO PUSH2 0x1482 JUMPI PUSH1 0x1 PUSH1 0x1 PUSH1 0xA0 SHL SUB DUP3 AND PUSH1 0x0 SWAP1 DUP2 MSTORE PUSH1 0x3 PUSH1 0x20 MSTORE PUSH1 0x40 DUP2 KECCAK256 SLOAD PUSH4 0xFFFFFFFF AND SWAP1 DUP2 PUSH2 0x1AD9 JUMPI PUSH1 0x0 PUSH2 0x1B1C JUMP JUMPDEST PUSH1 0x1 PUSH1 0x1 PUSH1 0xA0 SHL SUB DUP5 AND PUSH1 0x0 SWAP1 DUP2 MSTORE PUSH1 0x2 PUSH1 0x20 MSTORE PUSH1 0x40 DUP2 KECCAK256 SWAP1 PUSH2 0x1AFD PUSH1 0x1 DUP6 PUSH2 0x207C JUMP JUMPDEST PUSH4 0xFFFFFFFF AND PUSH4 0xFFFFFFFF AND DUP2 MSTORE PUSH1 0x20 ADD SWAP1 DUP2 MSTORE PUSH1 0x20 ADD PUSH1 0x0 KECCAK256 PUSH1 0x1 ADD SLOAD JUMPDEST SWAP1 POP PUSH1 0x0 PUSH2 0x1B2A DUP3 DUP6 PUSH2 0x14CB JUMP JUMPDEST SWAP1 POP PUSH2 0x1B38 DUP6 DUP5 DUP5 DUP5 PUSH2 0x1BF9 JUMP JUMPDEST POP POP POP POP POP POP JUMP JUMPDEST PUSH2 0x1B49 DUP3 PUSH2 0x798 JUMP JUMPDEST PUSH1 0x0 SLOAD PUSH2 0x1B56 SWAP1 DUP3 PUSH2 0x14CB JUMP JUMPDEST PUSH1 0x0 SWAP1 DUP2 SSTORE PUSH1 0x1 PUSH1 0x1 PUSH1 0xA0 SHL SUB DUP4 AND DUP2 MSTORE PUSH1 0x5 PUSH1 0x20 MSTORE PUSH1 0x40 SWAP1 KECCAK256 SLOAD PUSH2 0x1B7B SWAP1 DUP3 PUSH2 0x14CB JUMP JUMPDEST PUSH1 0x1 PUSH1 0x1 PUSH1 0xA0 SHL SUB DUP4 AND PUSH1 0x0 DUP2 DUP2 MSTORE PUSH1 0x5 PUSH1 0x20 MSTORE PUSH1 0x40 DUP1 DUP3 KECCAK256 SWAP4 SWAP1 SWAP4 SSTORE SWAP2 MLOAD SWAP1 SWAP2 SWAP1 PUSH32 0xDDF252AD1BE2C89B69C2B068FC378DAA952BA7F163C4A11628F55A4DF523B3EF SWAP1 PUSH2 0x1BCC SWAP1 DUP6 DUP2 MSTORE PUSH1 0x20 ADD SWAP1 JUMP JUMPDEST PUSH1 0x40 MLOAD DUP1 SWAP2 SUB SWAP1 LOG3 PUSH1 0x1 PUSH1 0x1 PUSH1 0xA0 SHL SUB DUP1 DUP4 AND PUSH1 0x0 SWAP1 DUP2 MSTORE PUSH1 0x1 PUSH1 0x20 MSTORE PUSH1 0x40 DUP2 KECCAK256 SLOAD PUSH2 0x8AF SWAP3 AND DUP4 PUSH2 0x19A0 JUMP JUMPDEST PUSH1 0x0 PUSH2 0x1C3A NUMBER PUSH1 0x40 MLOAD DUP1 PUSH1 0x40 ADD PUSH1 0x40 MSTORE DUP1 PUSH1 0x19 DUP2 MSTORE PUSH1 0x20 ADD PUSH32 0x5F7772697465436865636B706F696E743A203332206269747300000000000000 DUP2 MSTORE POP PUSH2 0x1DB8 JUMP JUMPDEST SWAP1 POP PUSH1 0x0 DUP5 PUSH4 0xFFFFFFFF AND GT DUP1 ISZERO PUSH2 0x1C94 JUMPI POP PUSH1 0x1 PUSH1 0x1 PUSH1 0xA0 SHL SUB DUP6 AND PUSH1 0x0 SWAP1 DUP2 MSTORE PUSH1 0x2 PUSH1 0x20 MSTORE PUSH1 0x40 DUP2 KECCAK256 PUSH4 0xFFFFFFFF DUP4 AND SWAP2 PUSH2 0x1C78 PUSH1 0x1 DUP9 PUSH2 0x207C JUMP JUMPDEST PUSH4 0xFFFFFFFF SWAP1 DUP2 AND DUP3 MSTORE PUSH1 0x20 DUP3 ADD SWAP3 SWAP1 SWAP3 MSTORE PUSH1 0x40 ADD PUSH1 0x0 KECCAK256 SLOAD AND EQ JUMPDEST ISZERO PUSH2 0x1CDD JUMPI PUSH1 0x1 PUSH1 0x1 PUSH1 0xA0 SHL SUB DUP6 AND PUSH1 0x0 SWAP1 DUP2 MSTORE PUSH1 0x2 PUSH1 0x20 MSTORE PUSH1 0x40 DUP2 KECCAK256 DUP4 SWAP2 PUSH2 0x1CBE PUSH1 0x1 DUP9 PUSH2 0x207C JUMP JUMPDEST PUSH4 0xFFFFFFFF AND DUP2 MSTORE PUSH1 0x20 DUP2 ADD SWAP2 SWAP1 SWAP2 MSTORE PUSH1 0x40 ADD PUSH1 0x0 KECCAK256 PUSH1 0x1 ADD SSTORE PUSH2 0x1D6D JUMP JUMPDEST PUSH1 0x40 DUP1 MLOAD DUP1 DUP3 ADD DUP3 MSTORE PUSH4 0xFFFFFFFF DUP4 DUP2 AND DUP3 MSTORE PUSH1 0x20 DUP1 DUP4 ADD DUP7 DUP2 MSTORE PUSH1 0x1 PUSH1 0x1 PUSH1 0xA0 SHL SUB DUP11 AND PUSH1 0x0 SWAP1 DUP2 MSTORE PUSH1 0x2 DUP4 MSTORE DUP6 DUP2 KECCAK256 DUP11 DUP6 AND DUP3 MSTORE SWAP1 SWAP3 MSTORE SWAP4 SWAP1 KECCAK256 SWAP2 MLOAD DUP3 SLOAD PUSH4 0xFFFFFFFF NOT AND SWAP2 AND OR DUP2 SSTORE SWAP1 MLOAD PUSH1 0x1 SWAP2 DUP3 ADD SSTORE PUSH2 0x1D3C SWAP1 DUP6 SWAP1 PUSH2 0x217B JUMP JUMPDEST PUSH1 0x1 PUSH1 0x1 PUSH1 0xA0 SHL SUB DUP7 AND PUSH1 0x0 SWAP1 DUP2 MSTORE PUSH1 0x3 PUSH1 0x20 MSTORE PUSH1 0x40 SWAP1 KECCAK256 DUP1 SLOAD PUSH4 0xFFFFFFFF NOT AND PUSH4 0xFFFFFFFF SWAP3 SWAP1 SWAP3 AND SWAP2 SWAP1 SWAP2 OR SWAP1 SSTORE JUMPDEST PUSH1 0x40 DUP1 MLOAD DUP5 DUP2 MSTORE PUSH1 0x20 DUP2 ADD DUP5 SWAP1 MSTORE PUSH1 0x1 PUSH1 0x1 PUSH1 0xA0 SHL SUB DUP8 AND SWAP2 PUSH32 0xDEC2BACDD2F05B59DE34DA9B523DFF8BE42E5E38E818C82FDB0BAE774387A724 SWAP2 ADD PUSH1 0x40 MLOAD DUP1 SWAP2 SUB SWAP1 LOG2 POP POP POP POP POP JUMP JUMPDEST PUSH1 0x0 DUP2 PUSH5 0x100000000 DUP5 LT PUSH2 0x1DE0 JUMPI PUSH1 0x40 MLOAD PUSH3 0x461BCD PUSH1 0xE5 SHL DUP2 MSTORE PUSH1 0x4 ADD PUSH2 0x8DD SWAP2 SWAP1 PUSH2 0x1DE8 JUMP JUMPDEST POP SWAP2 SWAP3 SWAP2 POP POP JUMP JUMPDEST PUSH1 0x0 PUSH1 0x20 DUP1 DUP4 MSTORE DUP4 MLOAD DUP1 DUP3 DUP6 ADD MSTORE PUSH1 0x0 JUMPDEST DUP2 DUP2 LT ISZERO PUSH2 0x1E15 JUMPI DUP6 DUP2 ADD DUP4 ADD MLOAD DUP6 DUP3 ADD PUSH1 0x40 ADD MSTORE DUP3 ADD PUSH2 0x1DF9 JUMP JUMPDEST DUP2 DUP2 GT ISZERO PUSH2 0x1E27 JUMPI PUSH1 0x0 PUSH1 0x40 DUP4 DUP8 ADD ADD MSTORE JUMPDEST POP PUSH1 0x1F ADD PUSH1 0x1F NOT AND SWAP3 SWAP1 SWAP3 ADD PUSH1 0x40 ADD SWAP4 SWAP3 POP POP POP JUMP JUMPDEST DUP1 CALLDATALOAD PUSH1 0x1 PUSH1 0x1 PUSH1 0xA0 SHL SUB DUP2 AND DUP2 EQ PUSH2 0x1E54 JUMPI PUSH1 0x0 DUP1 REVERT JUMPDEST SWAP2 SWAP1 POP JUMP JUMPDEST PUSH1 0x0 DUP1 PUSH1 0x40 DUP4 DUP6 SUB SLT ISZERO PUSH2 0x1E6C JUMPI PUSH1 0x0 DUP1 REVERT JUMPDEST PUSH2 0x1E75 DUP4 PUSH2 0x1E3D JUMP JUMPDEST SWAP5 PUSH1 0x20 SWAP4 SWAP1 SWAP4 ADD CALLDATALOAD SWAP4 POP POP POP JUMP JUMPDEST PUSH1 0x0 PUSH1 0x20 DUP3 DUP5 SUB SLT ISZERO PUSH2 0x1E95 JUMPI PUSH1 0x0 DUP1 REVERT JUMPDEST PUSH2 0xDED DUP3 PUSH2 0x1E3D JUMP JUMPDEST PUSH1 0x0 DUP1 PUSH1 0x0 PUSH1 0x60 DUP5 DUP7 SUB SLT ISZERO PUSH2 0x1EB3 JUMPI PUSH1 0x0 DUP1 REVERT JUMPDEST PUSH2 0x1EBC DUP5 PUSH2 0x1E3D JUMP JUMPDEST SWAP3 POP PUSH2 0x1ECA PUSH1 0x20 DUP6 ADD PUSH2 0x1E3D JUMP JUMPDEST SWAP2 POP PUSH1 0x40 DUP5 ADD CALLDATALOAD SWAP1 POP SWAP3 POP SWAP3 POP SWAP3 JUMP JUMPDEST PUSH1 0x0 PUSH1 0x20 DUP3 DUP5 SUB SLT ISZERO PUSH2 0x1EEC JUMPI PUSH1 0x0 DUP1 REVERT JUMPDEST POP CALLDATALOAD SWAP2 SWAP1 POP JUMP JUMPDEST DUP1 CALLDATALOAD PUSH1 0xFF DUP2 AND DUP2 EQ PUSH2 0x1E54 JUMPI PUSH1 0x0 DUP1 REVERT JUMPDEST PUSH1 0x0 DUP1 PUSH1 0x0 DUP1 PUSH1 0x0 DUP1 PUSH1 0xC0 DUP8 DUP10 SUB SLT ISZERO PUSH2 0x1F1D JUMPI PUSH1 0x0 DUP1 REVERT JUMPDEST PUSH2 0x1F26 DUP8 PUSH2 0x1E3D JUMP JUMPDEST SWAP6 POP PUSH1 0x20 DUP8 ADD CALLDATALOAD SWAP5 POP PUSH1 0x40 DUP8 ADD CALLDATALOAD SWAP4 POP PUSH2 0x1F42 PUSH1 0x60 DUP9 ADD PUSH2 0x1EF3 JUMP JUMPDEST SWAP3 POP PUSH1 0x80 DUP8 ADD CALLDATALOAD SWAP2 POP PUSH1 0xA0 DUP8 ADD CALLDATALOAD SWAP1 POP SWAP3 SWAP6 POP SWAP3 SWAP6 POP SWAP3 SWAP6 JUMP JUMPDEST PUSH1 0x0 DUP1 PUSH1 0x0 DUP1 PUSH1 0x0 DUP1 PUSH1 0x0 PUSH1 0xE0 DUP9 DUP11 SUB SLT ISZERO PUSH2 0x1F77 JUMPI PUSH1 0x0 DUP1 REVERT JUMPDEST PUSH2 0x1F80 DUP9 PUSH2 0x1E3D JUMP JUMPDEST SWAP7 POP PUSH2 0x1F8E PUSH1 0x20 DUP10 ADD PUSH2 0x1E3D JUMP JUMPDEST SWAP6 POP PUSH1 0x40 DUP9 ADD CALLDATALOAD SWAP5 POP PUSH1 0x60 DUP9 ADD CALLDATALOAD SWAP4 POP PUSH2 0x1FAA PUSH1 0x80 DUP10 ADD PUSH2 0x1EF3 JUMP JUMPDEST SWAP3 POP PUSH1 0xA0 DUP9 ADD CALLDATALOAD SWAP2 POP PUSH1 0xC0 DUP9 ADD CALLDATALOAD SWAP1 POP SWAP3 SWAP6 SWAP9 SWAP2 SWAP5 SWAP8 POP SWAP3 SWAP6 POP JUMP JUMPDEST PUSH1 0x0 DUP1 PUSH1 0x40 DUP4 DUP6 SUB SLT ISZERO PUSH2 0x1FD9 JUMPI PUSH1 0x0 DUP1 REVERT JUMPDEST PUSH2 0x1FE2 DUP4 PUSH2 0x1E3D JUMP JUMPDEST SWAP2 POP PUSH2 0x1FF0 PUSH1 0x20 DUP5 ADD PUSH2 0x1E3D JUMP JUMPDEST SWAP1 POP SWAP3 POP SWAP3 SWAP1 POP JUMP JUMPDEST PUSH1 0x0 DUP1 PUSH1 0x40 DUP4 DUP6 SUB SLT ISZERO PUSH2 0x200C JUMPI PUSH1 0x0 DUP1 REVERT JUMPDEST PUSH2 0x2015 DUP4 PUSH2 0x1E3D JUMP JUMPDEST SWAP2 POP PUSH1 0x20 DUP4 ADD CALLDATALOAD PUSH4 0xFFFFFFFF DUP2 AND DUP2 EQ PUSH2 0x202E JUMPI PUSH1 0x0 DUP1 REVERT JUMPDEST DUP1 SWAP2 POP POP SWAP3 POP SWAP3 SWAP1 POP JUMP JUMPDEST PUSH1 0x20 DUP1 DUP3 MSTORE PUSH1 0x13 SWAP1 DUP3 ADD MSTORE PUSH19 0x39B2BA23B7BB32B93730B731B29D1010B3B7BB PUSH1 0x69 SHL PUSH1 0x40 DUP3 ADD MSTORE PUSH1 0x60 ADD SWAP1 JUMP JUMPDEST PUSH4 0x4E487B71 PUSH1 0xE0 SHL PUSH1 0x0 MSTORE PUSH1 0x11 PUSH1 0x4 MSTORE PUSH1 0x24 PUSH1 0x0 REVERT JUMPDEST PUSH1 0x0 PUSH4 0xFFFFFFFF DUP4 DUP2 AND SWAP1 DUP4 AND DUP2 DUP2 LT ISZERO PUSH2 0x2099 JUMPI PUSH2 0x2099 PUSH2 0x2066 JUMP JUMPDEST SUB SWAP4 SWAP3 POP POP POP JUMP JUMPDEST PUSH4 0x4E487B71 PUSH1 0xE0 SHL PUSH1 0x0 MSTORE PUSH1 0x12 PUSH1 0x4 MSTORE PUSH1 0x24 PUSH1 0x0 REVERT JUMPDEST PUSH1 0x0 PUSH4 0xFFFFFFFF DUP1 DUP5 AND DUP1 PUSH2 0x20CE JUMPI PUSH2 0x20CE PUSH2 0x20A1 JUMP JUMPDEST SWAP3 AND SWAP2 SWAP1 SWAP2 DIV SWAP3 SWAP2 POP POP JUMP JUMPDEST PUSH1 0x0 PUSH1 0x0 NOT DUP3 EQ ISZERO PUSH2 0x20EE JUMPI PUSH2 0x20EE PUSH2 0x2066 JUMP JUMPDEST POP PUSH1 0x1 ADD SWAP1 JUMP JUMPDEST PUSH1 0x0 PUSH1 0x20 DUP3 DUP5 SUB SLT ISZERO PUSH2 0x2107 JUMPI PUSH1 0x0 DUP1 REVERT JUMPDEST POP MLOAD SWAP2 SWAP1 POP JUMP JUMPDEST PUSH1 0x0 DUP2 PUSH1 0x0 NOT DIV DUP4 GT DUP3 ISZERO ISZERO AND ISZERO PUSH2 0x2128 JUMPI PUSH2 0x2128 PUSH2 0x2066 JUMP JUMPDEST POP MUL SWAP1 JUMP JUMPDEST PUSH1 0x0 DUP3 PUSH2 0x213C JUMPI PUSH2 0x213C PUSH2 0x20A1 JUMP JUMPDEST POP DIV SWAP1 JUMP JUMPDEST PUSH1 0x0 DUP3 NOT DUP3 GT ISZERO PUSH2 0x2154 JUMPI PUSH2 0x2154 PUSH2 0x2066 JUMP JUMPDEST POP ADD SWAP1 JUMP JUMPDEST PUSH1 0x0 PUSH1 0x20 DUP3 DUP5 SUB SLT ISZERO PUSH2 0x216B JUMPI PUSH1 0x0 DUP1 REVERT JUMPDEST DUP2 MLOAD DUP1 ISZERO ISZERO DUP2 EQ PUSH2 0xDED JUMPI PUSH1 0x0 DUP1 REVERT JUMPDEST PUSH1 0x0 PUSH4 0xFFFFFFFF DUP1 DUP4 AND DUP2 DUP6 AND DUP1 DUP4 SUB DUP3 GT ISZERO PUSH2 0x219A JUMPI PUSH2 0x219A PUSH2 0x2066 JUMP JUMPDEST ADD SWAP5 SWAP4 POP POP POP POP JUMP INVALID PUSH21 0x72616E7366657246726F6D3A206578636565647320 PUSH20 0x70656E64657220616C6C6F77616E6365A2646970 PUSH7 0x735822122024A2 DUP14 0xB2 0xB7 PUSH32 0x1E284830185869BFD59DCEF9BF9157E4D13F8359FD479F725CC764736F6C6343 STOP ADDMOD 0xC STOP CALLER ",
  "sha1": "a9e352a07d6a5974df895e2761a58896240bad69",
  "source": "// SPDX-License-Identifier: MIT\npragma solidity ^0.8.12;\n\n// From https://github.com/OpenZeppelin/openzeppelin-contracts/blob/master/contracts/math/Math.sol\n// Subject to the MIT license.\n\nimport \"@openzeppelin/contracts/utils/math/SafeMath.sol\";\nimport \"@openzeppelin/contracts/token/ERC20/IERC20.sol\";\n\ninterface StrategyProxy {\n    function lock() external;\n}\n\ninterface FeeDistribution {\n    function claim(address) external;\n}\n\ncontract veSaddleVault {\n    using SafeMath for uint;\n\n    /// @notice EIP-20 token name for this token\n    string public constant name = \"veSDL-DAO agVault\";\n\n    /// @notice EIP-20 token symbol for this token\n    string public constant symbol = \"agveSDL-DAO\";\n\n    /// @notice EIP-20 token decimals for this token\n    uint8 public constant decimals = 18;\n\n    /// @notice Total number of tokens in circulation\n    uint public totalSupply = 0; // Initial 0\n\n    /// @notice A record of each accounts delegate\n    mapping (address => address) public delegates;\n\n    /// @notice A record of votes checkpoints for each account, by index\n    mapping (address => mapping (uint32 => Checkpoint)) public checkpoints;\n\n    /// @notice The number of checkpoints for each account\n    mapping (address => uint32) public numCheckpoints;\n\n    mapping (address => mapping (address => uint)) internal allowances;\n    mapping (address => uint) internal balances;\n\n    /// @notice The EIP-712 typehash for the contract's domain\n    bytes32 public constant DOMAIN_TYPEHASH = keccak256(\"EIP712Domain(string name,uint chainId,address verifyingContract)\");\n    bytes32 public immutable DOMAINSEPARATOR;\n\n    /// @notice The EIP-712 typehash for the delegation struct used by the contract\n    bytes32 public constant DELEGATION_TYPEHASH = keccak256(\"Delegation(address delegatee,uint nonce,uint expiry)\");\n\n    /// @notice The EIP-712 typehash for the permit struct used by the contract\n    bytes32 public constant PERMIT_TYPEHASH = keccak256(\"Permit(address owner,address spender,uint value,uint nonce,uint deadline)\");\n\n\n    /// @notice A record of states for signing / validating signatures\n    mapping (address => uint) public nonces;\n\n    /// @notice An event thats emitted when an account changes its delegate\n    event DelegateChanged(address indexed delegator, address indexed fromDelegate, address indexed toDelegate);\n\n    /// @notice An event thats emitted when a delegate account's vote balance changes\n    event DelegateVotesChanged(address indexed delegate, uint previousBalance, uint newBalance);\n\n    /// @notice A checkpoint for marking number of votes from a given block\n    struct Checkpoint {\n        uint32 fromBlock;\n        uint votes;\n    }\n\n    /**\n     * @notice Delegate votes from `msg.sender` to `delegatee`\n     * @param delegatee The address to delegate votes to\n     */\n    function delegate(address delegatee) public {\n        _delegate(msg.sender, delegatee);\n    }\n\n    /**\n     * @notice Delegates votes from signatory to `delegatee`\n     * @param delegatee The address to delegate votes to\n     * @param nonce The contract state required to match the signature\n     * @param expiry The time at which to expire the signature\n     * @param v The recovery byte of the signature\n     * @param r Half of the ECDSA signature pair\n     * @param s Half of the ECDSA signature pair\n     */\n    function delegateBySig(address delegatee, uint nonce, uint expiry, uint8 v, bytes32 r, bytes32 s) public {\n        bytes32 structHash = keccak256(abi.encode(DELEGATION_TYPEHASH, delegatee, nonce, expiry));\n        bytes32 digest = keccak256(abi.encodePacked(\"\\x19\\x01\", DOMAINSEPARATOR, structHash));\n        address signatory = ecrecover(digest, v, r, s);\n        require(signatory != address(0), \"delegateBySig: sig\");\n        require(nonce == nonces[signatory]++, \"delegateBySig: nonce\");\n        require(block.timestamp <= expiry, \"delegateBySig: expired\");\n        _delegate(signatory, delegatee);\n    }\n\n    /**\n     * @notice Gets the current votes balance for `account`\n     * @param account The address to get votes balance\n     * @return The number of current votes for `account`\n     */\n    function getCurrentVotes(address account) external view returns (uint) {\n        uint32 nCheckpoints = numCheckpoints[account];\n        return nCheckpoints > 0 ? checkpoints[account][nCheckpoints - 1].votes : 0;\n    }\n\n    /**\n     * @notice Determine the prior number of votes for an account as of a block number\n     * @dev Block number must be a finalized block or else this function will revert to prevent misinformation.\n     * @param account The address of the account to check\n     * @param blockNumber The block number to get the vote balance at\n     * @return The number of votes the account had as of the given block\n     */\n    function getPriorVotes(address account, uint blockNumber) public view returns (uint) {\n        require(blockNumber < block.number, \"getPriorVotes:\");\n\n        uint32 nCheckpoints = numCheckpoints[account];\n        if (nCheckpoints == 0) {\n            return 0;\n        }\n\n        // First check most recent balance\n        if (checkpoints[account][nCheckpoints - 1].fromBlock <= blockNumber) {\n            return checkpoints[account][nCheckpoints - 1].votes;\n        }\n\n        // Next check implicit zero balance\n        if (checkpoints[account][0].fromBlock > blockNumber) {\n            return 0;\n        }\n\n        uint32 lower = 0;\n        uint32 upper = nCheckpoints - 1;\n        while (upper > lower) {\n            uint32 center = upper - (upper - lower) / 2; // ceil, avoiding overflow\n            Checkpoint memory cp = checkpoints[account][center];\n            if (cp.fromBlock == blockNumber) {\n                return cp.votes;\n            } else if (cp.fromBlock < blockNumber) {\n                lower = center;\n            } else {\n                upper = center - 1;\n            }\n        }\n        return checkpoints[account][lower].votes;\n    }\n\n    function _delegate(address delegator, address delegatee) internal {\n        address currentDelegate = delegates[delegator];\n        uint delegatorBalance = balances[delegator];\n        delegates[delegator] = delegatee;\n\n        emit DelegateChanged(delegator, currentDelegate, delegatee);\n\n        _moveDelegates(currentDelegate, delegatee, delegatorBalance);\n    }\n\n    function _moveDelegates(address srcRep, address dstRep, uint amount) internal {\n        if (srcRep != dstRep && amount > 0) {\n            if (srcRep != address(0)) {\n                uint32 srcRepNum = numCheckpoints[srcRep];\n                uint srcRepOld = srcRepNum > 0 ? checkpoints[srcRep][srcRepNum - 1].votes : 0;\n                uint srcRepNew = srcRepOld.sub(amount, \"_moveVotes: underflows\");\n                _writeCheckpoint(srcRep, srcRepNum, srcRepOld, srcRepNew);\n            }\n\n            if (dstRep != address(0)) {\n                uint32 dstRepNum = numCheckpoints[dstRep];\n                uint dstRepOld = dstRepNum > 0 ? checkpoints[dstRep][dstRepNum - 1].votes : 0;\n                uint dstRepNew = dstRepOld.add(amount);\n                _writeCheckpoint(dstRep, dstRepNum, dstRepOld, dstRepNew);\n            }\n        }\n    }\n\n    function _writeCheckpoint(address delegatee, uint32 nCheckpoints, uint oldVotes, uint newVotes) internal {\n      uint32 blockNumber = safe32(block.number, \"_writeCheckpoint: 32 bits\");\n\n      if (nCheckpoints > 0 && checkpoints[delegatee][nCheckpoints - 1].fromBlock == blockNumber) {\n          checkpoints[delegatee][nCheckpoints - 1].votes = newVotes;\n      } else {\n          checkpoints[delegatee][nCheckpoints] = Checkpoint(blockNumber, newVotes);\n          numCheckpoints[delegatee] = nCheckpoints + 1;\n      }\n\n      emit DelegateVotesChanged(delegatee, oldVotes, newVotes);\n    }\n\n    function safe32(uint n, string memory errorMessage) internal pure returns (uint32) {\n        require(n < 2**32, errorMessage);\n        return uint32(n);\n    }\n\n    /// @notice The standard EIP-20 transfer event\n    event Transfer(address indexed from, address indexed to, uint amount);\n\n    /// @notice The standard EIP-20 approval event\n    event Approval(address indexed owner, address indexed spender, uint amount);\n\n    /// @notice governance address for the governance contract\n    address public governance;\n    address public pendingGovernance;\n    \n    IERC20 public constant SDL = IERC20(0xf1Dc500FdE233A4055e25e5BbF516372BC4F6871);\n    address public constant LOCK = address(0x0d8aB4Cb61bCaa6cD506d10e7C572C418CC0d0D4); // TODO change to slpVoter\n    address public proxy = address(0x882094c153D83DA48Df9660e7470a478199f1bd5); // TODO change to StrategyProxy (can be changed runtime)\n    address public feeDistribution;\n    \n    IERC20 public constant rewards = IERC20(0x0C6F06b32E6Ae0C110861b8607e67dA594781961); //Sushiswap: SDL/WETH\n    \n    uint public index = 0;\n    uint public bal = 0;\n    \n    mapping(address => uint) public supplyIndex;\n    \n    function update() external {\n        _update();\n    }\n    \n    function _update() internal {\n        if (totalSupply > 0) {\n            _claim();\n            uint256 _bal = rewards.balanceOf(address(this));\n            if (_bal > bal) {\n                uint256 _diff = _bal.sub(bal, \"veSDL::_update: bal _diff\");\n                if (_diff > 0) {\n                    uint256 _ratio = _diff.mul(1e18).div(totalSupply);\n                    if (_ratio > 0) {\n                      index = index.add(_ratio);\n                      bal = _bal;\n                    }\n                }\n            }\n        }\n    }\n    \n    function _claim() internal {\n        if (feeDistribution != address(0x0)) {\n            FeeDistribution(feeDistribution).claim(address(this));\n        }\n    }\n    \n    function updateFor(address recipient) public {\n        _update();\n        uint256 _supplied = balances[recipient];\n        if (_supplied > 0) {\n            uint256 _supplyIndex = supplyIndex[recipient];\n            supplyIndex[recipient] = index;\n            uint256 _delta = index.sub(_supplyIndex, \"veSDL::_claimFor: index delta\");\n            if (_delta > 0) {\n              uint256 _share = _supplied.mul(_delta).div(1e18);\n              claimable[recipient] = claimable[recipient].add(_share);\n            }\n        } else {\n            supplyIndex[recipient] = index;\n        }\n    }\n    \n    mapping(address => uint) public claimable;\n    \n    function claim() external {\n        _claimFor(msg.sender);\n    }\n    function claimFor(address recipient) external {\n        _claimFor(recipient);\n    }\n    \n    function _claimFor(address recipient) internal {\n        updateFor(recipient);\n        rewards.transfer(recipient, claimable[recipient]);\n        claimable[recipient] = 0;\n        bal = rewards.balanceOf(address(this));\n    }\n\n    constructor() {\n        // Set governance for this token\n        governance = msg.sender;\n        DOMAINSEPARATOR = keccak256(abi.encode(DOMAIN_TYPEHASH, keccak256(bytes(name)), _getChainId(), address(this)));\n    }\n\n    function _mint(address dst, uint amount) internal {\n        updateFor(dst);\n        // mint the amount\n        totalSupply = totalSupply.add(amount);\n        // transfer the amount to the recipient\n        balances[dst] = balances[dst].add(amount);\n        emit Transfer(address(0), dst, amount);\n        \n        // move delegates\n        _moveDelegates(address(0), delegates[dst], amount);\n    }\n    \n    function depositAll() external {\n        _deposit(SDL.balanceOf(msg.sender));\n    }\n    \n    function deposit(uint _amount) external {\n        _deposit(_amount);\n    }\n    \n    function _deposit(uint _amount) internal {\n        SDL.transferFrom(msg.sender, LOCK, _amount);\n        _mint(msg.sender, _amount);\n        StrategyProxy(proxy).lock();\n    }\n    \n    function setProxy(address _proxy) external {\n        require(msg.sender == governance, \"setGovernance: !gov\");\n        proxy = _proxy;\n    }\n    \n    function setFeeDistribution(address _feeDistribution) external {\n        require(msg.sender == governance, \"setGovernance: !gov\");\n        feeDistribution = _feeDistribution;\n    }\n    \n    /**\n     * @notice Allows governance to change governance (for future upgradability)\n     * @param _governance new governance address to set\n     */\n    function setGovernance(address _governance) external {\n        require(msg.sender == governance, \"setGovernance: !gov\");\n        pendingGovernance = _governance;\n    }\n\n    /**\n     * @notice Allows pendingGovernance to accept their role as governance (protection pattern)\n     */\n    function acceptGovernance() external {\n        require(msg.sender == pendingGovernance, \"acceptGovernance: !pendingGov\");\n        governance = pendingGovernance;\n    }\n\n    /**\n     * @notice Get the number of tokens `spender` is approved to spend on behalf of `account`\n     * @param account The address of the account holding the funds\n     * @param spender The address of the account spending the funds\n     * @return The number of tokens approved\n     */\n    function allowance(address account, address spender) external view returns (uint) {\n        return allowances[account][spender];\n    }\n\n    /**\n     * @notice Approve `spender` to transfer up to `amount` from `src`\n     * @dev This will overwrite the approval amount for `spender`\n     *  and is subject to issues noted [here](https://eips.ethereum.org/EIPS/eip-20#approve)\n     * @param spender The address of the account which may transfer tokens\n     * @param amount The number of tokens that are approved (2^256-1 means infinite)\n     * @return Whether or not the approval succeeded\n     */\n    function approve(address spender, uint amount) external returns (bool) {\n        allowances[msg.sender][spender] = amount;\n\n        emit Approval(msg.sender, spender, amount);\n        return true;\n    }\n\n    /**\n     * @notice Triggers an approval from owner to spends\n     * @param owner The address to approve from\n     * @param spender The address to be approved\n     * @param amount The number of tokens that are approved (2^256-1 means infinite)\n     * @param deadline The time at which to expire the signature\n     * @param v The recovery byte of the signature\n     * @param r Half of the ECDSA signature pair\n     * @param s Half of the ECDSA signature pair\n     */\n    function permit(address owner, address spender, uint amount, uint deadline, uint8 v, bytes32 r, bytes32 s) external {\n        bytes32 structHash = keccak256(abi.encode(PERMIT_TYPEHASH, owner, spender, amount, nonces[owner]++, deadline));\n        bytes32 digest = keccak256(abi.encodePacked(\"\\x19\\x01\", DOMAINSEPARATOR, structHash));\n        address signatory = ecrecover(digest, v, r, s);\n        require(signatory != address(0), \"permit: signature\");\n        require(signatory == owner, \"permit: unauthorized\");\n        require(block.timestamp <= deadline, \"permit: expired\");\n\n        allowances[owner][spender] = amount;\n\n        emit Approval(owner, spender, amount);\n    }\n\n    /**\n     * @notice Get the number of tokens held by the `account`\n     * @param account The address of the account to get the balance of\n     * @return The number of tokens held\n     */\n    function balanceOf(address account) external view returns (uint) {\n        return balances[account];\n    }\n\n    /**\n     * @notice Transfer `amount` tokens from `msg.sender` to `dst`\n     * @param dst The address of the destination account\n     * @param amount The number of tokens to transfer\n     * @return Whether or not the transfer succeeded\n     */\n    function transfer(address dst, uint amount) external returns (bool) {\n        _transferTokens(msg.sender, dst, amount);\n        return true;\n    }\n\n    /**\n     * @notice Transfer `amount` tokens from `src` to `dst`\n     * @param src The address of the source account\n     * @param dst The address of the destination account\n     * @param amount The number of tokens to transfer\n     * @return Whether or not the transfer succeeded\n     */\n\n    function transferFrom(address src, address dst, uint amount) external returns (bool) {\n        address spender = msg.sender;\n        uint spenderAllowance = allowances[src][spender];\n\n        uint256 MAX_INT = 2**256 - 1;\n        if (spender != src && spenderAllowance != uint(MAX_INT)) {\n            uint newAllowance = spenderAllowance.sub(amount, \"transferFrom: exceeds spender allowance\");\n            allowances[src][spender] = newAllowance;\n\n            emit Approval(src, spender, newAllowance);\n        }\n\n        _transferTokens(src, dst, amount);\n        return true;\n    }\n\n    function _transferTokens(address src, address dst, uint amount) internal {\n        require(src != address(0), \"_transferTokens: zero address\");\n        require(dst != address(0), \"_transferTokens: zero address\");\n        \n        updateFor(src);\n        updateFor(dst);\n\n        balances[src] = balances[src].sub(amount, \"_transferTokens: exceeds balance\");\n        balances[dst] = balances[dst].add(amount);\n        emit Transfer(src, dst, amount);\n    }\n\n    function _getChainId() internal view returns (uint) {\n        uint chainId;\n        assembly { chainId := chainid() }\n        return chainId;\n    }\n}\n",
  "sourcePath": "contracts/veSaddleVault.sol",
  "type": "contract"
}